{
	"contracts/bai2.sol": {
		"Bai2": {
			"abi": [
				{
					"anonymous": false,
					"inputs": [
						{
							"indexed": false,
							"internalType": "uint256",
							"name": "minNumber",
							"type": "uint256"
						},
						{
							"indexed": false,
							"internalType": "uint256",
							"name": "maxNumber",
							"type": "uint256"
						}
					],
					"name": "MaxAndMin",
					"type": "event"
				},
				{
					"inputs": [
						{
							"internalType": "uint256",
							"name": "a",
							"type": "uint256"
						},
						{
							"internalType": "uint256",
							"name": "b",
							"type": "uint256"
						},
						{
							"internalType": "uint256",
							"name": "c",
							"type": "uint256"
						}
					],
					"name": "findMinMax",
					"outputs": [
						{
							"internalType": "uint256",
							"name": "",
							"type": "uint256"
						},
						{
							"internalType": "uint256",
							"name": "",
							"type": "uint256"
						}
					],
					"stateMutability": "nonpayable",
					"type": "function"
				}
			],
			"devdoc": {
				"kind": "dev",
				"methods": {},
				"version": 1
			},
			"evm": {
				"assembly": "    /* \"contracts/bai2.sol\":64:650  contract Bai2 {... */\n  mstore(0x40, 0x80)\n  callvalue\n  dup1\n  iszero\n  tag_1\n  jumpi\n  0x00\n  dup1\n  revert\ntag_1:\n  pop\n  dataSize(sub_0)\n  dup1\n  dataOffset(sub_0)\n  0x00\n  codecopy\n  0x00\n  return\nstop\n\nsub_0: assembly {\n        /* \"contracts/bai2.sol\":64:650  contract Bai2 {... */\n      mstore(0x40, 0x80)\n      callvalue\n      dup1\n      iszero\n      tag_1\n      jumpi\n      0x00\n      dup1\n      revert\n    tag_1:\n      pop\n      jumpi(tag_2, lt(calldatasize, 0x04))\n      shr(0xe0, calldataload(0x00))\n      dup1\n      0xcf0fe019\n      eq\n      tag_3\n      jumpi\n    tag_2:\n      0x00\n      dup1\n      revert\n        /* \"contracts/bai2.sol\":145:647  function findMinMax(uint256 a, uint256 b, uint256 c) public returns (uint256  , uint256) {... */\n    tag_3:\n      tag_4\n      0x04\n      dup1\n      calldatasize\n      sub\n      dup2\n      add\n      swap1\n      tag_5\n      swap2\n      swap1\n      tag_6\n      jump\t// in\n    tag_5:\n      tag_7\n      jump\t// in\n    tag_4:\n      mload(0x40)\n      tag_8\n      swap3\n      swap2\n      swap1\n      tag_9\n      jump\t// in\n    tag_8:\n      mload(0x40)\n      dup1\n      swap2\n      sub\n      swap1\n      return\n    tag_7:\n        /* \"contracts/bai2.sol\":214:221  uint256 */\n      0x00\n        /* \"contracts/bai2.sol\":225:232  uint256 */\n      dup1\n        /* \"contracts/bai2.sol\":257:258  0 */\n      0x00\n        /* \"contracts/bai2.sol\":253:254  a */\n      dup6\n        /* \"contracts/bai2.sol\":253:258  a > 0 */\n      gt\n        /* \"contracts/bai2.sol\":253:267  a > 0 && b > 0 */\n      dup1\n      iszero\n      tag_11\n      jumpi\n      pop\n        /* \"contracts/bai2.sol\":266:267  0 */\n      0x00\n        /* \"contracts/bai2.sol\":262:263  b */\n      dup5\n        /* \"contracts/bai2.sol\":262:267  b > 0 */\n      gt\n        /* \"contracts/bai2.sol\":253:267  a > 0 && b > 0 */\n    tag_11:\n        /* \"contracts/bai2.sol\":253:276  a > 0 && b > 0 && c > 0 */\n      dup1\n      iszero\n      tag_12\n      jumpi\n      pop\n        /* \"contracts/bai2.sol\":275:276  0 */\n      0x00\n        /* \"contracts/bai2.sol\":271:272  c */\n      dup4\n        /* \"contracts/bai2.sol\":271:276  c > 0 */\n      gt\n        /* \"contracts/bai2.sol\":253:276  a > 0 && b > 0 && c > 0 */\n    tag_12:\n        /* \"contracts/bai2.sol\":245:300  require(a > 0 && b > 0 && c > 0 , \"Phai nhap so duong\") */\n      tag_13\n      jumpi\n      mload(0x40)\n      0x08c379a000000000000000000000000000000000000000000000000000000000\n      dup2\n      mstore\n      0x04\n      add\n      tag_14\n      swap1\n      tag_15\n      jump\t// in\n    tag_14:\n      mload(0x40)\n      dup1\n      swap2\n      sub\n      swap1\n      revert\n    tag_13:\n        /* \"contracts/bai2.sol\":311:322  uint256 max */\n      0x00\n        /* \"contracts/bai2.sol\":325:326  a */\n      dup6\n        /* \"contracts/bai2.sol\":311:326  uint256 max = a */\n      swap1\n      pop\n        /* \"contracts/bai2.sol\":345:348  max */\n      dup1\n        /* \"contracts/bai2.sol\":341:342  b */\n      dup6\n        /* \"contracts/bai2.sol\":341:348  b > max */\n      gt\n        /* \"contracts/bai2.sol\":337:383  if (b > max){... */\n      iszero\n      tag_16\n      jumpi\n        /* \"contracts/bai2.sol\":370:371  b */\n      dup5\n        /* \"contracts/bai2.sol\":364:371  max = b */\n      swap1\n      pop\n        /* \"contracts/bai2.sol\":337:383  if (b > max){... */\n    tag_16:\n        /* \"contracts/bai2.sol\":400:403  max */\n      dup1\n        /* \"contracts/bai2.sol\":396:397  c */\n      dup5\n        /* \"contracts/bai2.sol\":396:403  c > max */\n      gt\n        /* \"contracts/bai2.sol\":393:439  if(c > max) {... */\n      iszero\n      tag_17\n      jumpi\n        /* \"contracts/bai2.sol\":426:427  c */\n      dup4\n        /* \"contracts/bai2.sol\":420:427  max = c */\n      swap1\n      pop\n        /* \"contracts/bai2.sol\":393:439  if(c > max) {... */\n    tag_17:\n        /* \"contracts/bai2.sol\":449:460  uint256 min */\n      0x00\n        /* \"contracts/bai2.sol\":463:464  a */\n      dup7\n        /* \"contracts/bai2.sol\":449:464  uint256 min = a */\n      swap1\n      pop\n        /* \"contracts/bai2.sol\":483:486  min */\n      dup1\n        /* \"contracts/bai2.sol\":479:480  b */\n      dup7\n        /* \"contracts/bai2.sol\":479:486  b < min */\n      lt\n        /* \"contracts/bai2.sol\":475:521  if (b < min){... */\n      iszero\n      tag_18\n      jumpi\n        /* \"contracts/bai2.sol\":508:509  b */\n      dup6\n        /* \"contracts/bai2.sol\":502:509  min = b */\n      swap1\n      pop\n        /* \"contracts/bai2.sol\":475:521  if (b < min){... */\n    tag_18:\n        /* \"contracts/bai2.sol\":538:541  min */\n      dup1\n        /* \"contracts/bai2.sol\":534:535  c */\n      dup6\n        /* \"contracts/bai2.sol\":534:541  c < min */\n      lt\n        /* \"contracts/bai2.sol\":531:577  if(c < min) {... */\n      iszero\n      tag_19\n      jumpi\n        /* \"contracts/bai2.sol\":564:565  c */\n      dup5\n        /* \"contracts/bai2.sol\":558:565  min = c */\n      swap1\n      pop\n        /* \"contracts/bai2.sol\":531:577  if(c < min) {... */\n    tag_19:\n        /* \"contracts/bai2.sol\":592:611  MaxAndMin(min, max) */\n      0x974a2bddbb28d1cda427bf78422b3d7d5edbbc4765d54c3b60f3a8e024ad7d59\n        /* \"contracts/bai2.sol\":602:605  min */\n      dup2\n        /* \"contracts/bai2.sol\":607:610  max */\n      dup4\n        /* \"contracts/bai2.sol\":592:611  MaxAndMin(min, max) */\n      mload(0x40)\n      tag_20\n      swap3\n      swap2\n      swap1\n      tag_9\n      jump\t// in\n    tag_20:\n      mload(0x40)\n      dup1\n      swap2\n      sub\n      swap1\n      log1\n        /* \"contracts/bai2.sol\":630:633  min */\n      dup1\n        /* \"contracts/bai2.sol\":635:638  max */\n      dup3\n        /* \"contracts/bai2.sol\":622:639  return (min, max) */\n      swap4\n      pop\n      swap4\n      pop\n      pop\n      pop\n        /* \"contracts/bai2.sol\":145:647  function findMinMax(uint256 a, uint256 b, uint256 c) public returns (uint256  , uint256) {... */\n      swap4\n      pop\n      swap4\n      swap2\n      pop\n      pop\n      jump\t// out\n        /* \"#utility.yul\":88:205   */\n    tag_22:\n        /* \"#utility.yul\":197:198   */\n      0x00\n        /* \"#utility.yul\":194:195   */\n      dup1\n        /* \"#utility.yul\":187:199   */\n      revert\n        /* \"#utility.yul\":334:411   */\n    tag_24:\n        /* \"#utility.yul\":371:378   */\n      0x00\n        /* \"#utility.yul\":400:405   */\n      dup2\n        /* \"#utility.yul\":389:405   */\n      swap1\n      pop\n        /* \"#utility.yul\":334:411   */\n      swap2\n      swap1\n      pop\n      jump\t// out\n        /* \"#utility.yul\":417:539   */\n    tag_25:\n        /* \"#utility.yul\":490:514   */\n      tag_37\n        /* \"#utility.yul\":508:513   */\n      dup2\n        /* \"#utility.yul\":490:514   */\n      tag_24\n      jump\t// in\n    tag_37:\n        /* \"#utility.yul\":483:488   */\n      dup2\n        /* \"#utility.yul\":480:515   */\n      eq\n        /* \"#utility.yul\":470:533   */\n      tag_38\n      jumpi\n        /* \"#utility.yul\":529:530   */\n      0x00\n        /* \"#utility.yul\":526:527   */\n      dup1\n        /* \"#utility.yul\":519:531   */\n      revert\n        /* \"#utility.yul\":470:533   */\n    tag_38:\n        /* \"#utility.yul\":417:539   */\n      pop\n      jump\t// out\n        /* \"#utility.yul\":545:684   */\n    tag_26:\n        /* \"#utility.yul\":591:596   */\n      0x00\n        /* \"#utility.yul\":629:635   */\n      dup2\n        /* \"#utility.yul\":616:636   */\n      calldataload\n        /* \"#utility.yul\":607:636   */\n      swap1\n      pop\n        /* \"#utility.yul\":645:678   */\n      tag_40\n        /* \"#utility.yul\":672:677   */\n      dup2\n        /* \"#utility.yul\":645:678   */\n      tag_25\n      jump\t// in\n    tag_40:\n        /* \"#utility.yul\":545:684   */\n      swap3\n      swap2\n      pop\n      pop\n      jump\t// out\n        /* \"#utility.yul\":690:1309   */\n    tag_6:\n        /* \"#utility.yul\":767:773   */\n      0x00\n        /* \"#utility.yul\":775:781   */\n      dup1\n        /* \"#utility.yul\":783:789   */\n      0x00\n        /* \"#utility.yul\":832:834   */\n      0x60\n        /* \"#utility.yul\":820:829   */\n      dup5\n        /* \"#utility.yul\":811:818   */\n      dup7\n        /* \"#utility.yul\":807:830   */\n      sub\n        /* \"#utility.yul\":803:835   */\n      slt\n        /* \"#utility.yul\":800:919   */\n      iszero\n      tag_42\n      jumpi\n        /* \"#utility.yul\":838:917   */\n      tag_43\n      tag_22\n      jump\t// in\n    tag_43:\n        /* \"#utility.yul\":800:919   */\n    tag_42:\n        /* \"#utility.yul\":958:959   */\n      0x00\n        /* \"#utility.yul\":983:1036   */\n      tag_44\n        /* \"#utility.yul\":1028:1035   */\n      dup7\n        /* \"#utility.yul\":1019:1025   */\n      dup3\n        /* \"#utility.yul\":1008:1017   */\n      dup8\n        /* \"#utility.yul\":1004:1026   */\n      add\n        /* \"#utility.yul\":983:1036   */\n      tag_26\n      jump\t// in\n    tag_44:\n        /* \"#utility.yul\":973:1036   */\n      swap4\n      pop\n        /* \"#utility.yul\":929:1046   */\n      pop\n        /* \"#utility.yul\":1085:1087   */\n      0x20\n        /* \"#utility.yul\":1111:1164   */\n      tag_45\n        /* \"#utility.yul\":1156:1163   */\n      dup7\n        /* \"#utility.yul\":1147:1153   */\n      dup3\n        /* \"#utility.yul\":1136:1145   */\n      dup8\n        /* \"#utility.yul\":1132:1154   */\n      add\n        /* \"#utility.yul\":1111:1164   */\n      tag_26\n      jump\t// in\n    tag_45:\n        /* \"#utility.yul\":1101:1164   */\n      swap3\n      pop\n        /* \"#utility.yul\":1056:1174   */\n      pop\n        /* \"#utility.yul\":1213:1215   */\n      0x40\n        /* \"#utility.yul\":1239:1292   */\n      tag_46\n        /* \"#utility.yul\":1284:1291   */\n      dup7\n        /* \"#utility.yul\":1275:1281   */\n      dup3\n        /* \"#utility.yul\":1264:1273   */\n      dup8\n        /* \"#utility.yul\":1260:1282   */\n      add\n        /* \"#utility.yul\":1239:1292   */\n      tag_26\n      jump\t// in\n    tag_46:\n        /* \"#utility.yul\":1229:1292   */\n      swap2\n      pop\n        /* \"#utility.yul\":1184:1302   */\n      pop\n        /* \"#utility.yul\":690:1309   */\n      swap3\n      pop\n      swap3\n      pop\n      swap3\n      jump\t// out\n        /* \"#utility.yul\":1315:1433   */\n    tag_27:\n        /* \"#utility.yul\":1402:1426   */\n      tag_48\n        /* \"#utility.yul\":1420:1425   */\n      dup2\n        /* \"#utility.yul\":1402:1426   */\n      tag_24\n      jump\t// in\n    tag_48:\n        /* \"#utility.yul\":1397:1400   */\n      dup3\n        /* \"#utility.yul\":1390:1427   */\n      mstore\n        /* \"#utility.yul\":1315:1433   */\n      pop\n      pop\n      jump\t// out\n        /* \"#utility.yul\":1439:1771   */\n    tag_9:\n        /* \"#utility.yul\":1560:1564   */\n      0x00\n        /* \"#utility.yul\":1598:1600   */\n      0x40\n        /* \"#utility.yul\":1587:1596   */\n      dup3\n        /* \"#utility.yul\":1583:1601   */\n      add\n        /* \"#utility.yul\":1575:1601   */\n      swap1\n      pop\n        /* \"#utility.yul\":1611:1682   */\n      tag_50\n        /* \"#utility.yul\":1679:1680   */\n      0x00\n        /* \"#utility.yul\":1668:1677   */\n      dup4\n        /* \"#utility.yul\":1664:1681   */\n      add\n        /* \"#utility.yul\":1655:1661   */\n      dup6\n        /* \"#utility.yul\":1611:1682   */\n      tag_27\n      jump\t// in\n    tag_50:\n        /* \"#utility.yul\":1692:1764   */\n      tag_51\n        /* \"#utility.yul\":1760:1762   */\n      0x20\n        /* \"#utility.yul\":1749:1758   */\n      dup4\n        /* \"#utility.yul\":1745:1763   */\n      add\n        /* \"#utility.yul\":1736:1742   */\n      dup5\n        /* \"#utility.yul\":1692:1764   */\n      tag_27\n      jump\t// in\n    tag_51:\n        /* \"#utility.yul\":1439:1771   */\n      swap4\n      swap3\n      pop\n      pop\n      pop\n      jump\t// out\n        /* \"#utility.yul\":1777:1946   */\n    tag_28:\n        /* \"#utility.yul\":1861:1872   */\n      0x00\n        /* \"#utility.yul\":1895:1901   */\n      dup3\n        /* \"#utility.yul\":1890:1893   */\n      dup3\n        /* \"#utility.yul\":1883:1902   */\n      mstore\n        /* \"#utility.yul\":1935:1939   */\n      0x20\n        /* \"#utility.yul\":1930:1933   */\n      dup3\n        /* \"#utility.yul\":1926:1940   */\n      add\n        /* \"#utility.yul\":1911:1940   */\n      swap1\n      pop\n        /* \"#utility.yul\":1777:1946   */\n      swap3\n      swap2\n      pop\n      pop\n      jump\t// out\n        /* \"#utility.yul\":1952:2120   */\n    tag_29:\n        /* \"#utility.yul\":2092:2112   */\n      0x50686169206e68617020736f2064756f6e670000000000000000000000000000\n        /* \"#utility.yul\":2088:2089   */\n      0x00\n        /* \"#utility.yul\":2080:2086   */\n      dup3\n        /* \"#utility.yul\":2076:2090   */\n      add\n        /* \"#utility.yul\":2069:2113   */\n      mstore\n        /* \"#utility.yul\":1952:2120   */\n      pop\n      jump\t// out\n        /* \"#utility.yul\":2126:2492   */\n    tag_30:\n        /* \"#utility.yul\":2268:2271   */\n      0x00\n        /* \"#utility.yul\":2289:2356   */\n      tag_55\n        /* \"#utility.yul\":2353:2355   */\n      0x12\n        /* \"#utility.yul\":2348:2351   */\n      dup4\n        /* \"#utility.yul\":2289:2356   */\n      tag_28\n      jump\t// in\n    tag_55:\n        /* \"#utility.yul\":2282:2356   */\n      swap2\n      pop\n        /* \"#utility.yul\":2365:2458   */\n      tag_56\n        /* \"#utility.yul\":2454:2457   */\n      dup3\n        /* \"#utility.yul\":2365:2458   */\n      tag_29\n      jump\t// in\n    tag_56:\n        /* \"#utility.yul\":2483:2485   */\n      0x20\n        /* \"#utility.yul\":2478:2481   */\n      dup3\n        /* \"#utility.yul\":2474:2486   */\n      add\n        /* \"#utility.yul\":2467:2486   */\n      swap1\n      pop\n        /* \"#utility.yul\":2126:2492   */\n      swap2\n      swap1\n      pop\n      jump\t// out\n        /* \"#utility.yul\":2498:2917   */\n    tag_15:\n        /* \"#utility.yul\":2664:2668   */\n      0x00\n        /* \"#utility.yul\":2702:2704   */\n      0x20\n        /* \"#utility.yul\":2691:2700   */\n      dup3\n        /* \"#utility.yul\":2687:2705   */\n      add\n        /* \"#utility.yul\":2679:2705   */\n      swap1\n      pop\n        /* \"#utility.yul\":2751:2760   */\n      dup2\n        /* \"#utility.yul\":2745:2749   */\n      dup2\n        /* \"#utility.yul\":2741:2761   */\n      sub\n        /* \"#utility.yul\":2737:2738   */\n      0x00\n        /* \"#utility.yul\":2726:2735   */\n      dup4\n        /* \"#utility.yul\":2722:2739   */\n      add\n        /* \"#utility.yul\":2715:2762   */\n      mstore\n        /* \"#utility.yul\":2779:2910   */\n      tag_58\n        /* \"#utility.yul\":2905:2909   */\n      dup2\n        /* \"#utility.yul\":2779:2910   */\n      tag_30\n      jump\t// in\n    tag_58:\n        /* \"#utility.yul\":2771:2910   */\n      swap1\n      pop\n        /* \"#utility.yul\":2498:2917   */\n      swap2\n      swap1\n      pop\n      jump\t// out\n\n    auxdata: 0xa2646970667358221220e63e2d35ae0bdc50cd36e9dbd5b8dbac7b41caeccedec9dbbdf28eceb477b97164736f6c634300081a0033\n}\n",
				"bytecode": {
					"linkReferences": {},
					"object": "6080604052348015600e575f80fd5b506102a48061001c5f395ff3fe608060405234801561000f575f80fd5b5060043610610029575f3560e01c8063cf0fe0191461002d575b5f80fd5b61004760048036038101906100429190610170565b61005e565b6040516100559291906101cf565b60405180910390f35b5f805f8511801561006e57505f84115b801561007957505f83115b6100b8576040517f08c379a00000000000000000000000000000000000000000000000000000000081526004016100af90610250565b60405180910390fd5b5f859050808511156100c8578490505b808411156100d4578390505b5f869050808610156100e4578590505b808510156100f0578490505b7f974a2bddbb28d1cda427bf78422b3d7d5edbbc4765d54c3b60f3a8e024ad7d5981836040516101219291906101cf565b60405180910390a18082935093505050935093915050565b5f80fd5b5f819050919050565b61014f8161013d565b8114610159575f80fd5b50565b5f8135905061016a81610146565b92915050565b5f805f6060848603121561018757610186610139565b5b5f6101948682870161015c565b93505060206101a58682870161015c565b92505060406101b68682870161015c565b9150509250925092565b6101c98161013d565b82525050565b5f6040820190506101e25f8301856101c0565b6101ef60208301846101c0565b9392505050565b5f82825260208201905092915050565b7f50686169206e68617020736f2064756f6e6700000000000000000000000000005f82015250565b5f61023a6012836101f6565b915061024582610206565b602082019050919050565b5f6020820190508181035f8301526102678161022e565b905091905056fea2646970667358221220e63e2d35ae0bdc50cd36e9dbd5b8dbac7b41caeccedec9dbbdf28eceb477b97164736f6c634300081a0033",
					"opcodes": "PUSH1 0x80 PUSH1 0x40 MSTORE CALLVALUE DUP1 ISZERO PUSH1 0xE JUMPI PUSH0 DUP1 REVERT JUMPDEST POP PUSH2 0x2A4 DUP1 PUSH2 0x1C PUSH0 CODECOPY PUSH0 RETURN INVALID PUSH1 0x80 PUSH1 0x40 MSTORE CALLVALUE DUP1 ISZERO PUSH2 0xF JUMPI PUSH0 DUP1 REVERT JUMPDEST POP PUSH1 0x4 CALLDATASIZE LT PUSH2 0x29 JUMPI PUSH0 CALLDATALOAD PUSH1 0xE0 SHR DUP1 PUSH4 0xCF0FE019 EQ PUSH2 0x2D JUMPI JUMPDEST PUSH0 DUP1 REVERT JUMPDEST PUSH2 0x47 PUSH1 0x4 DUP1 CALLDATASIZE SUB DUP2 ADD SWAP1 PUSH2 0x42 SWAP2 SWAP1 PUSH2 0x170 JUMP JUMPDEST PUSH2 0x5E JUMP JUMPDEST PUSH1 0x40 MLOAD PUSH2 0x55 SWAP3 SWAP2 SWAP1 PUSH2 0x1CF JUMP JUMPDEST PUSH1 0x40 MLOAD DUP1 SWAP2 SUB SWAP1 RETURN JUMPDEST PUSH0 DUP1 PUSH0 DUP6 GT DUP1 ISZERO PUSH2 0x6E JUMPI POP PUSH0 DUP5 GT JUMPDEST DUP1 ISZERO PUSH2 0x79 JUMPI POP PUSH0 DUP4 GT JUMPDEST PUSH2 0xB8 JUMPI PUSH1 0x40 MLOAD PUSH32 0x8C379A000000000000000000000000000000000000000000000000000000000 DUP2 MSTORE PUSH1 0x4 ADD PUSH2 0xAF SWAP1 PUSH2 0x250 JUMP JUMPDEST PUSH1 0x40 MLOAD DUP1 SWAP2 SUB SWAP1 REVERT JUMPDEST PUSH0 DUP6 SWAP1 POP DUP1 DUP6 GT ISZERO PUSH2 0xC8 JUMPI DUP5 SWAP1 POP JUMPDEST DUP1 DUP5 GT ISZERO PUSH2 0xD4 JUMPI DUP4 SWAP1 POP JUMPDEST PUSH0 DUP7 SWAP1 POP DUP1 DUP7 LT ISZERO PUSH2 0xE4 JUMPI DUP6 SWAP1 POP JUMPDEST DUP1 DUP6 LT ISZERO PUSH2 0xF0 JUMPI DUP5 SWAP1 POP JUMPDEST PUSH32 0x974A2BDDBB28D1CDA427BF78422B3D7D5EDBBC4765D54C3B60F3A8E024AD7D59 DUP2 DUP4 PUSH1 0x40 MLOAD PUSH2 0x121 SWAP3 SWAP2 SWAP1 PUSH2 0x1CF JUMP JUMPDEST PUSH1 0x40 MLOAD DUP1 SWAP2 SUB SWAP1 LOG1 DUP1 DUP3 SWAP4 POP SWAP4 POP POP POP SWAP4 POP SWAP4 SWAP2 POP POP JUMP JUMPDEST PUSH0 DUP1 REVERT JUMPDEST PUSH0 DUP2 SWAP1 POP SWAP2 SWAP1 POP JUMP JUMPDEST PUSH2 0x14F DUP2 PUSH2 0x13D JUMP JUMPDEST DUP2 EQ PUSH2 0x159 JUMPI PUSH0 DUP1 REVERT JUMPDEST POP JUMP JUMPDEST PUSH0 DUP2 CALLDATALOAD SWAP1 POP PUSH2 0x16A DUP2 PUSH2 0x146 JUMP JUMPDEST SWAP3 SWAP2 POP POP JUMP JUMPDEST PUSH0 DUP1 PUSH0 PUSH1 0x60 DUP5 DUP7 SUB SLT ISZERO PUSH2 0x187 JUMPI PUSH2 0x186 PUSH2 0x139 JUMP JUMPDEST JUMPDEST PUSH0 PUSH2 0x194 DUP7 DUP3 DUP8 ADD PUSH2 0x15C JUMP JUMPDEST SWAP4 POP POP PUSH1 0x20 PUSH2 0x1A5 DUP7 DUP3 DUP8 ADD PUSH2 0x15C JUMP JUMPDEST SWAP3 POP POP PUSH1 0x40 PUSH2 0x1B6 DUP7 DUP3 DUP8 ADD PUSH2 0x15C JUMP JUMPDEST SWAP2 POP POP SWAP3 POP SWAP3 POP SWAP3 JUMP JUMPDEST PUSH2 0x1C9 DUP2 PUSH2 0x13D JUMP JUMPDEST DUP3 MSTORE POP POP JUMP JUMPDEST PUSH0 PUSH1 0x40 DUP3 ADD SWAP1 POP PUSH2 0x1E2 PUSH0 DUP4 ADD DUP6 PUSH2 0x1C0 JUMP JUMPDEST PUSH2 0x1EF PUSH1 0x20 DUP4 ADD DUP5 PUSH2 0x1C0 JUMP JUMPDEST SWAP4 SWAP3 POP POP POP JUMP JUMPDEST PUSH0 DUP3 DUP3 MSTORE PUSH1 0x20 DUP3 ADD SWAP1 POP SWAP3 SWAP2 POP POP JUMP JUMPDEST PUSH32 0x50686169206E68617020736F2064756F6E670000000000000000000000000000 PUSH0 DUP3 ADD MSTORE POP JUMP JUMPDEST PUSH0 PUSH2 0x23A PUSH1 0x12 DUP4 PUSH2 0x1F6 JUMP JUMPDEST SWAP2 POP PUSH2 0x245 DUP3 PUSH2 0x206 JUMP JUMPDEST PUSH1 0x20 DUP3 ADD SWAP1 POP SWAP2 SWAP1 POP JUMP JUMPDEST PUSH0 PUSH1 0x20 DUP3 ADD SWAP1 POP DUP2 DUP2 SUB PUSH0 DUP4 ADD MSTORE PUSH2 0x267 DUP2 PUSH2 0x22E JUMP JUMPDEST SWAP1 POP SWAP2 SWAP1 POP JUMP INVALID LOG2 PUSH5 0x6970667358 0x22 SLT KECCAK256 0xE6 RETURNDATACOPY 0x2D CALLDATALOAD 0xAE SIGNEXTEND 0xDC POP 0xCD CALLDATASIZE 0xE9 0xDB 0xD5 0xB8 0xDB 0xAC PUSH28 0x41CAECCEDEC9DBBDF28ECEB477B97164736F6C634300081A00330000 "
				},
				"gasEstimates": {
					"creation": {
						"codeDepositCost": "135200",
						"executionCost": "181",
						"totalCost": "135381"
					},
					"external": {
						"findMinMax(uint256,uint256,uint256)": "infinite"
					}
				},
				"methodIdentifiers": {
					"findMinMax(uint256,uint256,uint256)": "cf0fe019"
				}
			},
			"storageLayout": {
				"storage": [],
				"types": null
			},
			"userdoc": {
				"kind": "user",
				"methods": {},
				"version": 1
			}
		}
	}
}