{
	"contracts/bai4.sol": {
		"HouseManager": {
			"abi": [
				{
					"anonymous": false,
					"inputs": [
						{
							"indexed": false,
							"internalType": "uint256",
							"name": "id",
							"type": "uint256"
						},
						{
							"indexed": false,
							"internalType": "string",
							"name": "house_address",
							"type": "string"
						},
						{
							"indexed": false,
							"internalType": "address",
							"name": "owner",
							"type": "address"
						}
					],
					"name": "HouseAdded",
					"type": "event"
				},
				{
					"anonymous": false,
					"inputs": [
						{
							"indexed": false,
							"internalType": "uint256",
							"name": "id",
							"type": "uint256"
						},
						{
							"indexed": false,
							"internalType": "address",
							"name": "owner",
							"type": "address"
						}
					],
					"name": "HouseDeleted",
					"type": "event"
				},
				{
					"anonymous": false,
					"inputs": [
						{
							"indexed": false,
							"internalType": "uint256",
							"name": "id",
							"type": "uint256"
						},
						{
							"indexed": false,
							"internalType": "string",
							"name": "house_address_new",
							"type": "string"
						},
						{
							"indexed": false,
							"internalType": "address",
							"name": "owner",
							"type": "address"
						}
					],
					"name": "HouseEdited",
					"type": "event"
				},
				{
					"inputs": [
						{
							"internalType": "string",
							"name": "_house_address",
							"type": "string"
						}
					],
					"name": "addHouse",
					"outputs": [],
					"stateMutability": "nonpayable",
					"type": "function"
				},
				{
					"inputs": [
						{
							"internalType": "uint256",
							"name": "_id",
							"type": "uint256"
						}
					],
					"name": "deleteHouse",
					"outputs": [],
					"stateMutability": "nonpayable",
					"type": "function"
				},
				{
					"inputs": [
						{
							"internalType": "uint256",
							"name": "_id",
							"type": "uint256"
						},
						{
							"internalType": "string",
							"name": "_house_address_new",
							"type": "string"
						}
					],
					"name": "editHouse",
					"outputs": [],
					"stateMutability": "nonpayable",
					"type": "function"
				},
				{
					"inputs": [],
					"name": "getHouses",
					"outputs": [
						{
							"components": [
								{
									"internalType": "uint256",
									"name": "id",
									"type": "uint256"
								},
								{
									"internalType": "string",
									"name": "house_address",
									"type": "string"
								},
								{
									"internalType": "address",
									"name": "owner",
									"type": "address"
								}
							],
							"internalType": "struct HouseManager.House[]",
							"name": "",
							"type": "tuple[]"
						}
					],
					"stateMutability": "view",
					"type": "function"
				},
				{
					"inputs": [
						{
							"internalType": "uint256",
							"name": "",
							"type": "uint256"
						}
					],
					"name": "houses",
					"outputs": [
						{
							"internalType": "uint256",
							"name": "id",
							"type": "uint256"
						},
						{
							"internalType": "string",
							"name": "house_address",
							"type": "string"
						},
						{
							"internalType": "address",
							"name": "owner",
							"type": "address"
						}
					],
					"stateMutability": "view",
					"type": "function"
				}
			],
			"devdoc": {
				"kind": "dev",
				"methods": {},
				"version": 1
			},
			"evm": {
				"assembly": "    /* \"contracts/bai4.sol\":66:1925  contract HouseManager{... */\n  mstore(0x40, 0x80)\n  callvalue\n  dup1\n  iszero\n  tag_1\n  jumpi\n  0x00\n  dup1\n  revert\ntag_1:\n  pop\n  dataSize(sub_0)\n  dup1\n  dataOffset(sub_0)\n  0x00\n  codecopy\n  0x00\n  return\nstop\n\nsub_0: assembly {\n        /* \"contracts/bai4.sol\":66:1925  contract HouseManager{... */\n      mstore(0x40, 0x80)\n      callvalue\n      dup1\n      iszero\n      tag_1\n      jumpi\n      0x00\n      dup1\n      revert\n    tag_1:\n      pop\n      jumpi(tag_2, lt(calldatasize, 0x04))\n      shr(0xe0, calldataload(0x00))\n      dup1\n      0x474a0e38\n      eq\n      tag_3\n      jumpi\n      dup1\n      0x4c9b56fd\n      eq\n      tag_4\n      jumpi\n      dup1\n      0xaeda852f\n      eq\n      tag_5\n      jumpi\n      dup1\n      0xf45fec22\n      eq\n      tag_6\n      jumpi\n      dup1\n      0xfd5f33ec\n      eq\n      tag_7\n      jumpi\n    tag_2:\n      0x00\n      dup1\n      revert\n        /* \"contracts/bai4.sol\":500:957  function addHouse(string memory _house_address) public {... */\n    tag_3:\n      tag_8\n      0x04\n      dup1\n      calldatasize\n      sub\n      dup2\n      add\n      swap1\n      tag_9\n      swap2\n      swap1\n      tag_10\n      jump\t// in\n    tag_9:\n      tag_11\n      jump\t// in\n    tag_8:\n      stop\n        /* \"contracts/bai4.sol\":963:1392  function deleteHouse(uint256 _id) public {... */\n    tag_4:\n      tag_12\n      0x04\n      dup1\n      calldatasize\n      sub\n      dup2\n      add\n      swap1\n      tag_13\n      swap2\n      swap1\n      tag_14\n      jump\t// in\n    tag_13:\n      tag_15\n      jump\t// in\n    tag_12:\n      stop\n        /* \"contracts/bai4.sol\":225:246  House[] public houses */\n    tag_5:\n      tag_16\n      0x04\n      dup1\n      calldatasize\n      sub\n      dup2\n      add\n      swap1\n      tag_17\n      swap2\n      swap1\n      tag_14\n      jump\t// in\n    tag_17:\n      tag_18\n      jump\t// in\n    tag_16:\n      mload(0x40)\n      tag_19\n      swap4\n      swap3\n      swap2\n      swap1\n      tag_20\n      jump\t// in\n    tag_19:\n      mload(0x40)\n      dup1\n      swap2\n      sub\n      swap1\n      return\n        /* \"contracts/bai4.sol\":1398:1826  function editHouse(uint256 _id, string memory _house_address_new) public {... */\n    tag_6:\n      tag_21\n      0x04\n      dup1\n      calldatasize\n      sub\n      dup2\n      add\n      swap1\n      tag_22\n      swap2\n      swap1\n      tag_23\n      jump\t// in\n    tag_22:\n      tag_24\n      jump\t// in\n    tag_21:\n      stop\n        /* \"contracts/bai4.sol\":1832:1922  function getHouses() public  view returns (House[] memory){... */\n    tag_7:\n      tag_25\n      tag_26\n      jump\t// in\n    tag_25:\n      mload(0x40)\n      tag_27\n      swap2\n      swap1\n      tag_28\n      jump\t// in\n    tag_27:\n      mload(0x40)\n      dup1\n      swap2\n      sub\n      swap1\n      return\n        /* \"contracts/bai4.sol\":500:957  function addHouse(string memory _house_address) public {... */\n    tag_11:\n        /* \"contracts/bai4.sol\":566:587  House memory newHouse */\n      0x00\n        /* \"contracts/bai4.sol\":590:709  House({... */\n      mload(0x40)\n      dup1\n      0x60\n      add\n      0x40\n      mstore\n      dup1\n        /* \"contracts/bai4.sol\":615:621  nextId */\n      sload(0x00)\n        /* \"contracts/bai4.sol\":590:709  House({... */\n      dup2\n      mstore\n      0x20\n      add\n        /* \"contracts/bai4.sol\":651:665  _house_address */\n      dup4\n        /* \"contracts/bai4.sol\":590:709  House({... */\n      dup2\n      mstore\n      0x20\n      add\n        /* \"contracts/bai4.sol\":687:697  msg.sender */\n      caller\n        /* \"contracts/bai4.sol\":590:709  House({... */\n      0xffffffffffffffffffffffffffffffffffffffff\n      and\n      dup2\n      mstore\n      pop\n        /* \"contracts/bai4.sol\":566:709  House memory newHouse = House({... */\n      swap1\n      pop\n        /* \"contracts/bai4.sol\":730:736  houses */\n      0x01\n        /* \"contracts/bai4.sol\":742:750  newHouse */\n      dup2\n        /* \"contracts/bai4.sol\":730:751  houses.push(newHouse) */\n      swap1\n      dup1\n      0x01\n      dup2\n      sload\n      add\n      dup1\n      dup3\n      sstore\n      dup1\n      swap2\n      pop\n      pop\n      0x01\n      swap1\n      sub\n      swap1\n      0x00\n      mstore\n      keccak256(0x00, 0x20)\n      swap1\n      0x03\n      mul\n      add\n      0x00\n      swap1\n      swap2\n      swap1\n      swap2\n      swap1\n      swap2\n      pop\n      0x00\n      dup3\n      add\n      mload\n      dup2\n      0x00\n      add\n      sstore\n      0x20\n      dup3\n      add\n      mload\n      dup2\n      0x01\n      add\n      swap1\n      dup2\n      tag_31\n      swap2\n      swap1\n      tag_32\n      jump\t// in\n    tag_31:\n      pop\n      0x40\n      dup3\n      add\n      mload\n      dup2\n      0x02\n      add\n      exp(0x0100, 0x00)\n      dup2\n      sload\n      dup2\n      0xffffffffffffffffffffffffffffffffffffffff\n      mul\n      not\n      and\n      swap1\n      dup4\n      0xffffffffffffffffffffffffffffffffffffffff\n      and\n      mul\n      or\n      swap1\n      sstore\n      pop\n      pop\n      pop\n        /* \"contracts/bai4.sol\":779:789  msg.sender */\n      caller\n        /* \"contracts/bai4.sol\":762:768  owners */\n      0x02\n        /* \"contracts/bai4.sol\":762:776  owners[nextId] */\n      0x00\n        /* \"contracts/bai4.sol\":769:775  nextId */\n      dup1\n      sload\n        /* \"contracts/bai4.sol\":762:776  owners[nextId] */\n      dup2\n      mstore\n      0x20\n      add\n      swap1\n      dup2\n      mstore\n      0x20\n      add\n      0x00\n      keccak256\n      0x00\n        /* \"contracts/bai4.sol\":762:789  owners[nextId] = msg.sender */\n      0x0100\n      exp\n      dup2\n      sload\n      dup2\n      0xffffffffffffffffffffffffffffffffffffffff\n      mul\n      not\n      and\n      swap1\n      dup4\n      0xffffffffffffffffffffffffffffffffffffffff\n      and\n      mul\n      or\n      swap1\n      sstore\n      pop\n        /* \"contracts/bai4.sol\":807:928  HouseAdded(... */\n      0xec90e5000827f4c5100c213857beadaf3398ee1c88028f5d10010307f90ea10c\n        /* \"contracts/bai4.sol\":832:840  newHouse */\n      dup2\n        /* \"contracts/bai4.sol\":832:843  newHouse.id */\n      0x00\n      add\n      mload\n        /* \"contracts/bai4.sol\":859:867  newHouse */\n      dup3\n        /* \"contracts/bai4.sol\":859:881  newHouse.house_address */\n      0x20\n      add\n      mload\n        /* \"contracts/bai4.sol\":898:904  owners */\n      0x02\n        /* \"contracts/bai4.sol\":898:917  owners[newHouse.id] */\n      0x00\n        /* \"contracts/bai4.sol\":905:913  newHouse */\n      dup6\n        /* \"contracts/bai4.sol\":905:916  newHouse.id */\n      0x00\n      add\n      mload\n        /* \"contracts/bai4.sol\":898:917  owners[newHouse.id] */\n      dup2\n      mstore\n      0x20\n      add\n      swap1\n      dup2\n      mstore\n      0x20\n      add\n      0x00\n      keccak256\n      0x00\n      swap1\n      sload\n      swap1\n      0x0100\n      exp\n      swap1\n      div\n      0xffffffffffffffffffffffffffffffffffffffff\n      and\n        /* \"contracts/bai4.sol\":807:928  HouseAdded(... */\n      mload(0x40)\n      tag_33\n      swap4\n      swap3\n      swap2\n      swap1\n      tag_20\n      jump\t// in\n    tag_33:\n      mload(0x40)\n      dup1\n      swap2\n      sub\n      swap1\n      log1\n        /* \"contracts/bai4.sol\":939:945  nextId */\n      0x00\n      dup1\n        /* \"contracts/bai4.sol\":939:947  nextId++ */\n      dup2\n      sload\n      dup1\n      swap3\n      swap2\n      swap1\n      tag_34\n      swap1\n      tag_35\n      jump\t// in\n    tag_34:\n      swap2\n      swap1\n      pop\n      sstore\n      pop\n        /* \"contracts/bai4.sol\":555:957  {... */\n      pop\n        /* \"contracts/bai4.sol\":500:957  function addHouse(string memory _house_address) public {... */\n      pop\n      jump\t// out\n        /* \"contracts/bai4.sol\":963:1392  function deleteHouse(uint256 _id) public {... */\n    tag_15:\n        /* \"contracts/bai4.sol\":1037:1043  owners */\n      0x02\n        /* \"contracts/bai4.sol\":1037:1048  owners[_id] */\n      0x00\n        /* \"contracts/bai4.sol\":1044:1047  _id */\n      dup3\n        /* \"contracts/bai4.sol\":1037:1048  owners[_id] */\n      dup2\n      mstore\n      0x20\n      add\n      swap1\n      dup2\n      mstore\n      0x20\n      add\n      0x00\n      keccak256\n      0x00\n      swap1\n      sload\n      swap1\n      0x0100\n      exp\n      swap1\n      div\n      0xffffffffffffffffffffffffffffffffffffffff\n      and\n        /* \"contracts/bai4.sol\":1023:1048  msg.sender == owners[_id] */\n      0xffffffffffffffffffffffffffffffffffffffff\n      and\n        /* \"contracts/bai4.sol\":1023:1033  msg.sender */\n      caller\n        /* \"contracts/bai4.sol\":1023:1048  msg.sender == owners[_id] */\n      0xffffffffffffffffffffffffffffffffffffffff\n      and\n      eq\n        /* \"contracts/bai4.sol\":1015:1078  require(msg.sender == owners[_id], \"Ban khong phai la chu nha\") */\n      tag_37\n      jumpi\n      mload(0x40)\n      0x08c379a000000000000000000000000000000000000000000000000000000000\n      dup2\n      mstore\n      0x04\n      add\n      tag_38\n      swap1\n      tag_39\n      jump\t// in\n    tag_38:\n      mload(0x40)\n      dup1\n      swap2\n      sub\n      swap1\n      revert\n    tag_37:\n        /* \"contracts/bai4.sol\":1094:1103  uint256 i */\n      0x00\n        /* \"contracts/bai4.sol\":1089:1311  for (uint256 i = 0 ; i < houses.length; i++ ){... */\n    tag_40:\n        /* \"contracts/bai4.sol\":1114:1120  houses */\n      0x01\n        /* \"contracts/bai4.sol\":1114:1127  houses.length */\n      dup1\n      sload\n      swap1\n      pop\n        /* \"contracts/bai4.sol\":1110:1111  i */\n      dup2\n        /* \"contracts/bai4.sol\":1110:1127  i < houses.length */\n      lt\n        /* \"contracts/bai4.sol\":1089:1311  for (uint256 i = 0 ; i < houses.length; i++ ){... */\n      iszero\n      tag_41\n      jumpi\n        /* \"contracts/bai4.sol\":1168:1171  _id */\n      dup2\n        /* \"contracts/bai4.sol\":1152:1158  houses */\n      0x01\n        /* \"contracts/bai4.sol\":1159:1160  i */\n      dup3\n        /* \"contracts/bai4.sol\":1152:1161  houses[i] */\n      dup2\n      sload\n      dup2\n      lt\n      tag_43\n      jumpi\n      tag_44\n      tag_45\n      jump\t// in\n    tag_44:\n    tag_43:\n      swap1\n      0x00\n      mstore\n      keccak256(0x00, 0x20)\n      swap1\n      0x03\n      mul\n      add\n        /* \"contracts/bai4.sol\":1152:1164  houses[i].id */\n      0x00\n      add\n      sload\n        /* \"contracts/bai4.sol\":1152:1171  houses[i].id == _id */\n      sub\n        /* \"contracts/bai4.sol\":1149:1300  if(houses[i].id == _id){... */\n      tag_47\n      jumpi\n        /* \"contracts/bai4.sol\":1203:1209  houses */\n      0x01\n        /* \"contracts/bai4.sol\":1226:1227  1 */\n      dup1\n        /* \"contracts/bai4.sol\":1210:1216  houses */\n      dup1\n        /* \"contracts/bai4.sol\":1210:1223  houses.length */\n      dup1\n      sload\n      swap1\n      pop\n        /* \"contracts/bai4.sol\":1210:1227  houses.length - 1 */\n      tag_48\n      swap2\n      swap1\n      tag_49\n      jump\t// in\n    tag_48:\n        /* \"contracts/bai4.sol\":1203:1228  houses[houses.length - 1] */\n      dup2\n      sload\n      dup2\n      lt\n      tag_50\n      jumpi\n      tag_51\n      tag_45\n      jump\t// in\n    tag_51:\n    tag_50:\n      swap1\n      0x00\n      mstore\n      keccak256(0x00, 0x20)\n      swap1\n      0x03\n      mul\n      add\n        /* \"contracts/bai4.sol\":1191:1197  houses */\n      0x01\n        /* \"contracts/bai4.sol\":1198:1199  i */\n      dup3\n        /* \"contracts/bai4.sol\":1191:1200  houses[i] */\n      dup2\n      sload\n      dup2\n      lt\n      tag_53\n      jumpi\n      tag_54\n      tag_45\n      jump\t// in\n    tag_54:\n    tag_53:\n      swap1\n      0x00\n      mstore\n      keccak256(0x00, 0x20)\n      swap1\n      0x03\n      mul\n      add\n        /* \"contracts/bai4.sol\":1191:1228  houses[i] = houses[houses.length - 1] */\n      0x00\n      dup3\n      add\n      sload\n      dup2\n      0x00\n      add\n      sstore\n      0x01\n      dup3\n      add\n      dup2\n      0x01\n      add\n      swap1\n      dup2\n      tag_56\n      swap2\n      swap1\n      tag_57\n      jump\t// in\n    tag_56:\n      pop\n      0x02\n      dup3\n      add\n      0x00\n      swap1\n      sload\n      swap1\n      0x0100\n      exp\n      swap1\n      div\n      0xffffffffffffffffffffffffffffffffffffffff\n      and\n      dup2\n      0x02\n      add\n      exp(0x0100, 0x00)\n      dup2\n      sload\n      dup2\n      0xffffffffffffffffffffffffffffffffffffffff\n      mul\n      not\n      and\n      swap1\n      dup4\n      0xffffffffffffffffffffffffffffffffffffffff\n      and\n      mul\n      or\n      swap1\n      sstore\n      pop\n      swap1\n      pop\n      pop\n        /* \"contracts/bai4.sol\":1247:1253  houses */\n      0x01\n        /* \"contracts/bai4.sol\":1247:1259  houses.pop() */\n      dup1\n      sload\n      dup1\n      tag_58\n      jumpi\n      tag_59\n      tag_60\n      jump\t// in\n    tag_59:\n    tag_58:\n      0x01\n      swap1\n      sub\n      dup2\n      dup2\n      swap1\n      0x00\n      mstore\n      keccak256(0x00, 0x20)\n      swap1\n      0x03\n      mul\n      add\n      0x00\n      dup1\n      dup3\n      add\n      0x00\n      swap1\n      sstore\n      0x01\n      dup3\n      add\n      0x00\n      tag_62\n      swap2\n      swap1\n      tag_63\n      jump\t// in\n    tag_62:\n      0x02\n      dup3\n      add\n      exp(0x0100, 0x00)\n      dup2\n      sload\n      swap1\n      0xffffffffffffffffffffffffffffffffffffffff\n      mul\n      not\n      and\n      swap1\n      sstore\n      pop\n      pop\n      swap1\n      sstore\n        /* \"contracts/bai4.sol\":1278:1283  break */\n      jump(tag_41)\n        /* \"contracts/bai4.sol\":1149:1300  if(houses[i].id == _id){... */\n    tag_47:\n        /* \"contracts/bai4.sol\":1129:1132  i++ */\n      dup1\n      dup1\n      0x01\n      add\n      swap2\n      pop\n      pop\n        /* \"contracts/bai4.sol\":1089:1311  for (uint256 i = 0 ; i < houses.length; i++ ){... */\n      jump(tag_40)\n    tag_41:\n      pop\n        /* \"contracts/bai4.sol\":1328:1334  owners */\n      0x02\n        /* \"contracts/bai4.sol\":1328:1339  owners[_id] */\n      0x00\n        /* \"contracts/bai4.sol\":1335:1338  _id */\n      dup3\n        /* \"contracts/bai4.sol\":1328:1339  owners[_id] */\n      dup2\n      mstore\n      0x20\n      add\n      swap1\n      dup2\n      mstore\n      0x20\n      add\n      0x00\n      keccak256\n      0x00\n        /* \"contracts/bai4.sol\":1321:1339  delete owners[_id] */\n      0x0100\n      exp\n      dup2\n      sload\n      swap1\n      0xffffffffffffffffffffffffffffffffffffffff\n      mul\n      not\n      and\n      swap1\n      sstore\n        /* \"contracts/bai4.sol\":1355:1384  HouseDeleted(_id, msg.sender) */\n      0x86839e11666b3d11048312755ff196577ccfb2eb8634833a34285c483e22d4ed\n        /* \"contracts/bai4.sol\":1368:1371  _id */\n      dup2\n        /* \"contracts/bai4.sol\":1373:1383  msg.sender */\n      caller\n        /* \"contracts/bai4.sol\":1355:1384  HouseDeleted(_id, msg.sender) */\n      mload(0x40)\n      tag_64\n      swap3\n      swap2\n      swap1\n      tag_65\n      jump\t// in\n    tag_64:\n      mload(0x40)\n      dup1\n      swap2\n      sub\n      swap1\n      log1\n        /* \"contracts/bai4.sol\":963:1392  function deleteHouse(uint256 _id) public {... */\n      pop\n      jump\t// out\n        /* \"contracts/bai4.sol\":225:246  House[] public houses */\n    tag_18:\n      0x01\n      dup2\n      dup2\n      sload\n      dup2\n      lt\n      tag_66\n      jumpi\n      0x00\n      dup1\n      revert\n    tag_66:\n      swap1\n      0x00\n      mstore\n      keccak256(0x00, 0x20)\n      swap1\n      0x03\n      mul\n      add\n      0x00\n      swap2\n      pop\n      swap1\n      pop\n      dup1\n      0x00\n      add\n      sload\n      swap1\n      dup1\n      0x01\n      add\n      dup1\n      sload\n      tag_68\n      swap1\n      tag_69\n      jump\t// in\n    tag_68:\n      dup1\n      0x1f\n      add\n      0x20\n      dup1\n      swap2\n      div\n      mul\n      0x20\n      add\n      mload(0x40)\n      swap1\n      dup2\n      add\n      0x40\n      mstore\n      dup1\n      swap3\n      swap2\n      swap1\n      dup2\n      dup2\n      mstore\n      0x20\n      add\n      dup3\n      dup1\n      sload\n      tag_70\n      swap1\n      tag_69\n      jump\t// in\n    tag_70:\n      dup1\n      iszero\n      tag_71\n      jumpi\n      dup1\n      0x1f\n      lt\n      tag_72\n      jumpi\n      0x0100\n      dup1\n      dup4\n      sload\n      div\n      mul\n      dup4\n      mstore\n      swap2\n      0x20\n      add\n      swap2\n      jump(tag_71)\n    tag_72:\n      dup3\n      add\n      swap2\n      swap1\n      0x00\n      mstore\n      keccak256(0x00, 0x20)\n      swap1\n    tag_73:\n      dup2\n      sload\n      dup2\n      mstore\n      swap1\n      0x01\n      add\n      swap1\n      0x20\n      add\n      dup1\n      dup4\n      gt\n      tag_73\n      jumpi\n      dup3\n      swap1\n      sub\n      0x1f\n      and\n      dup3\n      add\n      swap2\n    tag_71:\n      pop\n      pop\n      pop\n      pop\n      pop\n      swap1\n      dup1\n      0x02\n      add\n      0x00\n      swap1\n      sload\n      swap1\n      0x0100\n      exp\n      swap1\n      div\n      0xffffffffffffffffffffffffffffffffffffffff\n      and\n      swap1\n      pop\n      dup4\n      jump\t// out\n        /* \"contracts/bai4.sol\":1398:1826  function editHouse(uint256 _id, string memory _house_address_new) public {... */\n    tag_24:\n        /* \"contracts/bai4.sol\":1504:1510  owners */\n      0x02\n        /* \"contracts/bai4.sol\":1504:1515  owners[_id] */\n      0x00\n        /* \"contracts/bai4.sol\":1511:1514  _id */\n      dup4\n        /* \"contracts/bai4.sol\":1504:1515  owners[_id] */\n      dup2\n      mstore\n      0x20\n      add\n      swap1\n      dup2\n      mstore\n      0x20\n      add\n      0x00\n      keccak256\n      0x00\n      swap1\n      sload\n      swap1\n      0x0100\n      exp\n      swap1\n      div\n      0xffffffffffffffffffffffffffffffffffffffff\n      and\n        /* \"contracts/bai4.sol\":1490:1515  msg.sender == owners[_id] */\n      0xffffffffffffffffffffffffffffffffffffffff\n      and\n        /* \"contracts/bai4.sol\":1490:1500  msg.sender */\n      caller\n        /* \"contracts/bai4.sol\":1490:1515  msg.sender == owners[_id] */\n      0xffffffffffffffffffffffffffffffffffffffff\n      and\n      eq\n        /* \"contracts/bai4.sol\":1482:1545  require(msg.sender == owners[_id], \"Ban khong phai la chu nha\") */\n      tag_75\n      jumpi\n      mload(0x40)\n      0x08c379a000000000000000000000000000000000000000000000000000000000\n      dup2\n      mstore\n      0x04\n      add\n      tag_76\n      swap1\n      tag_39\n      jump\t// in\n    tag_76:\n      mload(0x40)\n      dup1\n      swap2\n      sub\n      swap1\n      revert\n    tag_75:\n        /* \"contracts/bai4.sol\":1561:1570  uint256 i */\n      0x00\n        /* \"contracts/bai4.sol\":1556:1755  for (uint256 i = 0 ; i < houses.length; i++ ){... */\n    tag_77:\n        /* \"contracts/bai4.sol\":1581:1587  houses */\n      0x01\n        /* \"contracts/bai4.sol\":1581:1594  houses.length */\n      dup1\n      sload\n      swap1\n      pop\n        /* \"contracts/bai4.sol\":1577:1578  i */\n      dup2\n        /* \"contracts/bai4.sol\":1577:1594  i < houses.length */\n      lt\n        /* \"contracts/bai4.sol\":1556:1755  for (uint256 i = 0 ; i < houses.length; i++ ){... */\n      iszero\n      tag_78\n      jumpi\n        /* \"contracts/bai4.sol\":1636:1639  _id */\n      dup3\n        /* \"contracts/bai4.sol\":1620:1626  houses */\n      0x01\n        /* \"contracts/bai4.sol\":1627:1628  i */\n      dup3\n        /* \"contracts/bai4.sol\":1620:1629  houses[i] */\n      dup2\n      sload\n      dup2\n      lt\n      tag_80\n      jumpi\n      tag_81\n      tag_45\n      jump\t// in\n    tag_81:\n    tag_80:\n      swap1\n      0x00\n      mstore\n      keccak256(0x00, 0x20)\n      swap1\n      0x03\n      mul\n      add\n        /* \"contracts/bai4.sol\":1620:1632  houses[i].id */\n      0x00\n      add\n      sload\n        /* \"contracts/bai4.sol\":1620:1639  houses[i].id == _id */\n      sub\n        /* \"contracts/bai4.sol\":1616:1744  if (houses[i].id == _id){... */\n      tag_83\n      jumpi\n        /* \"contracts/bai4.sol\":1685:1703  _house_address_new */\n      dup2\n        /* \"contracts/bai4.sol\":1659:1665  houses */\n      0x01\n        /* \"contracts/bai4.sol\":1666:1667  i */\n      dup3\n        /* \"contracts/bai4.sol\":1659:1668  houses[i] */\n      dup2\n      sload\n      dup2\n      lt\n      tag_84\n      jumpi\n      tag_85\n      tag_45\n      jump\t// in\n    tag_85:\n    tag_84:\n      swap1\n      0x00\n      mstore\n      keccak256(0x00, 0x20)\n      swap1\n      0x03\n      mul\n      add\n        /* \"contracts/bai4.sol\":1659:1682  houses[i].house_address */\n      0x01\n      add\n        /* \"contracts/bai4.sol\":1659:1703  houses[i].house_address = _house_address_new */\n      swap1\n      dup2\n      tag_87\n      swap2\n      swap1\n      tag_32\n      jump\t// in\n    tag_87:\n      pop\n        /* \"contracts/bai4.sol\":1722:1727  break */\n      jump(tag_78)\n        /* \"contracts/bai4.sol\":1616:1744  if (houses[i].id == _id){... */\n    tag_83:\n        /* \"contracts/bai4.sol\":1596:1599  i++ */\n      dup1\n      dup1\n      0x01\n      add\n      swap2\n      pop\n      pop\n        /* \"contracts/bai4.sol\":1556:1755  for (uint256 i = 0 ; i < houses.length; i++ ){... */\n      jump(tag_77)\n    tag_78:\n      pop\n        /* \"contracts/bai4.sol\":1770:1818  HouseEdited(_id, _house_address_new, msg.sender) */\n      0xde3f4946a429411950eb0fd1d7c91c8f44b84b8ae778dafd058243c7f234006d\n        /* \"contracts/bai4.sol\":1782:1785  _id */\n      dup3\n        /* \"contracts/bai4.sol\":1787:1805  _house_address_new */\n      dup3\n        /* \"contracts/bai4.sol\":1807:1817  msg.sender */\n      caller\n        /* \"contracts/bai4.sol\":1770:1818  HouseEdited(_id, _house_address_new, msg.sender) */\n      mload(0x40)\n      tag_88\n      swap4\n      swap3\n      swap2\n      swap1\n      tag_20\n      jump\t// in\n    tag_88:\n      mload(0x40)\n      dup1\n      swap2\n      sub\n      swap1\n      log1\n        /* \"contracts/bai4.sol\":1398:1826  function editHouse(uint256 _id, string memory _house_address_new) public {... */\n      pop\n      pop\n      jump\t// out\n        /* \"contracts/bai4.sol\":1832:1922  function getHouses() public  view returns (House[] memory){... */\n    tag_26:\n        /* \"contracts/bai4.sol\":1875:1889  House[] memory */\n      0x60\n        /* \"contracts/bai4.sol\":1908:1914  houses */\n      0x01\n        /* \"contracts/bai4.sol\":1901:1914  return houses */\n      dup1\n      sload\n      dup1\n      0x20\n      mul\n      0x20\n      add\n      mload(0x40)\n      swap1\n      dup2\n      add\n      0x40\n      mstore\n      dup1\n      swap3\n      swap2\n      swap1\n      dup2\n      dup2\n      mstore\n      0x20\n      add\n      0x00\n      swap1\n    tag_90:\n      dup3\n      dup3\n      lt\n      iszero\n      tag_91\n      jumpi\n      dup4\n      dup3\n      swap1\n      0x00\n      mstore\n      keccak256(0x00, 0x20)\n      swap1\n      0x03\n      mul\n      add\n      mload(0x40)\n      dup1\n      0x60\n      add\n      0x40\n      mstore\n      swap1\n      dup2\n      0x00\n      dup3\n      add\n      sload\n      dup2\n      mstore\n      0x20\n      add\n      0x01\n      dup3\n      add\n      dup1\n      sload\n      tag_93\n      swap1\n      tag_69\n      jump\t// in\n    tag_93:\n      dup1\n      0x1f\n      add\n      0x20\n      dup1\n      swap2\n      div\n      mul\n      0x20\n      add\n      mload(0x40)\n      swap1\n      dup2\n      add\n      0x40\n      mstore\n      dup1\n      swap3\n      swap2\n      swap1\n      dup2\n      dup2\n      mstore\n      0x20\n      add\n      dup3\n      dup1\n      sload\n      tag_94\n      swap1\n      tag_69\n      jump\t// in\n    tag_94:\n      dup1\n      iszero\n      tag_95\n      jumpi\n      dup1\n      0x1f\n      lt\n      tag_96\n      jumpi\n      0x0100\n      dup1\n      dup4\n      sload\n      div\n      mul\n      dup4\n      mstore\n      swap2\n      0x20\n      add\n      swap2\n      jump(tag_95)\n    tag_96:\n      dup3\n      add\n      swap2\n      swap1\n      0x00\n      mstore\n      keccak256(0x00, 0x20)\n      swap1\n    tag_97:\n      dup2\n      sload\n      dup2\n      mstore\n      swap1\n      0x01\n      add\n      swap1\n      0x20\n      add\n      dup1\n      dup4\n      gt\n      tag_97\n      jumpi\n      dup3\n      swap1\n      sub\n      0x1f\n      and\n      dup3\n      add\n      swap2\n    tag_95:\n      pop\n      pop\n      pop\n      pop\n      pop\n      dup2\n      mstore\n      0x20\n      add\n      0x02\n      dup3\n      add\n      0x00\n      swap1\n      sload\n      swap1\n      0x0100\n      exp\n      swap1\n      div\n      0xffffffffffffffffffffffffffffffffffffffff\n      and\n      0xffffffffffffffffffffffffffffffffffffffff\n      and\n      0xffffffffffffffffffffffffffffffffffffffff\n      and\n      dup2\n      mstore\n      pop\n      pop\n      dup2\n      mstore\n      0x20\n      add\n      swap1\n      0x01\n      add\n      swap1\n      jump(tag_90)\n    tag_91:\n      pop\n      pop\n      pop\n      pop\n      swap1\n      pop\n        /* \"contracts/bai4.sol\":1832:1922  function getHouses() public  view returns (House[] memory){... */\n      swap1\n      jump\t// out\n    tag_63:\n      pop\n      dup1\n      sload\n      tag_98\n      swap1\n      tag_69\n      jump\t// in\n    tag_98:\n      0x00\n      dup3\n      sstore\n      dup1\n      0x1f\n      lt\n      tag_100\n      jumpi\n      pop\n      jump(tag_99)\n    tag_100:\n      0x1f\n      add\n      0x20\n      swap1\n      div\n      swap1\n      0x00\n      mstore\n      keccak256(0x00, 0x20)\n      swap1\n      dup2\n      add\n      swap1\n      tag_101\n      swap2\n      swap1\n      tag_102\n      jump\t// in\n    tag_101:\n    tag_99:\n      pop\n      jump\t// out\n    tag_102:\n    tag_103:\n      dup1\n      dup3\n      gt\n      iszero\n      tag_104\n      jumpi\n      0x00\n      dup2\n      0x00\n      swap1\n      sstore\n      pop\n      0x01\n      add\n      jump(tag_103)\n    tag_104:\n      pop\n      swap1\n      jump\t// out\n        /* \"#utility.yul\":7:82   */\n    tag_105:\n        /* \"#utility.yul\":40:46   */\n      0x00\n        /* \"#utility.yul\":73:75   */\n      0x40\n        /* \"#utility.yul\":67:76   */\n      mload\n        /* \"#utility.yul\":57:76   */\n      swap1\n      pop\n        /* \"#utility.yul\":7:82   */\n      swap1\n      jump\t// out\n        /* \"#utility.yul\":88:205   */\n    tag_106:\n        /* \"#utility.yul\":197:198   */\n      0x00\n        /* \"#utility.yul\":194:195   */\n      dup1\n        /* \"#utility.yul\":187:199   */\n      revert\n        /* \"#utility.yul\":211:328   */\n    tag_107:\n        /* \"#utility.yul\":320:321   */\n      0x00\n        /* \"#utility.yul\":317:318   */\n      dup1\n        /* \"#utility.yul\":310:322   */\n      revert\n        /* \"#utility.yul\":334:451   */\n    tag_108:\n        /* \"#utility.yul\":443:444   */\n      0x00\n        /* \"#utility.yul\":440:441   */\n      dup1\n        /* \"#utility.yul\":433:445   */\n      revert\n        /* \"#utility.yul\":457:574   */\n    tag_109:\n        /* \"#utility.yul\":566:567   */\n      0x00\n        /* \"#utility.yul\":563:564   */\n      dup1\n        /* \"#utility.yul\":556:568   */\n      revert\n        /* \"#utility.yul\":580:682   */\n    tag_110:\n        /* \"#utility.yul\":621:627   */\n      0x00\n        /* \"#utility.yul\":672:674   */\n      0x1f\n        /* \"#utility.yul\":668:675   */\n      not\n        /* \"#utility.yul\":663:665   */\n      0x1f\n        /* \"#utility.yul\":656:661   */\n      dup4\n        /* \"#utility.yul\":652:666   */\n      add\n        /* \"#utility.yul\":648:676   */\n      and\n        /* \"#utility.yul\":638:676   */\n      swap1\n      pop\n        /* \"#utility.yul\":580:682   */\n      swap2\n      swap1\n      pop\n      jump\t// out\n        /* \"#utility.yul\":688:868   */\n    tag_111:\n        /* \"#utility.yul\":736:813   */\n      0x4e487b7100000000000000000000000000000000000000000000000000000000\n        /* \"#utility.yul\":733:734   */\n      0x00\n        /* \"#utility.yul\":726:814   */\n      mstore\n        /* \"#utility.yul\":833:837   */\n      0x41\n        /* \"#utility.yul\":830:831   */\n      0x04\n        /* \"#utility.yul\":823:838   */\n      mstore\n        /* \"#utility.yul\":857:861   */\n      0x24\n        /* \"#utility.yul\":854:855   */\n      0x00\n        /* \"#utility.yul\":847:862   */\n      revert\n        /* \"#utility.yul\":874:1155   */\n    tag_112:\n        /* \"#utility.yul\":957:984   */\n      tag_169\n        /* \"#utility.yul\":979:983   */\n      dup3\n        /* \"#utility.yul\":957:984   */\n      tag_110\n      jump\t// in\n    tag_169:\n        /* \"#utility.yul\":949:955   */\n      dup2\n        /* \"#utility.yul\":945:985   */\n      add\n        /* \"#utility.yul\":1087:1093   */\n      dup2\n        /* \"#utility.yul\":1075:1085   */\n      dup2\n        /* \"#utility.yul\":1072:1094   */\n      lt\n        /* \"#utility.yul\":1051:1069   */\n      0xffffffffffffffff\n        /* \"#utility.yul\":1039:1049   */\n      dup3\n        /* \"#utility.yul\":1036:1070   */\n      gt\n        /* \"#utility.yul\":1033:1095   */\n      or\n        /* \"#utility.yul\":1030:1118   */\n      iszero\n      tag_170\n      jumpi\n        /* \"#utility.yul\":1098:1116   */\n      tag_171\n      tag_111\n      jump\t// in\n    tag_171:\n        /* \"#utility.yul\":1030:1118   */\n    tag_170:\n        /* \"#utility.yul\":1138:1148   */\n      dup1\n        /* \"#utility.yul\":1134:1136   */\n      0x40\n        /* \"#utility.yul\":1127:1149   */\n      mstore\n        /* \"#utility.yul\":917:1155   */\n      pop\n        /* \"#utility.yul\":874:1155   */\n      pop\n      pop\n      jump\t// out\n        /* \"#utility.yul\":1161:1290   */\n    tag_113:\n        /* \"#utility.yul\":1195:1201   */\n      0x00\n        /* \"#utility.yul\":1222:1242   */\n      tag_173\n      tag_105\n      jump\t// in\n    tag_173:\n        /* \"#utility.yul\":1212:1242   */\n      swap1\n      pop\n        /* \"#utility.yul\":1251:1284   */\n      tag_174\n        /* \"#utility.yul\":1279:1283   */\n      dup3\n        /* \"#utility.yul\":1271:1277   */\n      dup3\n        /* \"#utility.yul\":1251:1284   */\n      tag_112\n      jump\t// in\n    tag_174:\n        /* \"#utility.yul\":1161:1290   */\n      swap2\n      swap1\n      pop\n      jump\t// out\n        /* \"#utility.yul\":1296:1604   */\n    tag_114:\n        /* \"#utility.yul\":1358:1362   */\n      0x00\n        /* \"#utility.yul\":1448:1466   */\n      0xffffffffffffffff\n        /* \"#utility.yul\":1440:1446   */\n      dup3\n        /* \"#utility.yul\":1437:1467   */\n      gt\n        /* \"#utility.yul\":1434:1490   */\n      iszero\n      tag_176\n      jumpi\n        /* \"#utility.yul\":1470:1488   */\n      tag_177\n      tag_111\n      jump\t// in\n    tag_177:\n        /* \"#utility.yul\":1434:1490   */\n    tag_176:\n        /* \"#utility.yul\":1508:1537   */\n      tag_178\n        /* \"#utility.yul\":1530:1536   */\n      dup3\n        /* \"#utility.yul\":1508:1537   */\n      tag_110\n      jump\t// in\n    tag_178:\n        /* \"#utility.yul\":1500:1537   */\n      swap1\n      pop\n        /* \"#utility.yul\":1592:1596   */\n      0x20\n        /* \"#utility.yul\":1586:1590   */\n      dup2\n        /* \"#utility.yul\":1582:1597   */\n      add\n        /* \"#utility.yul\":1574:1597   */\n      swap1\n      pop\n        /* \"#utility.yul\":1296:1604   */\n      swap2\n      swap1\n      pop\n      jump\t// out\n        /* \"#utility.yul\":1610:1758   */\n    tag_115:\n        /* \"#utility.yul\":1708:1714   */\n      dup3\n        /* \"#utility.yul\":1703:1706   */\n      dup2\n        /* \"#utility.yul\":1698:1701   */\n      dup4\n        /* \"#utility.yul\":1685:1715   */\n      calldatacopy\n        /* \"#utility.yul\":1749:1750   */\n      0x00\n        /* \"#utility.yul\":1740:1746   */\n      dup4\n        /* \"#utility.yul\":1735:1738   */\n      dup4\n        /* \"#utility.yul\":1731:1747   */\n      add\n        /* \"#utility.yul\":1724:1751   */\n      mstore\n        /* \"#utility.yul\":1610:1758   */\n      pop\n      pop\n      pop\n      jump\t// out\n        /* \"#utility.yul\":1764:2189   */\n    tag_116:\n        /* \"#utility.yul\":1842:1847   */\n      0x00\n        /* \"#utility.yul\":1867:1933   */\n      tag_181\n        /* \"#utility.yul\":1883:1932   */\n      tag_182\n        /* \"#utility.yul\":1925:1931   */\n      dup5\n        /* \"#utility.yul\":1883:1932   */\n      tag_114\n      jump\t// in\n    tag_182:\n        /* \"#utility.yul\":1867:1933   */\n      tag_113\n      jump\t// in\n    tag_181:\n        /* \"#utility.yul\":1858:1933   */\n      swap1\n      pop\n        /* \"#utility.yul\":1956:1962   */\n      dup3\n        /* \"#utility.yul\":1949:1954   */\n      dup2\n        /* \"#utility.yul\":1942:1963   */\n      mstore\n        /* \"#utility.yul\":1994:1998   */\n      0x20\n        /* \"#utility.yul\":1987:1992   */\n      dup2\n        /* \"#utility.yul\":1983:1999   */\n      add\n        /* \"#utility.yul\":2032:2035   */\n      dup5\n        /* \"#utility.yul\":2023:2029   */\n      dup5\n        /* \"#utility.yul\":2018:2021   */\n      dup5\n        /* \"#utility.yul\":2014:2030   */\n      add\n        /* \"#utility.yul\":2011:2036   */\n      gt\n        /* \"#utility.yul\":2008:2120   */\n      iszero\n      tag_183\n      jumpi\n        /* \"#utility.yul\":2039:2118   */\n      tag_184\n      tag_109\n      jump\t// in\n    tag_184:\n        /* \"#utility.yul\":2008:2120   */\n    tag_183:\n        /* \"#utility.yul\":2129:2183   */\n      tag_185\n        /* \"#utility.yul\":2176:2182   */\n      dup5\n        /* \"#utility.yul\":2171:2174   */\n      dup3\n        /* \"#utility.yul\":2166:2169   */\n      dup6\n        /* \"#utility.yul\":2129:2183   */\n      tag_115\n      jump\t// in\n    tag_185:\n        /* \"#utility.yul\":1848:2189   */\n      pop\n        /* \"#utility.yul\":1764:2189   */\n      swap4\n      swap3\n      pop\n      pop\n      pop\n      jump\t// out\n        /* \"#utility.yul\":2209:2549   */\n    tag_117:\n        /* \"#utility.yul\":2265:2270   */\n      0x00\n        /* \"#utility.yul\":2314:2317   */\n      dup3\n        /* \"#utility.yul\":2307:2311   */\n      0x1f\n        /* \"#utility.yul\":2299:2305   */\n      dup4\n        /* \"#utility.yul\":2295:2312   */\n      add\n        /* \"#utility.yul\":2291:2318   */\n      slt\n        /* \"#utility.yul\":2281:2403   */\n      tag_187\n      jumpi\n        /* \"#utility.yul\":2322:2401   */\n      tag_188\n      tag_108\n      jump\t// in\n    tag_188:\n        /* \"#utility.yul\":2281:2403   */\n    tag_187:\n        /* \"#utility.yul\":2439:2445   */\n      dup2\n        /* \"#utility.yul\":2426:2446   */\n      calldataload\n        /* \"#utility.yul\":2464:2543   */\n      tag_189\n        /* \"#utility.yul\":2539:2542   */\n      dup5\n        /* \"#utility.yul\":2531:2537   */\n      dup3\n        /* \"#utility.yul\":2524:2528   */\n      0x20\n        /* \"#utility.yul\":2516:2522   */\n      dup7\n        /* \"#utility.yul\":2512:2529   */\n      add\n        /* \"#utility.yul\":2464:2543   */\n      tag_116\n      jump\t// in\n    tag_189:\n        /* \"#utility.yul\":2455:2543   */\n      swap2\n      pop\n        /* \"#utility.yul\":2271:2549   */\n      pop\n        /* \"#utility.yul\":2209:2549   */\n      swap3\n      swap2\n      pop\n      pop\n      jump\t// out\n        /* \"#utility.yul\":2555:3064   */\n    tag_10:\n        /* \"#utility.yul\":2624:2630   */\n      0x00\n        /* \"#utility.yul\":2673:2675   */\n      0x20\n        /* \"#utility.yul\":2661:2670   */\n      dup3\n        /* \"#utility.yul\":2652:2659   */\n      dup5\n        /* \"#utility.yul\":2648:2671   */\n      sub\n        /* \"#utility.yul\":2644:2676   */\n      slt\n        /* \"#utility.yul\":2641:2760   */\n      iszero\n      tag_191\n      jumpi\n        /* \"#utility.yul\":2679:2758   */\n      tag_192\n      tag_106\n      jump\t// in\n    tag_192:\n        /* \"#utility.yul\":2641:2760   */\n    tag_191:\n        /* \"#utility.yul\":2827:2828   */\n      0x00\n        /* \"#utility.yul\":2816:2825   */\n      dup3\n        /* \"#utility.yul\":2812:2829   */\n      add\n        /* \"#utility.yul\":2799:2830   */\n      calldataload\n        /* \"#utility.yul\":2857:2875   */\n      0xffffffffffffffff\n        /* \"#utility.yul\":2849:2855   */\n      dup2\n        /* \"#utility.yul\":2846:2876   */\n      gt\n        /* \"#utility.yul\":2843:2960   */\n      iszero\n      tag_193\n      jumpi\n        /* \"#utility.yul\":2879:2958   */\n      tag_194\n      tag_107\n      jump\t// in\n    tag_194:\n        /* \"#utility.yul\":2843:2960   */\n    tag_193:\n        /* \"#utility.yul\":2984:3047   */\n      tag_195\n        /* \"#utility.yul\":3039:3046   */\n      dup5\n        /* \"#utility.yul\":3030:3036   */\n      dup3\n        /* \"#utility.yul\":3019:3028   */\n      dup6\n        /* \"#utility.yul\":3015:3037   */\n      add\n        /* \"#utility.yul\":2984:3047   */\n      tag_117\n      jump\t// in\n    tag_195:\n        /* \"#utility.yul\":2974:3047   */\n      swap2\n      pop\n        /* \"#utility.yul\":2770:3057   */\n      pop\n        /* \"#utility.yul\":2555:3064   */\n      swap3\n      swap2\n      pop\n      pop\n      jump\t// out\n        /* \"#utility.yul\":3070:3147   */\n    tag_118:\n        /* \"#utility.yul\":3107:3114   */\n      0x00\n        /* \"#utility.yul\":3136:3141   */\n      dup2\n        /* \"#utility.yul\":3125:3141   */\n      swap1\n      pop\n        /* \"#utility.yul\":3070:3147   */\n      swap2\n      swap1\n      pop\n      jump\t// out\n        /* \"#utility.yul\":3153:3275   */\n    tag_119:\n        /* \"#utility.yul\":3226:3250   */\n      tag_198\n        /* \"#utility.yul\":3244:3249   */\n      dup2\n        /* \"#utility.yul\":3226:3250   */\n      tag_118\n      jump\t// in\n    tag_198:\n        /* \"#utility.yul\":3219:3224   */\n      dup2\n        /* \"#utility.yul\":3216:3251   */\n      eq\n        /* \"#utility.yul\":3206:3269   */\n      tag_199\n      jumpi\n        /* \"#utility.yul\":3265:3266   */\n      0x00\n        /* \"#utility.yul\":3262:3263   */\n      dup1\n        /* \"#utility.yul\":3255:3267   */\n      revert\n        /* \"#utility.yul\":3206:3269   */\n    tag_199:\n        /* \"#utility.yul\":3153:3275   */\n      pop\n      jump\t// out\n        /* \"#utility.yul\":3281:3420   */\n    tag_120:\n        /* \"#utility.yul\":3327:3332   */\n      0x00\n        /* \"#utility.yul\":3365:3371   */\n      dup2\n        /* \"#utility.yul\":3352:3372   */\n      calldataload\n        /* \"#utility.yul\":3343:3372   */\n      swap1\n      pop\n        /* \"#utility.yul\":3381:3414   */\n      tag_201\n        /* \"#utility.yul\":3408:3413   */\n      dup2\n        /* \"#utility.yul\":3381:3414   */\n      tag_119\n      jump\t// in\n    tag_201:\n        /* \"#utility.yul\":3281:3420   */\n      swap3\n      swap2\n      pop\n      pop\n      jump\t// out\n        /* \"#utility.yul\":3426:3755   */\n    tag_14:\n        /* \"#utility.yul\":3485:3491   */\n      0x00\n        /* \"#utility.yul\":3534:3536   */\n      0x20\n        /* \"#utility.yul\":3522:3531   */\n      dup3\n        /* \"#utility.yul\":3513:3520   */\n      dup5\n        /* \"#utility.yul\":3509:3532   */\n      sub\n        /* \"#utility.yul\":3505:3537   */\n      slt\n        /* \"#utility.yul\":3502:3621   */\n      iszero\n      tag_203\n      jumpi\n        /* \"#utility.yul\":3540:3619   */\n      tag_204\n      tag_106\n      jump\t// in\n    tag_204:\n        /* \"#utility.yul\":3502:3621   */\n    tag_203:\n        /* \"#utility.yul\":3660:3661   */\n      0x00\n        /* \"#utility.yul\":3685:3738   */\n      tag_205\n        /* \"#utility.yul\":3730:3737   */\n      dup5\n        /* \"#utility.yul\":3721:3727   */\n      dup3\n        /* \"#utility.yul\":3710:3719   */\n      dup6\n        /* \"#utility.yul\":3706:3728   */\n      add\n        /* \"#utility.yul\":3685:3738   */\n      tag_120\n      jump\t// in\n    tag_205:\n        /* \"#utility.yul\":3675:3738   */\n      swap2\n      pop\n        /* \"#utility.yul\":3631:3748   */\n      pop\n        /* \"#utility.yul\":3426:3755   */\n      swap3\n      swap2\n      pop\n      pop\n      jump\t// out\n        /* \"#utility.yul\":3761:3879   */\n    tag_121:\n        /* \"#utility.yul\":3848:3872   */\n      tag_207\n        /* \"#utility.yul\":3866:3871   */\n      dup2\n        /* \"#utility.yul\":3848:3872   */\n      tag_118\n      jump\t// in\n    tag_207:\n        /* \"#utility.yul\":3843:3846   */\n      dup3\n        /* \"#utility.yul\":3836:3873   */\n      mstore\n        /* \"#utility.yul\":3761:3879   */\n      pop\n      pop\n      jump\t// out\n        /* \"#utility.yul\":3885:3984   */\n    tag_122:\n        /* \"#utility.yul\":3937:3943   */\n      0x00\n        /* \"#utility.yul\":3971:3976   */\n      dup2\n        /* \"#utility.yul\":3965:3977   */\n      mload\n        /* \"#utility.yul\":3955:3977   */\n      swap1\n      pop\n        /* \"#utility.yul\":3885:3984   */\n      swap2\n      swap1\n      pop\n      jump\t// out\n        /* \"#utility.yul\":3990:4159   */\n    tag_123:\n        /* \"#utility.yul\":4074:4085   */\n      0x00\n        /* \"#utility.yul\":4108:4114   */\n      dup3\n        /* \"#utility.yul\":4103:4106   */\n      dup3\n        /* \"#utility.yul\":4096:4115   */\n      mstore\n        /* \"#utility.yul\":4148:4152   */\n      0x20\n        /* \"#utility.yul\":4143:4146   */\n      dup3\n        /* \"#utility.yul\":4139:4153   */\n      add\n        /* \"#utility.yul\":4124:4153   */\n      swap1\n      pop\n        /* \"#utility.yul\":3990:4159   */\n      swap3\n      swap2\n      pop\n      pop\n      jump\t// out\n        /* \"#utility.yul\":4165:4304   */\n    tag_124:\n        /* \"#utility.yul\":4254:4260   */\n      dup3\n        /* \"#utility.yul\":4249:4252   */\n      dup2\n        /* \"#utility.yul\":4244:4247   */\n      dup4\n        /* \"#utility.yul\":4238:4261   */\n      mcopy\n        /* \"#utility.yul\":4295:4296   */\n      0x00\n        /* \"#utility.yul\":4286:4292   */\n      dup4\n        /* \"#utility.yul\":4281:4284   */\n      dup4\n        /* \"#utility.yul\":4277:4293   */\n      add\n        /* \"#utility.yul\":4270:4297   */\n      mstore\n        /* \"#utility.yul\":4165:4304   */\n      pop\n      pop\n      pop\n      jump\t// out\n        /* \"#utility.yul\":4310:4687   */\n    tag_125:\n        /* \"#utility.yul\":4398:4401   */\n      0x00\n        /* \"#utility.yul\":4426:4465   */\n      tag_212\n        /* \"#utility.yul\":4459:4464   */\n      dup3\n        /* \"#utility.yul\":4426:4465   */\n      tag_122\n      jump\t// in\n    tag_212:\n        /* \"#utility.yul\":4481:4552   */\n      tag_213\n        /* \"#utility.yul\":4545:4551   */\n      dup2\n        /* \"#utility.yul\":4540:4543   */\n      dup6\n        /* \"#utility.yul\":4481:4552   */\n      tag_123\n      jump\t// in\n    tag_213:\n        /* \"#utility.yul\":4474:4552   */\n      swap4\n      pop\n        /* \"#utility.yul\":4561:4626   */\n      tag_214\n        /* \"#utility.yul\":4619:4625   */\n      dup2\n        /* \"#utility.yul\":4614:4617   */\n      dup6\n        /* \"#utility.yul\":4607:4611   */\n      0x20\n        /* \"#utility.yul\":4600:4605   */\n      dup7\n        /* \"#utility.yul\":4596:4612   */\n      add\n        /* \"#utility.yul\":4561:4626   */\n      tag_124\n      jump\t// in\n    tag_214:\n        /* \"#utility.yul\":4651:4680   */\n      tag_215\n        /* \"#utility.yul\":4673:4679   */\n      dup2\n        /* \"#utility.yul\":4651:4680   */\n      tag_110\n      jump\t// in\n    tag_215:\n        /* \"#utility.yul\":4646:4649   */\n      dup5\n        /* \"#utility.yul\":4642:4681   */\n      add\n        /* \"#utility.yul\":4635:4681   */\n      swap2\n      pop\n        /* \"#utility.yul\":4402:4687   */\n      pop\n        /* \"#utility.yul\":4310:4687   */\n      swap3\n      swap2\n      pop\n      pop\n      jump\t// out\n        /* \"#utility.yul\":4693:4819   */\n    tag_126:\n        /* \"#utility.yul\":4730:4737   */\n      0x00\n        /* \"#utility.yul\":4770:4812   */\n      0xffffffffffffffffffffffffffffffffffffffff\n        /* \"#utility.yul\":4763:4768   */\n      dup3\n        /* \"#utility.yul\":4759:4813   */\n      and\n        /* \"#utility.yul\":4748:4813   */\n      swap1\n      pop\n        /* \"#utility.yul\":4693:4819   */\n      swap2\n      swap1\n      pop\n      jump\t// out\n        /* \"#utility.yul\":4825:4921   */\n    tag_127:\n        /* \"#utility.yul\":4862:4869   */\n      0x00\n        /* \"#utility.yul\":4891:4915   */\n      tag_218\n        /* \"#utility.yul\":4909:4914   */\n      dup3\n        /* \"#utility.yul\":4891:4915   */\n      tag_126\n      jump\t// in\n    tag_218:\n        /* \"#utility.yul\":4880:4915   */\n      swap1\n      pop\n        /* \"#utility.yul\":4825:4921   */\n      swap2\n      swap1\n      pop\n      jump\t// out\n        /* \"#utility.yul\":4927:5045   */\n    tag_128:\n        /* \"#utility.yul\":5014:5038   */\n      tag_220\n        /* \"#utility.yul\":5032:5037   */\n      dup2\n        /* \"#utility.yul\":5014:5038   */\n      tag_127\n      jump\t// in\n    tag_220:\n        /* \"#utility.yul\":5009:5012   */\n      dup3\n        /* \"#utility.yul\":5002:5039   */\n      mstore\n        /* \"#utility.yul\":4927:5045   */\n      pop\n      pop\n      jump\t// out\n        /* \"#utility.yul\":5051:5584   */\n    tag_20:\n        /* \"#utility.yul\":5220:5224   */\n      0x00\n        /* \"#utility.yul\":5258:5260   */\n      0x60\n        /* \"#utility.yul\":5247:5256   */\n      dup3\n        /* \"#utility.yul\":5243:5261   */\n      add\n        /* \"#utility.yul\":5235:5261   */\n      swap1\n      pop\n        /* \"#utility.yul\":5271:5342   */\n      tag_222\n        /* \"#utility.yul\":5339:5340   */\n      0x00\n        /* \"#utility.yul\":5328:5337   */\n      dup4\n        /* \"#utility.yul\":5324:5341   */\n      add\n        /* \"#utility.yul\":5315:5321   */\n      dup7\n        /* \"#utility.yul\":5271:5342   */\n      tag_121\n      jump\t// in\n    tag_222:\n        /* \"#utility.yul\":5389:5398   */\n      dup2\n        /* \"#utility.yul\":5383:5387   */\n      dup2\n        /* \"#utility.yul\":5379:5399   */\n      sub\n        /* \"#utility.yul\":5374:5376   */\n      0x20\n        /* \"#utility.yul\":5363:5372   */\n      dup4\n        /* \"#utility.yul\":5359:5377   */\n      add\n        /* \"#utility.yul\":5352:5400   */\n      mstore\n        /* \"#utility.yul\":5417:5495   */\n      tag_223\n        /* \"#utility.yul\":5490:5494   */\n      dup2\n        /* \"#utility.yul\":5481:5487   */\n      dup6\n        /* \"#utility.yul\":5417:5495   */\n      tag_125\n      jump\t// in\n    tag_223:\n        /* \"#utility.yul\":5409:5495   */\n      swap1\n      pop\n        /* \"#utility.yul\":5505:5577   */\n      tag_224\n        /* \"#utility.yul\":5573:5575   */\n      0x40\n        /* \"#utility.yul\":5562:5571   */\n      dup4\n        /* \"#utility.yul\":5558:5576   */\n      add\n        /* \"#utility.yul\":5549:5555   */\n      dup5\n        /* \"#utility.yul\":5505:5577   */\n      tag_128\n      jump\t// in\n    tag_224:\n        /* \"#utility.yul\":5051:5584   */\n      swap5\n      swap4\n      pop\n      pop\n      pop\n      pop\n      jump\t// out\n        /* \"#utility.yul\":5590:6244   */\n    tag_23:\n        /* \"#utility.yul\":5668:5674   */\n      0x00\n        /* \"#utility.yul\":5676:5682   */\n      dup1\n        /* \"#utility.yul\":5725:5727   */\n      0x40\n        /* \"#utility.yul\":5713:5722   */\n      dup4\n        /* \"#utility.yul\":5704:5711   */\n      dup6\n        /* \"#utility.yul\":5700:5723   */\n      sub\n        /* \"#utility.yul\":5696:5728   */\n      slt\n        /* \"#utility.yul\":5693:5812   */\n      iszero\n      tag_226\n      jumpi\n        /* \"#utility.yul\":5731:5810   */\n      tag_227\n      tag_106\n      jump\t// in\n    tag_227:\n        /* \"#utility.yul\":5693:5812   */\n    tag_226:\n        /* \"#utility.yul\":5851:5852   */\n      0x00\n        /* \"#utility.yul\":5876:5929   */\n      tag_228\n        /* \"#utility.yul\":5921:5928   */\n      dup6\n        /* \"#utility.yul\":5912:5918   */\n      dup3\n        /* \"#utility.yul\":5901:5910   */\n      dup7\n        /* \"#utility.yul\":5897:5919   */\n      add\n        /* \"#utility.yul\":5876:5929   */\n      tag_120\n      jump\t// in\n    tag_228:\n        /* \"#utility.yul\":5866:5929   */\n      swap3\n      pop\n        /* \"#utility.yul\":5822:5939   */\n      pop\n        /* \"#utility.yul\":6006:6008   */\n      0x20\n        /* \"#utility.yul\":5995:6004   */\n      dup4\n        /* \"#utility.yul\":5991:6009   */\n      add\n        /* \"#utility.yul\":5978:6010   */\n      calldataload\n        /* \"#utility.yul\":6037:6055   */\n      0xffffffffffffffff\n        /* \"#utility.yul\":6029:6035   */\n      dup2\n        /* \"#utility.yul\":6026:6056   */\n      gt\n        /* \"#utility.yul\":6023:6140   */\n      iszero\n      tag_229\n      jumpi\n        /* \"#utility.yul\":6059:6138   */\n      tag_230\n      tag_107\n      jump\t// in\n    tag_230:\n        /* \"#utility.yul\":6023:6140   */\n    tag_229:\n        /* \"#utility.yul\":6164:6227   */\n      tag_231\n        /* \"#utility.yul\":6219:6226   */\n      dup6\n        /* \"#utility.yul\":6210:6216   */\n      dup3\n        /* \"#utility.yul\":6199:6208   */\n      dup7\n        /* \"#utility.yul\":6195:6217   */\n      add\n        /* \"#utility.yul\":6164:6227   */\n      tag_117\n      jump\t// in\n    tag_231:\n        /* \"#utility.yul\":6154:6227   */\n      swap2\n      pop\n        /* \"#utility.yul\":5949:6237   */\n      pop\n        /* \"#utility.yul\":5590:6244   */\n      swap3\n      pop\n      swap3\n      swap1\n      pop\n      jump\t// out\n        /* \"#utility.yul\":6250:6384   */\n    tag_129:\n        /* \"#utility.yul\":6337:6343   */\n      0x00\n        /* \"#utility.yul\":6371:6376   */\n      dup2\n        /* \"#utility.yul\":6365:6377   */\n      mload\n        /* \"#utility.yul\":6355:6377   */\n      swap1\n      pop\n        /* \"#utility.yul\":6250:6384   */\n      swap2\n      swap1\n      pop\n      jump\t// out\n        /* \"#utility.yul\":6390:6594   */\n    tag_130:\n        /* \"#utility.yul\":6509:6520   */\n      0x00\n        /* \"#utility.yul\":6543:6549   */\n      dup3\n        /* \"#utility.yul\":6538:6541   */\n      dup3\n        /* \"#utility.yul\":6531:6550   */\n      mstore\n        /* \"#utility.yul\":6583:6587   */\n      0x20\n        /* \"#utility.yul\":6578:6581   */\n      dup3\n        /* \"#utility.yul\":6574:6588   */\n      add\n        /* \"#utility.yul\":6559:6588   */\n      swap1\n      pop\n        /* \"#utility.yul\":6390:6594   */\n      swap3\n      swap2\n      pop\n      pop\n      jump\t// out\n        /* \"#utility.yul\":6600:6752   */\n    tag_131:\n        /* \"#utility.yul\":6687:6691   */\n      0x00\n        /* \"#utility.yul\":6710:6713   */\n      dup2\n        /* \"#utility.yul\":6702:6713   */\n      swap1\n      pop\n        /* \"#utility.yul\":6740:6744   */\n      0x20\n        /* \"#utility.yul\":6735:6738   */\n      dup3\n        /* \"#utility.yul\":6731:6745   */\n      add\n        /* \"#utility.yul\":6723:6745   */\n      swap1\n      pop\n        /* \"#utility.yul\":6600:6752   */\n      swap2\n      swap1\n      pop\n      jump\t// out\n        /* \"#utility.yul\":6758:6866   */\n    tag_132:\n        /* \"#utility.yul\":6835:6859   */\n      tag_236\n        /* \"#utility.yul\":6853:6858   */\n      dup2\n        /* \"#utility.yul\":6835:6859   */\n      tag_118\n      jump\t// in\n    tag_236:\n        /* \"#utility.yul\":6830:6833   */\n      dup3\n        /* \"#utility.yul\":6823:6860   */\n      mstore\n        /* \"#utility.yul\":6758:6866   */\n      pop\n      pop\n      jump\t// out\n        /* \"#utility.yul\":6872:7031   */\n    tag_133:\n        /* \"#utility.yul\":6946:6957   */\n      0x00\n        /* \"#utility.yul\":6980:6986   */\n      dup3\n        /* \"#utility.yul\":6975:6978   */\n      dup3\n        /* \"#utility.yul\":6968:6987   */\n      mstore\n        /* \"#utility.yul\":7020:7024   */\n      0x20\n        /* \"#utility.yul\":7015:7018   */\n      dup3\n        /* \"#utility.yul\":7011:7025   */\n      add\n        /* \"#utility.yul\":6996:7025   */\n      swap1\n      pop\n        /* \"#utility.yul\":6872:7031   */\n      swap3\n      swap2\n      pop\n      pop\n      jump\t// out\n        /* \"#utility.yul\":7037:7394   */\n    tag_134:\n        /* \"#utility.yul\":7115:7118   */\n      0x00\n        /* \"#utility.yul\":7143:7182   */\n      tag_239\n        /* \"#utility.yul\":7176:7181   */\n      dup3\n        /* \"#utility.yul\":7143:7182   */\n      tag_122\n      jump\t// in\n    tag_239:\n        /* \"#utility.yul\":7198:7259   */\n      tag_240\n        /* \"#utility.yul\":7252:7258   */\n      dup2\n        /* \"#utility.yul\":7247:7250   */\n      dup6\n        /* \"#utility.yul\":7198:7259   */\n      tag_133\n      jump\t// in\n    tag_240:\n        /* \"#utility.yul\":7191:7259   */\n      swap4\n      pop\n        /* \"#utility.yul\":7268:7333   */\n      tag_241\n        /* \"#utility.yul\":7326:7332   */\n      dup2\n        /* \"#utility.yul\":7321:7324   */\n      dup6\n        /* \"#utility.yul\":7314:7318   */\n      0x20\n        /* \"#utility.yul\":7307:7312   */\n      dup7\n        /* \"#utility.yul\":7303:7319   */\n      add\n        /* \"#utility.yul\":7268:7333   */\n      tag_124\n      jump\t// in\n    tag_241:\n        /* \"#utility.yul\":7358:7387   */\n      tag_242\n        /* \"#utility.yul\":7380:7386   */\n      dup2\n        /* \"#utility.yul\":7358:7387   */\n      tag_110\n      jump\t// in\n    tag_242:\n        /* \"#utility.yul\":7353:7356   */\n      dup5\n        /* \"#utility.yul\":7349:7388   */\n      add\n        /* \"#utility.yul\":7342:7388   */\n      swap2\n      pop\n        /* \"#utility.yul\":7119:7394   */\n      pop\n        /* \"#utility.yul\":7037:7394   */\n      swap3\n      swap2\n      pop\n      pop\n      jump\t// out\n        /* \"#utility.yul\":7400:7508   */\n    tag_135:\n        /* \"#utility.yul\":7477:7501   */\n      tag_244\n        /* \"#utility.yul\":7495:7500   */\n      dup2\n        /* \"#utility.yul\":7477:7501   */\n      tag_127\n      jump\t// in\n    tag_244:\n        /* \"#utility.yul\":7472:7475   */\n      dup3\n        /* \"#utility.yul\":7465:7502   */\n      mstore\n        /* \"#utility.yul\":7400:7508   */\n      pop\n      pop\n      jump\t// out\n        /* \"#utility.yul\":7576:8344   */\n    tag_136:\n        /* \"#utility.yul\":7675:7678   */\n      0x00\n        /* \"#utility.yul\":7711:7715   */\n      0x60\n        /* \"#utility.yul\":7706:7709   */\n      dup4\n        /* \"#utility.yul\":7702:7716   */\n      add\n        /* \"#utility.yul\":7796:7800   */\n      0x00\n        /* \"#utility.yul\":7789:7794   */\n      dup4\n        /* \"#utility.yul\":7785:7801   */\n      add\n        /* \"#utility.yul\":7779:7802   */\n      mload\n        /* \"#utility.yul\":7815:7878   */\n      tag_246\n        /* \"#utility.yul\":7872:7876   */\n      0x00\n        /* \"#utility.yul\":7867:7870   */\n      dup7\n        /* \"#utility.yul\":7863:7877   */\n      add\n        /* \"#utility.yul\":7849:7861   */\n      dup3\n        /* \"#utility.yul\":7815:7878   */\n      tag_132\n      jump\t// in\n    tag_246:\n        /* \"#utility.yul\":7726:7888   */\n      pop\n        /* \"#utility.yul\":7979:7983   */\n      0x20\n        /* \"#utility.yul\":7972:7977   */\n      dup4\n        /* \"#utility.yul\":7968:7984   */\n      add\n        /* \"#utility.yul\":7962:7985   */\n      mload\n        /* \"#utility.yul\":8032:8035   */\n      dup5\n        /* \"#utility.yul\":8026:8030   */\n      dup3\n        /* \"#utility.yul\":8022:8036   */\n      sub\n        /* \"#utility.yul\":8015:8019   */\n      0x20\n        /* \"#utility.yul\":8010:8013   */\n      dup7\n        /* \"#utility.yul\":8006:8020   */\n      add\n        /* \"#utility.yul\":7999:8037   */\n      mstore\n        /* \"#utility.yul\":8058:8131   */\n      tag_247\n        /* \"#utility.yul\":8126:8130   */\n      dup3\n        /* \"#utility.yul\":8112:8124   */\n      dup3\n        /* \"#utility.yul\":8058:8131   */\n      tag_134\n      jump\t// in\n    tag_247:\n        /* \"#utility.yul\":8050:8131   */\n      swap2\n      pop\n        /* \"#utility.yul\":7898:8142   */\n      pop\n        /* \"#utility.yul\":8225:8229   */\n      0x40\n        /* \"#utility.yul\":8218:8223   */\n      dup4\n        /* \"#utility.yul\":8214:8230   */\n      add\n        /* \"#utility.yul\":8208:8231   */\n      mload\n        /* \"#utility.yul\":8244:8307   */\n      tag_248\n        /* \"#utility.yul\":8301:8305   */\n      0x40\n        /* \"#utility.yul\":8296:8299   */\n      dup7\n        /* \"#utility.yul\":8292:8306   */\n      add\n        /* \"#utility.yul\":8278:8290   */\n      dup3\n        /* \"#utility.yul\":8244:8307   */\n      tag_135\n      jump\t// in\n    tag_248:\n        /* \"#utility.yul\":8152:8317   */\n      pop\n        /* \"#utility.yul\":8334:8338   */\n      dup1\n        /* \"#utility.yul\":8327:8338   */\n      swap2\n      pop\n        /* \"#utility.yul\":7680:8344   */\n      pop\n        /* \"#utility.yul\":7576:8344   */\n      swap3\n      swap2\n      pop\n      pop\n      jump\t// out\n        /* \"#utility.yul\":8350:8586   */\n    tag_137:\n        /* \"#utility.yul\":8459:8469   */\n      0x00\n        /* \"#utility.yul\":8494:8580   */\n      tag_250\n        /* \"#utility.yul\":8576:8579   */\n      dup4\n        /* \"#utility.yul\":8568:8574   */\n      dup4\n        /* \"#utility.yul\":8494:8580   */\n      tag_136\n      jump\t// in\n    tag_250:\n        /* \"#utility.yul\":8480:8580   */\n      swap1\n      pop\n        /* \"#utility.yul\":8350:8586   */\n      swap3\n      swap2\n      pop\n      pop\n      jump\t// out\n        /* \"#utility.yul\":8592:8725   */\n    tag_138:\n        /* \"#utility.yul\":8682:8686   */\n      0x00\n        /* \"#utility.yul\":8714:8718   */\n      0x20\n        /* \"#utility.yul\":8709:8712   */\n      dup3\n        /* \"#utility.yul\":8705:8719   */\n      add\n        /* \"#utility.yul\":8697:8719   */\n      swap1\n      pop\n        /* \"#utility.yul\":8592:8725   */\n      swap2\n      swap1\n      pop\n      jump\t// out\n        /* \"#utility.yul\":8797:9868   */\n    tag_139:\n        /* \"#utility.yul\":8956:8959   */\n      0x00\n        /* \"#utility.yul\":8985:9059   */\n      tag_253\n        /* \"#utility.yul\":9053:9058   */\n      dup3\n        /* \"#utility.yul\":8985:9059   */\n      tag_129\n      jump\t// in\n    tag_253:\n        /* \"#utility.yul\":9075:9181   */\n      tag_254\n        /* \"#utility.yul\":9174:9180   */\n      dup2\n        /* \"#utility.yul\":9169:9172   */\n      dup6\n        /* \"#utility.yul\":9075:9181   */\n      tag_130\n      jump\t// in\n    tag_254:\n        /* \"#utility.yul\":9068:9181   */\n      swap4\n      pop\n        /* \"#utility.yul\":9207:9210   */\n      dup4\n        /* \"#utility.yul\":9252:9256   */\n      0x20\n        /* \"#utility.yul\":9244:9250   */\n      dup3\n        /* \"#utility.yul\":9240:9257   */\n      mul\n        /* \"#utility.yul\":9235:9238   */\n      dup6\n        /* \"#utility.yul\":9231:9258   */\n      add\n        /* \"#utility.yul\":9282:9358   */\n      tag_255\n        /* \"#utility.yul\":9352:9357   */\n      dup6\n        /* \"#utility.yul\":9282:9358   */\n      tag_131\n      jump\t// in\n    tag_255:\n        /* \"#utility.yul\":9381:9388   */\n      dup1\n        /* \"#utility.yul\":9412:9413   */\n      0x00\n        /* \"#utility.yul\":9397:9823   */\n    tag_256:\n        /* \"#utility.yul\":9422:9428   */\n      dup6\n        /* \"#utility.yul\":9419:9420   */\n      dup2\n        /* \"#utility.yul\":9416:9429   */\n      lt\n        /* \"#utility.yul\":9397:9823   */\n      iszero\n      tag_258\n      jumpi\n        /* \"#utility.yul\":9493:9502   */\n      dup5\n        /* \"#utility.yul\":9487:9491   */\n      dup5\n        /* \"#utility.yul\":9483:9503   */\n      sub\n        /* \"#utility.yul\":9478:9481   */\n      dup10\n        /* \"#utility.yul\":9471:9504   */\n      mstore\n        /* \"#utility.yul\":9544:9550   */\n      dup2\n        /* \"#utility.yul\":9538:9551   */\n      mload\n        /* \"#utility.yul\":9572:9676   */\n      tag_259\n        /* \"#utility.yul\":9671:9675   */\n      dup6\n        /* \"#utility.yul\":9656:9669   */\n      dup3\n        /* \"#utility.yul\":9572:9676   */\n      tag_137\n      jump\t// in\n    tag_259:\n        /* \"#utility.yul\":9564:9676   */\n      swap5\n      pop\n        /* \"#utility.yul\":9699:9779   */\n      tag_260\n        /* \"#utility.yul\":9772:9778   */\n      dup4\n        /* \"#utility.yul\":9699:9779   */\n      tag_138\n      jump\t// in\n    tag_260:\n        /* \"#utility.yul\":9689:9779   */\n      swap3\n      pop\n        /* \"#utility.yul\":9808:9812   */\n      0x20\n        /* \"#utility.yul\":9803:9806   */\n      dup11\n        /* \"#utility.yul\":9799:9813   */\n      add\n        /* \"#utility.yul\":9792:9813   */\n      swap10\n      pop\n        /* \"#utility.yul\":9457:9823   */\n      pop\n        /* \"#utility.yul\":9444:9445   */\n      0x01\n        /* \"#utility.yul\":9441:9442   */\n      dup2\n        /* \"#utility.yul\":9437:9446   */\n      add\n        /* \"#utility.yul\":9432:9446   */\n      swap1\n      pop\n        /* \"#utility.yul\":9397:9823   */\n      jump(tag_256)\n    tag_258:\n        /* \"#utility.yul\":9401:9415   */\n      pop\n        /* \"#utility.yul\":9839:9843   */\n      dup3\n        /* \"#utility.yul\":9832:9843   */\n      swap8\n      pop\n        /* \"#utility.yul\":9859:9862   */\n      dup8\n        /* \"#utility.yul\":9852:9862   */\n      swap6\n      pop\n        /* \"#utility.yul\":8961:9868   */\n      pop\n      pop\n      pop\n      pop\n      pop\n        /* \"#utility.yul\":8797:9868   */\n      swap3\n      swap2\n      pop\n      pop\n      jump\t// out\n        /* \"#utility.yul\":9874:10327   */\n    tag_28:\n        /* \"#utility.yul\":10057:10061   */\n      0x00\n        /* \"#utility.yul\":10095:10097   */\n      0x20\n        /* \"#utility.yul\":10084:10093   */\n      dup3\n        /* \"#utility.yul\":10080:10098   */\n      add\n        /* \"#utility.yul\":10072:10098   */\n      swap1\n      pop\n        /* \"#utility.yul\":10144:10153   */\n      dup2\n        /* \"#utility.yul\":10138:10142   */\n      dup2\n        /* \"#utility.yul\":10134:10154   */\n      sub\n        /* \"#utility.yul\":10130:10131   */\n      0x00\n        /* \"#utility.yul\":10119:10128   */\n      dup4\n        /* \"#utility.yul\":10115:10132   */\n      add\n        /* \"#utility.yul\":10108:10155   */\n      mstore\n        /* \"#utility.yul\":10172:10320   */\n      tag_262\n        /* \"#utility.yul\":10315:10319   */\n      dup2\n        /* \"#utility.yul\":10306:10312   */\n      dup5\n        /* \"#utility.yul\":10172:10320   */\n      tag_139\n      jump\t// in\n    tag_262:\n        /* \"#utility.yul\":10164:10320   */\n      swap1\n      pop\n        /* \"#utility.yul\":9874:10327   */\n      swap3\n      swap2\n      pop\n      pop\n      jump\t// out\n        /* \"#utility.yul\":10333:10513   */\n    tag_140:\n        /* \"#utility.yul\":10381:10458   */\n      0x4e487b7100000000000000000000000000000000000000000000000000000000\n        /* \"#utility.yul\":10378:10379   */\n      0x00\n        /* \"#utility.yul\":10371:10459   */\n      mstore\n        /* \"#utility.yul\":10478:10482   */\n      0x22\n        /* \"#utility.yul\":10475:10476   */\n      0x04\n        /* \"#utility.yul\":10468:10483   */\n      mstore\n        /* \"#utility.yul\":10502:10506   */\n      0x24\n        /* \"#utility.yul\":10499:10500   */\n      0x00\n        /* \"#utility.yul\":10492:10507   */\n      revert\n        /* \"#utility.yul\":10519:10839   */\n    tag_69:\n        /* \"#utility.yul\":10563:10569   */\n      0x00\n        /* \"#utility.yul\":10600:10601   */\n      0x02\n        /* \"#utility.yul\":10594:10598   */\n      dup3\n        /* \"#utility.yul\":10590:10602   */\n      div\n        /* \"#utility.yul\":10580:10602   */\n      swap1\n      pop\n        /* \"#utility.yul\":10647:10648   */\n      0x01\n        /* \"#utility.yul\":10641:10645   */\n      dup3\n        /* \"#utility.yul\":10637:10649   */\n      and\n        /* \"#utility.yul\":10668:10686   */\n      dup1\n        /* \"#utility.yul\":10658:10739   */\n      tag_265\n      jumpi\n        /* \"#utility.yul\":10724:10728   */\n      0x7f\n        /* \"#utility.yul\":10716:10722   */\n      dup3\n        /* \"#utility.yul\":10712:10729   */\n      and\n        /* \"#utility.yul\":10702:10729   */\n      swap2\n      pop\n        /* \"#utility.yul\":10658:10739   */\n    tag_265:\n        /* \"#utility.yul\":10786:10788   */\n      0x20\n        /* \"#utility.yul\":10778:10784   */\n      dup3\n        /* \"#utility.yul\":10775:10789   */\n      lt\n        /* \"#utility.yul\":10755:10773   */\n      dup2\n        /* \"#utility.yul\":10752:10790   */\n      sub\n        /* \"#utility.yul\":10749:10833   */\n      tag_266\n      jumpi\n        /* \"#utility.yul\":10805:10823   */\n      tag_267\n      tag_140\n      jump\t// in\n    tag_267:\n        /* \"#utility.yul\":10749:10833   */\n    tag_266:\n        /* \"#utility.yul\":10570:10839   */\n      pop\n        /* \"#utility.yul\":10519:10839   */\n      swap2\n      swap1\n      pop\n      jump\t// out\n        /* \"#utility.yul\":10845:10986   */\n    tag_141:\n        /* \"#utility.yul\":10894:10898   */\n      0x00\n        /* \"#utility.yul\":10917:10920   */\n      dup2\n        /* \"#utility.yul\":10909:10920   */\n      swap1\n      pop\n        /* \"#utility.yul\":10940:10943   */\n      dup2\n        /* \"#utility.yul\":10937:10938   */\n      0x00\n        /* \"#utility.yul\":10930:10944   */\n      mstore\n        /* \"#utility.yul\":10974:10978   */\n      0x20\n        /* \"#utility.yul\":10971:10972   */\n      0x00\n        /* \"#utility.yul\":10961:10979   */\n      keccak256\n        /* \"#utility.yul\":10953:10979   */\n      swap1\n      pop\n        /* \"#utility.yul\":10845:10986   */\n      swap2\n      swap1\n      pop\n      jump\t// out\n        /* \"#utility.yul\":10992:11085   */\n    tag_142:\n        /* \"#utility.yul\":11029:11035   */\n      0x00\n        /* \"#utility.yul\":11076:11078   */\n      0x20\n        /* \"#utility.yul\":11071:11073   */\n      0x1f\n        /* \"#utility.yul\":11064:11069   */\n      dup4\n        /* \"#utility.yul\":11060:11074   */\n      add\n        /* \"#utility.yul\":11056:11079   */\n      div\n        /* \"#utility.yul\":11046:11079   */\n      swap1\n      pop\n        /* \"#utility.yul\":10992:11085   */\n      swap2\n      swap1\n      pop\n      jump\t// out\n        /* \"#utility.yul\":11091:11198   */\n    tag_143:\n        /* \"#utility.yul\":11135:11143   */\n      0x00\n        /* \"#utility.yul\":11185:11190   */\n      dup3\n        /* \"#utility.yul\":11179:11183   */\n      dup3\n        /* \"#utility.yul\":11175:11191   */\n      shl\n        /* \"#utility.yul\":11154:11191   */\n      swap1\n      pop\n        /* \"#utility.yul\":11091:11198   */\n      swap3\n      swap2\n      pop\n      pop\n      jump\t// out\n        /* \"#utility.yul\":11204:11597   */\n    tag_144:\n        /* \"#utility.yul\":11273:11279   */\n      0x00\n        /* \"#utility.yul\":11323:11324   */\n      0x08\n        /* \"#utility.yul\":11311:11321   */\n      dup4\n        /* \"#utility.yul\":11307:11325   */\n      mul\n        /* \"#utility.yul\":11346:11443   */\n      tag_272\n        /* \"#utility.yul\":11376:11442   */\n      0xffffffffffffffffffffffffffffffffffffffffffffffffffffffffffffffff\n        /* \"#utility.yul\":11365:11374   */\n      dup3\n        /* \"#utility.yul\":11346:11443   */\n      tag_143\n      jump\t// in\n    tag_272:\n        /* \"#utility.yul\":11464:11503   */\n      tag_273\n        /* \"#utility.yul\":11494:11502   */\n      dup7\n        /* \"#utility.yul\":11483:11492   */\n      dup4\n        /* \"#utility.yul\":11464:11503   */\n      tag_143\n      jump\t// in\n    tag_273:\n        /* \"#utility.yul\":11452:11503   */\n      swap6\n      pop\n        /* \"#utility.yul\":11536:11540   */\n      dup1\n        /* \"#utility.yul\":11532:11541   */\n      not\n        /* \"#utility.yul\":11525:11530   */\n      dup5\n        /* \"#utility.yul\":11521:11542   */\n      and\n        /* \"#utility.yul\":11512:11542   */\n      swap4\n      pop\n        /* \"#utility.yul\":11585:11589   */\n      dup1\n        /* \"#utility.yul\":11575:11583   */\n      dup7\n        /* \"#utility.yul\":11571:11590   */\n      and\n        /* \"#utility.yul\":11564:11569   */\n      dup5\n        /* \"#utility.yul\":11561:11591   */\n      or\n        /* \"#utility.yul\":11551:11591   */\n      swap3\n      pop\n        /* \"#utility.yul\":11280:11597   */\n      pop\n      pop\n        /* \"#utility.yul\":11204:11597   */\n      swap4\n      swap3\n      pop\n      pop\n      pop\n      jump\t// out\n        /* \"#utility.yul\":11603:11663   */\n    tag_145:\n        /* \"#utility.yul\":11631:11634   */\n      0x00\n        /* \"#utility.yul\":11652:11657   */\n      dup2\n        /* \"#utility.yul\":11645:11657   */\n      swap1\n      pop\n        /* \"#utility.yul\":11603:11663   */\n      swap2\n      swap1\n      pop\n      jump\t// out\n        /* \"#utility.yul\":11669:11811   */\n    tag_146:\n        /* \"#utility.yul\":11719:11728   */\n      0x00\n        /* \"#utility.yul\":11752:11805   */\n      tag_276\n        /* \"#utility.yul\":11770:11804   */\n      tag_277\n        /* \"#utility.yul\":11779:11803   */\n      tag_278\n        /* \"#utility.yul\":11797:11802   */\n      dup5\n        /* \"#utility.yul\":11779:11803   */\n      tag_118\n      jump\t// in\n    tag_278:\n        /* \"#utility.yul\":11770:11804   */\n      tag_145\n      jump\t// in\n    tag_277:\n        /* \"#utility.yul\":11752:11805   */\n      tag_118\n      jump\t// in\n    tag_276:\n        /* \"#utility.yul\":11739:11805   */\n      swap1\n      pop\n        /* \"#utility.yul\":11669:11811   */\n      swap2\n      swap1\n      pop\n      jump\t// out\n        /* \"#utility.yul\":11817:11892   */\n    tag_147:\n        /* \"#utility.yul\":11860:11863   */\n      0x00\n        /* \"#utility.yul\":11881:11886   */\n      dup2\n        /* \"#utility.yul\":11874:11886   */\n      swap1\n      pop\n        /* \"#utility.yul\":11817:11892   */\n      swap2\n      swap1\n      pop\n      jump\t// out\n        /* \"#utility.yul\":11898:12167   */\n    tag_148:\n        /* \"#utility.yul\":12008:12047   */\n      tag_281\n        /* \"#utility.yul\":12039:12046   */\n      dup4\n        /* \"#utility.yul\":12008:12047   */\n      tag_146\n      jump\t// in\n    tag_281:\n        /* \"#utility.yul\":12069:12160   */\n      tag_282\n        /* \"#utility.yul\":12118:12159   */\n      tag_283\n        /* \"#utility.yul\":12142:12158   */\n      dup3\n        /* \"#utility.yul\":12118:12159   */\n      tag_147\n      jump\t// in\n    tag_283:\n        /* \"#utility.yul\":12110:12116   */\n      dup5\n        /* \"#utility.yul\":12103:12107   */\n      dup5\n        /* \"#utility.yul\":12097:12108   */\n      sload\n        /* \"#utility.yul\":12069:12160   */\n      tag_144\n      jump\t// in\n    tag_282:\n        /* \"#utility.yul\":12063:12067   */\n      dup3\n        /* \"#utility.yul\":12056:12161   */\n      sstore\n        /* \"#utility.yul\":11974:12167   */\n      pop\n        /* \"#utility.yul\":11898:12167   */\n      pop\n      pop\n      pop\n      jump\t// out\n        /* \"#utility.yul\":12173:12246   */\n    tag_149:\n        /* \"#utility.yul\":12218:12221   */\n      0x00\n        /* \"#utility.yul\":12173:12246   */\n      swap1\n      jump\t// out\n        /* \"#utility.yul\":12252:12441   */\n    tag_150:\n        /* \"#utility.yul\":12329:12361   */\n      tag_286\n      tag_149\n      jump\t// in\n    tag_286:\n        /* \"#utility.yul\":12370:12435   */\n      tag_287\n        /* \"#utility.yul\":12428:12434   */\n      dup2\n        /* \"#utility.yul\":12420:12426   */\n      dup5\n        /* \"#utility.yul\":12414:12418   */\n      dup5\n        /* \"#utility.yul\":12370:12435   */\n      tag_148\n      jump\t// in\n    tag_287:\n        /* \"#utility.yul\":12305:12441   */\n      pop\n        /* \"#utility.yul\":12252:12441   */\n      pop\n      pop\n      jump\t// out\n        /* \"#utility.yul\":12447:12633   */\n    tag_151:\n        /* \"#utility.yul\":12507:12627   */\n    tag_289:\n        /* \"#utility.yul\":12524:12527   */\n      dup2\n        /* \"#utility.yul\":12517:12522   */\n      dup2\n        /* \"#utility.yul\":12514:12528   */\n      lt\n        /* \"#utility.yul\":12507:12627   */\n      iszero\n      tag_291\n      jumpi\n        /* \"#utility.yul\":12578:12617   */\n      tag_292\n        /* \"#utility.yul\":12615:12616   */\n      0x00\n        /* \"#utility.yul\":12608:12613   */\n      dup3\n        /* \"#utility.yul\":12578:12617   */\n      tag_150\n      jump\t// in\n    tag_292:\n        /* \"#utility.yul\":12551:12552   */\n      0x01\n        /* \"#utility.yul\":12544:12549   */\n      dup2\n        /* \"#utility.yul\":12540:12553   */\n      add\n        /* \"#utility.yul\":12531:12553   */\n      swap1\n      pop\n        /* \"#utility.yul\":12507:12627   */\n      jump(tag_289)\n    tag_291:\n        /* \"#utility.yul\":12447:12633   */\n      pop\n      pop\n      jump\t// out\n        /* \"#utility.yul\":12639:13182   */\n    tag_152:\n        /* \"#utility.yul\":12740:12742   */\n      0x1f\n        /* \"#utility.yul\":12735:12738   */\n      dup3\n        /* \"#utility.yul\":12732:12743   */\n      gt\n        /* \"#utility.yul\":12729:13175   */\n      iszero\n      tag_294\n      jumpi\n        /* \"#utility.yul\":12774:12812   */\n      tag_295\n        /* \"#utility.yul\":12806:12811   */\n      dup2\n        /* \"#utility.yul\":12774:12812   */\n      tag_141\n      jump\t// in\n    tag_295:\n        /* \"#utility.yul\":12858:12887   */\n      tag_296\n        /* \"#utility.yul\":12876:12886   */\n      dup5\n        /* \"#utility.yul\":12858:12887   */\n      tag_142\n      jump\t// in\n    tag_296:\n        /* \"#utility.yul\":12848:12856   */\n      dup2\n        /* \"#utility.yul\":12844:12888   */\n      add\n        /* \"#utility.yul\":13041:13043   */\n      0x20\n        /* \"#utility.yul\":13029:13039   */\n      dup6\n        /* \"#utility.yul\":13026:13044   */\n      lt\n        /* \"#utility.yul\":13023:13072   */\n      iszero\n      tag_297\n      jumpi\n        /* \"#utility.yul\":13062:13070   */\n      dup2\n        /* \"#utility.yul\":13047:13070   */\n      swap1\n      pop\n        /* \"#utility.yul\":13023:13072   */\n    tag_297:\n        /* \"#utility.yul\":13085:13165   */\n      tag_298\n        /* \"#utility.yul\":13141:13163   */\n      tag_299\n        /* \"#utility.yul\":13159:13162   */\n      dup6\n        /* \"#utility.yul\":13141:13163   */\n      tag_142\n      jump\t// in\n    tag_299:\n        /* \"#utility.yul\":13131:13139   */\n      dup4\n        /* \"#utility.yul\":13127:13164   */\n      add\n        /* \"#utility.yul\":13114:13125   */\n      dup3\n        /* \"#utility.yul\":13085:13165   */\n      tag_151\n      jump\t// in\n    tag_298:\n        /* \"#utility.yul\":12744:13175   */\n      pop\n      pop\n        /* \"#utility.yul\":12729:13175   */\n    tag_294:\n        /* \"#utility.yul\":12639:13182   */\n      pop\n      pop\n      pop\n      jump\t// out\n        /* \"#utility.yul\":13188:13305   */\n    tag_153:\n        /* \"#utility.yul\":13242:13250   */\n      0x00\n        /* \"#utility.yul\":13292:13297   */\n      dup3\n        /* \"#utility.yul\":13286:13290   */\n      dup3\n        /* \"#utility.yul\":13282:13298   */\n      shr\n        /* \"#utility.yul\":13261:13298   */\n      swap1\n      pop\n        /* \"#utility.yul\":13188:13305   */\n      swap3\n      swap2\n      pop\n      pop\n      jump\t// out\n        /* \"#utility.yul\":13311:13480   */\n    tag_154:\n        /* \"#utility.yul\":13355:13361   */\n      0x00\n        /* \"#utility.yul\":13388:13439   */\n      tag_302\n        /* \"#utility.yul\":13436:13437   */\n      0x00\n        /* \"#utility.yul\":13432:13438   */\n      not\n        /* \"#utility.yul\":13424:13429   */\n      dup5\n        /* \"#utility.yul\":13421:13422   */\n      0x08\n        /* \"#utility.yul\":13417:13430   */\n      mul\n        /* \"#utility.yul\":13388:13439   */\n      tag_153\n      jump\t// in\n    tag_302:\n        /* \"#utility.yul\":13384:13440   */\n      not\n        /* \"#utility.yul\":13469:13473   */\n      dup1\n        /* \"#utility.yul\":13463:13467   */\n      dup4\n        /* \"#utility.yul\":13459:13474   */\n      and\n        /* \"#utility.yul\":13449:13474   */\n      swap2\n      pop\n        /* \"#utility.yul\":13362:13480   */\n      pop\n        /* \"#utility.yul\":13311:13480   */\n      swap3\n      swap2\n      pop\n      pop\n      jump\t// out\n        /* \"#utility.yul\":13485:13780   */\n    tag_155:\n        /* \"#utility.yul\":13561:13565   */\n      0x00\n        /* \"#utility.yul\":13707:13736   */\n      tag_304\n        /* \"#utility.yul\":13732:13735   */\n      dup4\n        /* \"#utility.yul\":13726:13730   */\n      dup4\n        /* \"#utility.yul\":13707:13736   */\n      tag_154\n      jump\t// in\n    tag_304:\n        /* \"#utility.yul\":13699:13736   */\n      swap2\n      pop\n        /* \"#utility.yul\":13769:13772   */\n      dup3\n        /* \"#utility.yul\":13766:13767   */\n      0x02\n        /* \"#utility.yul\":13762:13773   */\n      mul\n        /* \"#utility.yul\":13756:13760   */\n      dup3\n        /* \"#utility.yul\":13753:13774   */\n      or\n        /* \"#utility.yul\":13745:13774   */\n      swap1\n      pop\n        /* \"#utility.yul\":13485:13780   */\n      swap3\n      swap2\n      pop\n      pop\n      jump\t// out\n        /* \"#utility.yul\":13785:15180   */\n    tag_32:\n        /* \"#utility.yul\":13902:13939   */\n      tag_306\n        /* \"#utility.yul\":13935:13938   */\n      dup3\n        /* \"#utility.yul\":13902:13939   */\n      tag_122\n      jump\t// in\n    tag_306:\n        /* \"#utility.yul\":14004:14022   */\n      0xffffffffffffffff\n        /* \"#utility.yul\":13996:14002   */\n      dup2\n        /* \"#utility.yul\":13993:14023   */\n      gt\n        /* \"#utility.yul\":13990:14046   */\n      iszero\n      tag_307\n      jumpi\n        /* \"#utility.yul\":14026:14044   */\n      tag_308\n      tag_111\n      jump\t// in\n    tag_308:\n        /* \"#utility.yul\":13990:14046   */\n    tag_307:\n        /* \"#utility.yul\":14070:14108   */\n      tag_309\n        /* \"#utility.yul\":14102:14106   */\n      dup3\n        /* \"#utility.yul\":14096:14107   */\n      sload\n        /* \"#utility.yul\":14070:14108   */\n      tag_69\n      jump\t// in\n    tag_309:\n        /* \"#utility.yul\":14155:14222   */\n      tag_310\n        /* \"#utility.yul\":14215:14221   */\n      dup3\n        /* \"#utility.yul\":14207:14213   */\n      dup3\n        /* \"#utility.yul\":14201:14205   */\n      dup6\n        /* \"#utility.yul\":14155:14222   */\n      tag_152\n      jump\t// in\n    tag_310:\n        /* \"#utility.yul\":14249:14250   */\n      0x00\n        /* \"#utility.yul\":14273:14277   */\n      0x20\n        /* \"#utility.yul\":14260:14277   */\n      swap1\n      pop\n        /* \"#utility.yul\":14305:14307   */\n      0x1f\n        /* \"#utility.yul\":14297:14303   */\n      dup4\n        /* \"#utility.yul\":14294:14308   */\n      gt\n        /* \"#utility.yul\":14322:14323   */\n      0x01\n        /* \"#utility.yul\":14317:14935   */\n      dup2\n      eq\n      tag_312\n      jumpi\n        /* \"#utility.yul\":14979:14980   */\n      0x00\n        /* \"#utility.yul\":14996:15002   */\n      dup5\n        /* \"#utility.yul\":14993:15070   */\n      iszero\n      tag_313\n      jumpi\n        /* \"#utility.yul\":15045:15054   */\n      dup3\n        /* \"#utility.yul\":15040:15043   */\n      dup8\n        /* \"#utility.yul\":15036:15055   */\n      add\n        /* \"#utility.yul\":15030:15056   */\n      mload\n        /* \"#utility.yul\":15021:15056   */\n      swap1\n      pop\n        /* \"#utility.yul\":14993:15070   */\n    tag_313:\n        /* \"#utility.yul\":15096:15163   */\n      tag_314\n        /* \"#utility.yul\":15156:15162   */\n      dup6\n        /* \"#utility.yul\":15149:15154   */\n      dup3\n        /* \"#utility.yul\":15096:15163   */\n      tag_155\n      jump\t// in\n    tag_314:\n        /* \"#utility.yul\":15090:15094   */\n      dup7\n        /* \"#utility.yul\":15083:15164   */\n      sstore\n        /* \"#utility.yul\":14952:15174   */\n      pop\n        /* \"#utility.yul\":14287:15174   */\n      jump(tag_311)\n        /* \"#utility.yul\":14317:14935   */\n    tag_312:\n        /* \"#utility.yul\":14369:14373   */\n      0x1f\n        /* \"#utility.yul\":14365:14374   */\n      not\n        /* \"#utility.yul\":14357:14363   */\n      dup5\n        /* \"#utility.yul\":14353:14375   */\n      and\n        /* \"#utility.yul\":14403:14440   */\n      tag_315\n        /* \"#utility.yul\":14435:14439   */\n      dup7\n        /* \"#utility.yul\":14403:14440   */\n      tag_141\n      jump\t// in\n    tag_315:\n        /* \"#utility.yul\":14462:14463   */\n      0x00\n        /* \"#utility.yul\":14476:14684   */\n    tag_316:\n        /* \"#utility.yul\":14490:14497   */\n      dup3\n        /* \"#utility.yul\":14487:14488   */\n      dup2\n        /* \"#utility.yul\":14484:14498   */\n      lt\n        /* \"#utility.yul\":14476:14684   */\n      iszero\n      tag_318\n      jumpi\n        /* \"#utility.yul\":14569:14578   */\n      dup5\n        /* \"#utility.yul\":14564:14567   */\n      dup10\n        /* \"#utility.yul\":14560:14579   */\n      add\n        /* \"#utility.yul\":14554:14580   */\n      mload\n        /* \"#utility.yul\":14546:14552   */\n      dup3\n        /* \"#utility.yul\":14539:14581   */\n      sstore\n        /* \"#utility.yul\":14620:14621   */\n      0x01\n        /* \"#utility.yul\":14612:14618   */\n      dup3\n        /* \"#utility.yul\":14608:14622   */\n      add\n        /* \"#utility.yul\":14598:14622   */\n      swap2\n      pop\n        /* \"#utility.yul\":14667:14669   */\n      0x20\n        /* \"#utility.yul\":14656:14665   */\n      dup6\n        /* \"#utility.yul\":14652:14670   */\n      add\n        /* \"#utility.yul\":14639:14670   */\n      swap5\n      pop\n        /* \"#utility.yul\":14513:14517   */\n      0x20\n        /* \"#utility.yul\":14510:14511   */\n      dup2\n        /* \"#utility.yul\":14506:14518   */\n      add\n        /* \"#utility.yul\":14501:14518   */\n      swap1\n      pop\n        /* \"#utility.yul\":14476:14684   */\n      jump(tag_316)\n    tag_318:\n        /* \"#utility.yul\":14712:14718   */\n      dup7\n        /* \"#utility.yul\":14703:14710   */\n      dup4\n        /* \"#utility.yul\":14700:14719   */\n      lt\n        /* \"#utility.yul\":14697:14876   */\n      iszero\n      tag_319\n      jumpi\n        /* \"#utility.yul\":14770:14779   */\n      dup5\n        /* \"#utility.yul\":14765:14768   */\n      dup10\n        /* \"#utility.yul\":14761:14780   */\n      add\n        /* \"#utility.yul\":14755:14781   */\n      mload\n        /* \"#utility.yul\":14813:14861   */\n      tag_320\n        /* \"#utility.yul\":14855:14859   */\n      0x1f\n        /* \"#utility.yul\":14847:14853   */\n      dup10\n        /* \"#utility.yul\":14843:14860   */\n      and\n        /* \"#utility.yul\":14832:14841   */\n      dup3\n        /* \"#utility.yul\":14813:14861   */\n      tag_154\n      jump\t// in\n    tag_320:\n        /* \"#utility.yul\":14805:14811   */\n      dup4\n        /* \"#utility.yul\":14798:14862   */\n      sstore\n        /* \"#utility.yul\":14720:14876   */\n      pop\n        /* \"#utility.yul\":14697:14876   */\n    tag_319:\n        /* \"#utility.yul\":14922:14923   */\n      0x01\n        /* \"#utility.yul\":14918:14919   */\n      0x02\n        /* \"#utility.yul\":14910:14916   */\n      dup9\n        /* \"#utility.yul\":14906:14920   */\n      mul\n        /* \"#utility.yul\":14902:14924   */\n      add\n        /* \"#utility.yul\":14896:14900   */\n      dup9\n        /* \"#utility.yul\":14889:14925   */\n      sstore\n        /* \"#utility.yul\":14324:14935   */\n      pop\n      pop\n      pop\n        /* \"#utility.yul\":14287:15174   */\n    tag_311:\n      pop\n        /* \"#utility.yul\":13877:15180   */\n      pop\n      pop\n      pop\n        /* \"#utility.yul\":13785:15180   */\n      pop\n      pop\n      jump\t// out\n        /* \"#utility.yul\":15186:15366   */\n    tag_156:\n        /* \"#utility.yul\":15234:15311   */\n      0x4e487b7100000000000000000000000000000000000000000000000000000000\n        /* \"#utility.yul\":15231:15232   */\n      0x00\n        /* \"#utility.yul\":15224:15312   */\n      mstore\n        /* \"#utility.yul\":15331:15335   */\n      0x11\n        /* \"#utility.yul\":15328:15329   */\n      0x04\n        /* \"#utility.yul\":15321:15336   */\n      mstore\n        /* \"#utility.yul\":15355:15359   */\n      0x24\n        /* \"#utility.yul\":15352:15353   */\n      0x00\n        /* \"#utility.yul\":15345:15360   */\n      revert\n        /* \"#utility.yul\":15372:15605   */\n    tag_35:\n        /* \"#utility.yul\":15411:15414   */\n      0x00\n        /* \"#utility.yul\":15434:15458   */\n      tag_323\n        /* \"#utility.yul\":15452:15457   */\n      dup3\n        /* \"#utility.yul\":15434:15458   */\n      tag_118\n      jump\t// in\n    tag_323:\n        /* \"#utility.yul\":15425:15458   */\n      swap2\n      pop\n        /* \"#utility.yul\":15480:15546   */\n      0xffffffffffffffffffffffffffffffffffffffffffffffffffffffffffffffff\n        /* \"#utility.yul\":15473:15478   */\n      dup3\n        /* \"#utility.yul\":15470:15547   */\n      sub\n        /* \"#utility.yul\":15467:15570   */\n      tag_324\n      jumpi\n        /* \"#utility.yul\":15550:15568   */\n      tag_325\n      tag_156\n      jump\t// in\n    tag_325:\n        /* \"#utility.yul\":15467:15570   */\n    tag_324:\n        /* \"#utility.yul\":15597:15598   */\n      0x01\n        /* \"#utility.yul\":15590:15595   */\n      dup3\n        /* \"#utility.yul\":15586:15599   */\n      add\n        /* \"#utility.yul\":15579:15599   */\n      swap1\n      pop\n        /* \"#utility.yul\":15372:15605   */\n      swap2\n      swap1\n      pop\n      jump\t// out\n        /* \"#utility.yul\":15611:15786   */\n    tag_157:\n        /* \"#utility.yul\":15751:15778   */\n      0x42616e206b686f6e672070686169206c6120636875206e686100000000000000\n        /* \"#utility.yul\":15747:15748   */\n      0x00\n        /* \"#utility.yul\":15739:15745   */\n      dup3\n        /* \"#utility.yul\":15735:15749   */\n      add\n        /* \"#utility.yul\":15728:15779   */\n      mstore\n        /* \"#utility.yul\":15611:15786   */\n      pop\n      jump\t// out\n        /* \"#utility.yul\":15792:16158   */\n    tag_158:\n        /* \"#utility.yul\":15934:15937   */\n      0x00\n        /* \"#utility.yul\":15955:16022   */\n      tag_328\n        /* \"#utility.yul\":16019:16021   */\n      0x19\n        /* \"#utility.yul\":16014:16017   */\n      dup4\n        /* \"#utility.yul\":15955:16022   */\n      tag_123\n      jump\t// in\n    tag_328:\n        /* \"#utility.yul\":15948:16022   */\n      swap2\n      pop\n        /* \"#utility.yul\":16031:16124   */\n      tag_329\n        /* \"#utility.yul\":16120:16123   */\n      dup3\n        /* \"#utility.yul\":16031:16124   */\n      tag_157\n      jump\t// in\n    tag_329:\n        /* \"#utility.yul\":16149:16151   */\n      0x20\n        /* \"#utility.yul\":16144:16147   */\n      dup3\n        /* \"#utility.yul\":16140:16152   */\n      add\n        /* \"#utility.yul\":16133:16152   */\n      swap1\n      pop\n        /* \"#utility.yul\":15792:16158   */\n      swap2\n      swap1\n      pop\n      jump\t// out\n        /* \"#utility.yul\":16164:16583   */\n    tag_39:\n        /* \"#utility.yul\":16330:16334   */\n      0x00\n        /* \"#utility.yul\":16368:16370   */\n      0x20\n        /* \"#utility.yul\":16357:16366   */\n      dup3\n        /* \"#utility.yul\":16353:16371   */\n      add\n        /* \"#utility.yul\":16345:16371   */\n      swap1\n      pop\n        /* \"#utility.yul\":16417:16426   */\n      dup2\n        /* \"#utility.yul\":16411:16415   */\n      dup2\n        /* \"#utility.yul\":16407:16427   */\n      sub\n        /* \"#utility.yul\":16403:16404   */\n      0x00\n        /* \"#utility.yul\":16392:16401   */\n      dup4\n        /* \"#utility.yul\":16388:16405   */\n      add\n        /* \"#utility.yul\":16381:16428   */\n      mstore\n        /* \"#utility.yul\":16445:16576   */\n      tag_331\n        /* \"#utility.yul\":16571:16575   */\n      dup2\n        /* \"#utility.yul\":16445:16576   */\n      tag_158\n      jump\t// in\n    tag_331:\n        /* \"#utility.yul\":16437:16576   */\n      swap1\n      pop\n        /* \"#utility.yul\":16164:16583   */\n      swap2\n      swap1\n      pop\n      jump\t// out\n        /* \"#utility.yul\":16589:16769   */\n    tag_45:\n        /* \"#utility.yul\":16637:16714   */\n      0x4e487b7100000000000000000000000000000000000000000000000000000000\n        /* \"#utility.yul\":16634:16635   */\n      0x00\n        /* \"#utility.yul\":16627:16715   */\n      mstore\n        /* \"#utility.yul\":16734:16738   */\n      0x32\n        /* \"#utility.yul\":16731:16732   */\n      0x04\n        /* \"#utility.yul\":16724:16739   */\n      mstore\n        /* \"#utility.yul\":16758:16762   */\n      0x24\n        /* \"#utility.yul\":16755:16756   */\n      0x00\n        /* \"#utility.yul\":16748:16763   */\n      revert\n        /* \"#utility.yul\":16775:16969   */\n    tag_49:\n        /* \"#utility.yul\":16815:16819   */\n      0x00\n        /* \"#utility.yul\":16835:16855   */\n      tag_334\n        /* \"#utility.yul\":16853:16854   */\n      dup3\n        /* \"#utility.yul\":16835:16855   */\n      tag_118\n      jump\t// in\n    tag_334:\n        /* \"#utility.yul\":16830:16855   */\n      swap2\n      pop\n        /* \"#utility.yul\":16869:16889   */\n      tag_335\n        /* \"#utility.yul\":16887:16888   */\n      dup4\n        /* \"#utility.yul\":16869:16889   */\n      tag_118\n      jump\t// in\n    tag_335:\n        /* \"#utility.yul\":16864:16889   */\n      swap3\n      pop\n        /* \"#utility.yul\":16913:16914   */\n      dup3\n        /* \"#utility.yul\":16910:16911   */\n      dup3\n        /* \"#utility.yul\":16906:16915   */\n      sub\n        /* \"#utility.yul\":16898:16915   */\n      swap1\n      pop\n        /* \"#utility.yul\":16937:16938   */\n      dup2\n        /* \"#utility.yul\":16931:16935   */\n      dup2\n        /* \"#utility.yul\":16928:16939   */\n      gt\n        /* \"#utility.yul\":16925:16962   */\n      iszero\n      tag_336\n      jumpi\n        /* \"#utility.yul\":16942:16960   */\n      tag_337\n      tag_156\n      jump\t// in\n    tag_337:\n        /* \"#utility.yul\":16925:16962   */\n    tag_336:\n        /* \"#utility.yul\":16775:16969   */\n      swap3\n      swap2\n      pop\n      pop\n      jump\t// out\n        /* \"#utility.yul\":16975:17124   */\n    tag_159:\n        /* \"#utility.yul\":17024:17030   */\n      0x00\n        /* \"#utility.yul\":17058:17063   */\n      dup2\n        /* \"#utility.yul\":17052:17064   */\n      sload\n        /* \"#utility.yul\":17042:17064   */\n      swap1\n      pop\n        /* \"#utility.yul\":17084:17117   */\n      tag_339\n        /* \"#utility.yul\":17110:17116   */\n      dup2\n        /* \"#utility.yul\":17084:17117   */\n      tag_69\n      jump\t// in\n    tag_339:\n        /* \"#utility.yul\":17074:17117   */\n      swap1\n      pop\n        /* \"#utility.yul\":16975:17124   */\n      swap2\n      swap1\n      pop\n      jump\t// out\n        /* \"#utility.yul\":17130:18581   */\n    tag_57:\n        /* \"#utility.yul\":17241:17244   */\n      dup2\n        /* \"#utility.yul\":17235:17239   */\n      dup2\n        /* \"#utility.yul\":17232:17245   */\n      sub\n        /* \"#utility.yul\":17229:17255   */\n      tag_341\n      jumpi\n        /* \"#utility.yul\":17248:17253   */\n      pop\n      pop\n      jump(tag_340)\n        /* \"#utility.yul\":17229:17255   */\n    tag_341:\n        /* \"#utility.yul\":17279:17313   */\n      tag_342\n        /* \"#utility.yul\":17309:17312   */\n      dup3\n        /* \"#utility.yul\":17279:17313   */\n      tag_159\n      jump\t// in\n    tag_342:\n        /* \"#utility.yul\":17378:17396   */\n      0xffffffffffffffff\n        /* \"#utility.yul\":17370:17376   */\n      dup2\n        /* \"#utility.yul\":17367:17397   */\n      gt\n        /* \"#utility.yul\":17364:17420   */\n      iszero\n      tag_343\n      jumpi\n        /* \"#utility.yul\":17400:17418   */\n      tag_344\n      tag_111\n      jump\t// in\n    tag_344:\n        /* \"#utility.yul\":17364:17420   */\n    tag_343:\n        /* \"#utility.yul\":17444:17482   */\n      tag_345\n        /* \"#utility.yul\":17476:17480   */\n      dup3\n        /* \"#utility.yul\":17470:17481   */\n      sload\n        /* \"#utility.yul\":17444:17482   */\n      tag_69\n      jump\t// in\n    tag_345:\n        /* \"#utility.yul\":17529:17596   */\n      tag_346\n        /* \"#utility.yul\":17589:17595   */\n      dup3\n        /* \"#utility.yul\":17581:17587   */\n      dup3\n        /* \"#utility.yul\":17575:17579   */\n      dup6\n        /* \"#utility.yul\":17529:17596   */\n      tag_152\n      jump\t// in\n    tag_346:\n        /* \"#utility.yul\":17623:17624   */\n      0x00\n        /* \"#utility.yul\":17652:17654   */\n      0x1f\n        /* \"#utility.yul\":17644:17650   */\n      dup4\n        /* \"#utility.yul\":17641:17655   */\n      gt\n        /* \"#utility.yul\":17669:17670   */\n      0x01\n        /* \"#utility.yul\":17664:18336   */\n      dup2\n      eq\n      tag_348\n      jumpi\n        /* \"#utility.yul\":18380:18381   */\n      0x00\n        /* \"#utility.yul\":18397:18403   */\n      dup5\n        /* \"#utility.yul\":18394:18471   */\n      iszero\n      tag_349\n      jumpi\n        /* \"#utility.yul\":18446:18455   */\n      dup3\n        /* \"#utility.yul\":18441:18444   */\n      dup8\n        /* \"#utility.yul\":18437:18456   */\n      add\n        /* \"#utility.yul\":18431:18457   */\n      sload\n        /* \"#utility.yul\":18422:18457   */\n      swap1\n      pop\n        /* \"#utility.yul\":18394:18471   */\n    tag_349:\n        /* \"#utility.yul\":18497:18564   */\n      tag_350\n        /* \"#utility.yul\":18557:18563   */\n      dup6\n        /* \"#utility.yul\":18550:18555   */\n      dup3\n        /* \"#utility.yul\":18497:18564   */\n      tag_155\n      jump\t// in\n    tag_350:\n        /* \"#utility.yul\":18491:18495   */\n      dup7\n        /* \"#utility.yul\":18484:18565   */\n      sstore\n        /* \"#utility.yul\":18353:18575   */\n      pop\n        /* \"#utility.yul\":17634:18575   */\n      jump(tag_347)\n        /* \"#utility.yul\":17664:18336   */\n    tag_348:\n        /* \"#utility.yul\":17716:17720   */\n      0x1f\n        /* \"#utility.yul\":17712:17721   */\n      not\n        /* \"#utility.yul\":17704:17710   */\n      dup5\n        /* \"#utility.yul\":17700:17722   */\n      and\n        /* \"#utility.yul\":17742:17778   */\n      tag_351\n        /* \"#utility.yul\":17774:17777   */\n      dup8\n        /* \"#utility.yul\":17742:17778   */\n      tag_141\n      jump\t// in\n    tag_351:\n        /* \"#utility.yul\":17735:17778   */\n      swap7\n      pop\n        /* \"#utility.yul\":17805:17842   */\n      tag_352\n        /* \"#utility.yul\":17837:17841   */\n      dup7\n        /* \"#utility.yul\":17805:17842   */\n      tag_141\n      jump\t// in\n    tag_352:\n        /* \"#utility.yul\":17864:17865   */\n      0x00\n        /* \"#utility.yul\":17878:18085   */\n    tag_353:\n        /* \"#utility.yul\":17892:17899   */\n      dup3\n        /* \"#utility.yul\":17889:17890   */\n      dup2\n        /* \"#utility.yul\":17886:17900   */\n      lt\n        /* \"#utility.yul\":17878:18085   */\n      iszero\n      tag_355\n      jumpi\n        /* \"#utility.yul\":17971:17980   */\n      dup5\n        /* \"#utility.yul\":17966:17969   */\n      dup10\n        /* \"#utility.yul\":17962:17981   */\n      add\n        /* \"#utility.yul\":17956:17982   */\n      sload\n        /* \"#utility.yul\":17948:17954   */\n      dup3\n        /* \"#utility.yul\":17941:17983   */\n      sstore\n        /* \"#utility.yul\":18022:18023   */\n      0x01\n        /* \"#utility.yul\":18014:18020   */\n      dup3\n        /* \"#utility.yul\":18010:18024   */\n      add\n        /* \"#utility.yul\":18000:18024   */\n      swap2\n      pop\n        /* \"#utility.yul\":18069:18070   */\n      0x01\n        /* \"#utility.yul\":18058:18067   */\n      dup6\n        /* \"#utility.yul\":18054:18071   */\n      add\n        /* \"#utility.yul\":18041:18071   */\n      swap5\n      pop\n        /* \"#utility.yul\":17915:17919   */\n      0x20\n        /* \"#utility.yul\":17912:17913   */\n      dup2\n        /* \"#utility.yul\":17908:17920   */\n      add\n        /* \"#utility.yul\":17903:17920   */\n      swap1\n      pop\n        /* \"#utility.yul\":17878:18085   */\n      jump(tag_353)\n    tag_355:\n        /* \"#utility.yul\":18113:18119   */\n      dup7\n        /* \"#utility.yul\":18104:18111   */\n      dup4\n        /* \"#utility.yul\":18101:18120   */\n      lt\n        /* \"#utility.yul\":18098:18277   */\n      iszero\n      tag_356\n      jumpi\n        /* \"#utility.yul\":18171:18180   */\n      dup5\n        /* \"#utility.yul\":18166:18169   */\n      dup10\n        /* \"#utility.yul\":18162:18181   */\n      add\n        /* \"#utility.yul\":18156:18182   */\n      sload\n        /* \"#utility.yul\":18214:18262   */\n      tag_357\n        /* \"#utility.yul\":18256:18260   */\n      0x1f\n        /* \"#utility.yul\":18248:18254   */\n      dup10\n        /* \"#utility.yul\":18244:18261   */\n      and\n        /* \"#utility.yul\":18233:18242   */\n      dup3\n        /* \"#utility.yul\":18214:18262   */\n      tag_154\n      jump\t// in\n    tag_357:\n        /* \"#utility.yul\":18206:18212   */\n      dup4\n        /* \"#utility.yul\":18199:18263   */\n      sstore\n        /* \"#utility.yul\":18121:18277   */\n      pop\n        /* \"#utility.yul\":18098:18277   */\n    tag_356:\n        /* \"#utility.yul\":18323:18324   */\n      0x01\n        /* \"#utility.yul\":18319:18320   */\n      0x02\n        /* \"#utility.yul\":18311:18317   */\n      dup9\n        /* \"#utility.yul\":18307:18321   */\n      mul\n        /* \"#utility.yul\":18303:18325   */\n      add\n        /* \"#utility.yul\":18297:18301   */\n      dup9\n        /* \"#utility.yul\":18290:18326   */\n      sstore\n        /* \"#utility.yul\":17671:18336   */\n      pop\n      pop\n      pop\n        /* \"#utility.yul\":17634:18575   */\n    tag_347:\n      pop\n        /* \"#utility.yul\":17219:18581   */\n      pop\n      pop\n      pop\n        /* \"#utility.yul\":17130:18581   */\n      pop\n      pop\n    tag_340:\n      jump\t// out\n        /* \"#utility.yul\":18587:18767   */\n    tag_60:\n        /* \"#utility.yul\":18635:18712   */\n      0x4e487b7100000000000000000000000000000000000000000000000000000000\n        /* \"#utility.yul\":18632:18633   */\n      0x00\n        /* \"#utility.yul\":18625:18713   */\n      mstore\n        /* \"#utility.yul\":18732:18736   */\n      0x31\n        /* \"#utility.yul\":18729:18730   */\n      0x04\n        /* \"#utility.yul\":18722:18737   */\n      mstore\n        /* \"#utility.yul\":18756:18760   */\n      0x24\n        /* \"#utility.yul\":18753:18754   */\n      0x00\n        /* \"#utility.yul\":18746:18761   */\n      revert\n        /* \"#utility.yul\":18773:19105   */\n    tag_65:\n        /* \"#utility.yul\":18894:18898   */\n      0x00\n        /* \"#utility.yul\":18932:18934   */\n      0x40\n        /* \"#utility.yul\":18921:18930   */\n      dup3\n        /* \"#utility.yul\":18917:18935   */\n      add\n        /* \"#utility.yul\":18909:18935   */\n      swap1\n      pop\n        /* \"#utility.yul\":18945:19016   */\n      tag_360\n        /* \"#utility.yul\":19013:19014   */\n      0x00\n        /* \"#utility.yul\":19002:19011   */\n      dup4\n        /* \"#utility.yul\":18998:19015   */\n      add\n        /* \"#utility.yul\":18989:18995   */\n      dup6\n        /* \"#utility.yul\":18945:19016   */\n      tag_121\n      jump\t// in\n    tag_360:\n        /* \"#utility.yul\":19026:19098   */\n      tag_361\n        /* \"#utility.yul\":19094:19096   */\n      0x20\n        /* \"#utility.yul\":19083:19092   */\n      dup4\n        /* \"#utility.yul\":19079:19097   */\n      add\n        /* \"#utility.yul\":19070:19076   */\n      dup5\n        /* \"#utility.yul\":19026:19098   */\n      tag_128\n      jump\t// in\n    tag_361:\n        /* \"#utility.yul\":18773:19105   */\n      swap4\n      swap3\n      pop\n      pop\n      pop\n      jump\t// out\n\n    auxdata: 0xa26469706673582212204d5bbf2f7e48e8387ccee1d5006f103ccd7cb1068d3d9f4e18261d938d3e8f8764736f6c634300081a0033\n}\n",
				"bytecode": {
					"linkReferences": {},
					"object": "6080604052348015600e575f80fd5b506113528061001c5f395ff3fe608060405234801561000f575f80fd5b5060043610610055575f3560e01c8063474a0e38146100595780634c9b56fd14610075578063aeda852f14610091578063f45fec22146100c3578063fd5f33ec146100df575b5f80fd5b610073600480360381019061006e9190610a52565b6100fd565b005b61008f600480360381019061008a9190610acc565b6102a0565b005b6100ab60048036038101906100a69190610acc565b610530565b6040516100ba93929190610ba5565b60405180910390f35b6100dd60048036038101906100d89190610be1565b61060a565b005b6100e7610763565b6040516100f49190610da9565b60405180910390f35b5f60405180606001604052805f5481526020018381526020013373ffffffffffffffffffffffffffffffffffffffff168152509050600181908060018154018082558091505060019003905f5260205f2090600302015f909190919091505f820151815f015560208201518160010190816101789190610fc3565b506040820151816002015f6101000a81548173ffffffffffffffffffffffffffffffffffffffff021916908373ffffffffffffffffffffffffffffffffffffffff16021790555050503360025f805481526020019081526020015f205f6101000a81548173ffffffffffffffffffffffffffffffffffffffff021916908373ffffffffffffffffffffffffffffffffffffffff1602179055507fec90e5000827f4c5100c213857beadaf3398ee1c88028f5d10010307f90ea10c815f0151826020015160025f855f015181526020019081526020015f205f9054906101000a900473ffffffffffffffffffffffffffffffffffffffff1660405161027e93929190610ba5565b60405180910390a15f80815480929190610297906110bf565b91905055505050565b60025f8281526020019081526020015f205f9054906101000a900473ffffffffffffffffffffffffffffffffffffffff1673ffffffffffffffffffffffffffffffffffffffff163373ffffffffffffffffffffffffffffffffffffffff161461033e576040517f08c379a000000000000000000000000000000000000000000000000000000000815260040161033590611150565b60405180910390fd5b5f5b6001805490508110156104c05781600182815481106103625761036161116e565b5b905f5260205f2090600302015f0154036104b3576001808080549050610388919061119b565b815481106103995761039861116e565b5b905f5260205f209060030201600182815481106103b9576103b861116e565b5b905f5260205f2090600302015f820154815f0155600182018160010190816103e191906111e3565b50600282015f9054906101000a900473ffffffffffffffffffffffffffffffffffffffff16816002015f6101000a81548173ffffffffffffffffffffffffffffffffffffffff021916908373ffffffffffffffffffffffffffffffffffffffff160217905550905050600180548061045c5761045b6112c8565b5b600190038181905f5260205f2090600302015f8082015f9055600182015f61048491906108ad565b600282015f6101000a81549073ffffffffffffffffffffffffffffffffffffffff0219169055505090556104c0565b8080600101915050610340565b5060025f8281526020019081526020015f205f6101000a81549073ffffffffffffffffffffffffffffffffffffffff02191690557f86839e11666b3d11048312755ff196577ccfb2eb8634833a34285c483e22d4ed81336040516105259291906112f5565b60405180910390a150565b6001818154811061053f575f80fd5b905f5260205f2090600302015f91509050805f01549080600101805461056490610df6565b80601f016020809104026020016040519081016040528092919081815260200182805461059090610df6565b80156105db5780601f106105b2576101008083540402835291602001916105db565b820191905f5260205f20905b8154815290600101906020018083116105be57829003601f168201915b505050505090806002015f9054906101000a900473ffffffffffffffffffffffffffffffffffffffff16905083565b60025f8381526020019081526020015f205f9054906101000a900473ffffffffffffffffffffffffffffffffffffffff1673ffffffffffffffffffffffffffffffffffffffff163373ffffffffffffffffffffffffffffffffffffffff16146106a8576040517f08c379a000000000000000000000000000000000000000000000000000000000815260040161069f90611150565b60405180910390fd5b5f5b6001805490508110156107235782600182815481106106cc576106cb61116e565b5b905f5260205f2090600302015f0154036107165781600182815481106106f5576106f461116e565b5b905f5260205f20906003020160010190816107109190610fc3565b50610723565b80806001019150506106aa565b507fde3f4946a429411950eb0fd1d7c91c8f44b84b8ae778dafd058243c7f234006d82823360405161075793929190610ba5565b60405180910390a15050565b60606001805480602002602001604051908101604052809291908181526020015f905b828210156108a4578382905f5260205f2090600302016040518060600160405290815f82015481526020016001820180546107c090610df6565b80601f01602080910402602001604051908101604052809291908181526020018280546107ec90610df6565b80156108375780601f1061080e57610100808354040283529160200191610837565b820191905f5260205f20905b81548152906001019060200180831161081a57829003601f168201915b50505050508152602001600282015f9054906101000a900473ffffffffffffffffffffffffffffffffffffffff1673ffffffffffffffffffffffffffffffffffffffff1673ffffffffffffffffffffffffffffffffffffffff168152505081526020019060010190610786565b50505050905090565b5080546108b990610df6565b5f825580601f106108ca57506108e7565b601f0160209004905f5260205f20908101906108e691906108ea565b5b50565b5b80821115610901575f815f9055506001016108eb565b5090565b5f604051905090565b5f80fd5b5f80fd5b5f80fd5b5f80fd5b5f601f19601f8301169050919050565b7f4e487b71000000000000000000000000000000000000000000000000000000005f52604160045260245ffd5b6109648261091e565b810181811067ffffffffffffffff821117156109835761098261092e565b5b80604052505050565b5f610995610905565b90506109a1828261095b565b919050565b5f67ffffffffffffffff8211156109c0576109bf61092e565b5b6109c98261091e565b9050602081019050919050565b828183375f83830152505050565b5f6109f66109f1846109a6565b61098c565b905082815260208101848484011115610a1257610a1161091a565b5b610a1d8482856109d6565b509392505050565b5f82601f830112610a3957610a38610916565b5b8135610a498482602086016109e4565b91505092915050565b5f60208284031215610a6757610a6661090e565b5b5f82013567ffffffffffffffff811115610a8457610a83610912565b5b610a9084828501610a25565b91505092915050565b5f819050919050565b610aab81610a99565b8114610ab5575f80fd5b50565b5f81359050610ac681610aa2565b92915050565b5f60208284031215610ae157610ae061090e565b5b5f610aee84828501610ab8565b91505092915050565b610b0081610a99565b82525050565b5f81519050919050565b5f82825260208201905092915050565b8281835e5f83830152505050565b5f610b3882610b06565b610b428185610b10565b9350610b52818560208601610b20565b610b5b8161091e565b840191505092915050565b5f73ffffffffffffffffffffffffffffffffffffffff82169050919050565b5f610b8f82610b66565b9050919050565b610b9f81610b85565b82525050565b5f606082019050610bb85f830186610af7565b8181036020830152610bca8185610b2e565b9050610bd96040830184610b96565b949350505050565b5f8060408385031215610bf757610bf661090e565b5b5f610c0485828601610ab8565b925050602083013567ffffffffffffffff811115610c2557610c24610912565b5b610c3185828601610a25565b9150509250929050565b5f81519050919050565b5f82825260208201905092915050565b5f819050602082019050919050565b610c6d81610a99565b82525050565b5f82825260208201905092915050565b5f610c8d82610b06565b610c978185610c73565b9350610ca7818560208601610b20565b610cb08161091e565b840191505092915050565b610cc481610b85565b82525050565b5f606083015f830151610cdf5f860182610c64565b5060208301518482036020860152610cf78282610c83565b9150506040830151610d0c6040860182610cbb565b508091505092915050565b5f610d228383610cca565b905092915050565b5f602082019050919050565b5f610d4082610c3b565b610d4a8185610c45565b935083602082028501610d5c85610c55565b805f5b85811015610d975784840389528151610d788582610d17565b9450610d8383610d2a565b925060208a01995050600181019050610d5f565b50829750879550505050505092915050565b5f6020820190508181035f830152610dc18184610d36565b905092915050565b7f4e487b71000000000000000000000000000000000000000000000000000000005f52602260045260245ffd5b5f6002820490506001821680610e0d57607f821691505b602082108103610e2057610e1f610dc9565b5b50919050565b5f819050815f5260205f209050919050565b5f6020601f8301049050919050565b5f82821b905092915050565b5f60088302610e827fffffffffffffffffffffffffffffffffffffffffffffffffffffffffffffffff82610e47565b610e8c8683610e47565b95508019841693508086168417925050509392505050565b5f819050919050565b5f610ec7610ec2610ebd84610a99565b610ea4565b610a99565b9050919050565b5f819050919050565b610ee083610ead565b610ef4610eec82610ece565b848454610e53565b825550505050565b5f90565b610f08610efc565b610f13818484610ed7565b505050565b5b81811015610f3657610f2b5f82610f00565b600181019050610f19565b5050565b601f821115610f7b57610f4c81610e26565b610f5584610e38565b81016020851015610f64578190505b610f78610f7085610e38565b830182610f18565b50505b505050565b5f82821c905092915050565b5f610f9b5f1984600802610f80565b1980831691505092915050565b5f610fb38383610f8c565b9150826002028217905092915050565b610fcc82610b06565b67ffffffffffffffff811115610fe557610fe461092e565b5b610fef8254610df6565b610ffa828285610f3a565b5f60209050601f83116001811461102b575f8415611019578287015190505b6110238582610fa8565b86555061108a565b601f19841661103986610e26565b5f5b828110156110605784890151825560018201915060208501945060208101905061103b565b8683101561107d5784890151611079601f891682610f8c565b8355505b6001600288020188555050505b505050505050565b7f4e487b71000000000000000000000000000000000000000000000000000000005f52601160045260245ffd5b5f6110c982610a99565b91507fffffffffffffffffffffffffffffffffffffffffffffffffffffffffffffffff82036110fb576110fa611092565b5b600182019050919050565b7f42616e206b686f6e672070686169206c6120636875206e6861000000000000005f82015250565b5f61113a601983610b10565b915061114582611106565b602082019050919050565b5f6020820190508181035f8301526111678161112e565b9050919050565b7f4e487b71000000000000000000000000000000000000000000000000000000005f52603260045260245ffd5b5f6111a582610a99565b91506111b083610a99565b92508282039050818111156111c8576111c7611092565b5b92915050565b5f815490506111dc81610df6565b9050919050565b8181036111f15750506112c6565b6111fa826111ce565b67ffffffffffffffff8111156112135761121261092e565b5b61121d8254610df6565b611228828285610f3a565b5f601f831160018114611255575f8415611243578287015490505b61124d8582610fa8565b8655506112bf565b601f19841661126387610e26565b965061126e86610e26565b5f5b8281101561129557848901548255600182019150600185019450602081019050611270565b868310156112b257848901546112ae601f891682610f8c565b8355505b6001600288020188555050505b5050505050505b565b7f4e487b71000000000000000000000000000000000000000000000000000000005f52603160045260245ffd5b5f6040820190506113085f830185610af7565b6113156020830184610b96565b939250505056fea26469706673582212204d5bbf2f7e48e8387ccee1d5006f103ccd7cb1068d3d9f4e18261d938d3e8f8764736f6c634300081a0033",
					"opcodes": "PUSH1 0x80 PUSH1 0x40 MSTORE CALLVALUE DUP1 ISZERO PUSH1 0xE JUMPI PUSH0 DUP1 REVERT JUMPDEST POP PUSH2 0x1352 DUP1 PUSH2 0x1C PUSH0 CODECOPY PUSH0 RETURN INVALID PUSH1 0x80 PUSH1 0x40 MSTORE CALLVALUE DUP1 ISZERO PUSH2 0xF JUMPI PUSH0 DUP1 REVERT JUMPDEST POP PUSH1 0x4 CALLDATASIZE LT PUSH2 0x55 JUMPI PUSH0 CALLDATALOAD PUSH1 0xE0 SHR DUP1 PUSH4 0x474A0E38 EQ PUSH2 0x59 JUMPI DUP1 PUSH4 0x4C9B56FD EQ PUSH2 0x75 JUMPI DUP1 PUSH4 0xAEDA852F EQ PUSH2 0x91 JUMPI DUP1 PUSH4 0xF45FEC22 EQ PUSH2 0xC3 JUMPI DUP1 PUSH4 0xFD5F33EC EQ PUSH2 0xDF JUMPI JUMPDEST PUSH0 DUP1 REVERT JUMPDEST PUSH2 0x73 PUSH1 0x4 DUP1 CALLDATASIZE SUB DUP2 ADD SWAP1 PUSH2 0x6E SWAP2 SWAP1 PUSH2 0xA52 JUMP JUMPDEST PUSH2 0xFD JUMP JUMPDEST STOP JUMPDEST PUSH2 0x8F PUSH1 0x4 DUP1 CALLDATASIZE SUB DUP2 ADD SWAP1 PUSH2 0x8A SWAP2 SWAP1 PUSH2 0xACC JUMP JUMPDEST PUSH2 0x2A0 JUMP JUMPDEST STOP JUMPDEST PUSH2 0xAB PUSH1 0x4 DUP1 CALLDATASIZE SUB DUP2 ADD SWAP1 PUSH2 0xA6 SWAP2 SWAP1 PUSH2 0xACC JUMP JUMPDEST PUSH2 0x530 JUMP JUMPDEST PUSH1 0x40 MLOAD PUSH2 0xBA SWAP4 SWAP3 SWAP2 SWAP1 PUSH2 0xBA5 JUMP JUMPDEST PUSH1 0x40 MLOAD DUP1 SWAP2 SUB SWAP1 RETURN JUMPDEST PUSH2 0xDD PUSH1 0x4 DUP1 CALLDATASIZE SUB DUP2 ADD SWAP1 PUSH2 0xD8 SWAP2 SWAP1 PUSH2 0xBE1 JUMP JUMPDEST PUSH2 0x60A JUMP JUMPDEST STOP JUMPDEST PUSH2 0xE7 PUSH2 0x763 JUMP JUMPDEST PUSH1 0x40 MLOAD PUSH2 0xF4 SWAP2 SWAP1 PUSH2 0xDA9 JUMP JUMPDEST PUSH1 0x40 MLOAD DUP1 SWAP2 SUB SWAP1 RETURN JUMPDEST PUSH0 PUSH1 0x40 MLOAD DUP1 PUSH1 0x60 ADD PUSH1 0x40 MSTORE DUP1 PUSH0 SLOAD DUP2 MSTORE PUSH1 0x20 ADD DUP4 DUP2 MSTORE PUSH1 0x20 ADD CALLER PUSH20 0xFFFFFFFFFFFFFFFFFFFFFFFFFFFFFFFFFFFFFFFF AND DUP2 MSTORE POP SWAP1 POP PUSH1 0x1 DUP2 SWAP1 DUP1 PUSH1 0x1 DUP2 SLOAD ADD DUP1 DUP3 SSTORE DUP1 SWAP2 POP POP PUSH1 0x1 SWAP1 SUB SWAP1 PUSH0 MSTORE PUSH1 0x20 PUSH0 KECCAK256 SWAP1 PUSH1 0x3 MUL ADD PUSH0 SWAP1 SWAP2 SWAP1 SWAP2 SWAP1 SWAP2 POP PUSH0 DUP3 ADD MLOAD DUP2 PUSH0 ADD SSTORE PUSH1 0x20 DUP3 ADD MLOAD DUP2 PUSH1 0x1 ADD SWAP1 DUP2 PUSH2 0x178 SWAP2 SWAP1 PUSH2 0xFC3 JUMP JUMPDEST POP PUSH1 0x40 DUP3 ADD MLOAD DUP2 PUSH1 0x2 ADD PUSH0 PUSH2 0x100 EXP DUP2 SLOAD DUP2 PUSH20 0xFFFFFFFFFFFFFFFFFFFFFFFFFFFFFFFFFFFFFFFF MUL NOT AND SWAP1 DUP4 PUSH20 0xFFFFFFFFFFFFFFFFFFFFFFFFFFFFFFFFFFFFFFFF AND MUL OR SWAP1 SSTORE POP POP POP CALLER PUSH1 0x2 PUSH0 DUP1 SLOAD DUP2 MSTORE PUSH1 0x20 ADD SWAP1 DUP2 MSTORE PUSH1 0x20 ADD PUSH0 KECCAK256 PUSH0 PUSH2 0x100 EXP DUP2 SLOAD DUP2 PUSH20 0xFFFFFFFFFFFFFFFFFFFFFFFFFFFFFFFFFFFFFFFF MUL NOT AND SWAP1 DUP4 PUSH20 0xFFFFFFFFFFFFFFFFFFFFFFFFFFFFFFFFFFFFFFFF AND MUL OR SWAP1 SSTORE POP PUSH32 0xEC90E5000827F4C5100C213857BEADAF3398EE1C88028F5D10010307F90EA10C DUP2 PUSH0 ADD MLOAD DUP3 PUSH1 0x20 ADD MLOAD PUSH1 0x2 PUSH0 DUP6 PUSH0 ADD MLOAD DUP2 MSTORE PUSH1 0x20 ADD SWAP1 DUP2 MSTORE PUSH1 0x20 ADD PUSH0 KECCAK256 PUSH0 SWAP1 SLOAD SWAP1 PUSH2 0x100 EXP SWAP1 DIV PUSH20 0xFFFFFFFFFFFFFFFFFFFFFFFFFFFFFFFFFFFFFFFF AND PUSH1 0x40 MLOAD PUSH2 0x27E SWAP4 SWAP3 SWAP2 SWAP1 PUSH2 0xBA5 JUMP JUMPDEST PUSH1 0x40 MLOAD DUP1 SWAP2 SUB SWAP1 LOG1 PUSH0 DUP1 DUP2 SLOAD DUP1 SWAP3 SWAP2 SWAP1 PUSH2 0x297 SWAP1 PUSH2 0x10BF JUMP JUMPDEST SWAP2 SWAP1 POP SSTORE POP POP POP JUMP JUMPDEST PUSH1 0x2 PUSH0 DUP3 DUP2 MSTORE PUSH1 0x20 ADD SWAP1 DUP2 MSTORE PUSH1 0x20 ADD PUSH0 KECCAK256 PUSH0 SWAP1 SLOAD SWAP1 PUSH2 0x100 EXP SWAP1 DIV PUSH20 0xFFFFFFFFFFFFFFFFFFFFFFFFFFFFFFFFFFFFFFFF AND PUSH20 0xFFFFFFFFFFFFFFFFFFFFFFFFFFFFFFFFFFFFFFFF AND CALLER PUSH20 0xFFFFFFFFFFFFFFFFFFFFFFFFFFFFFFFFFFFFFFFF AND EQ PUSH2 0x33E JUMPI PUSH1 0x40 MLOAD PUSH32 0x8C379A000000000000000000000000000000000000000000000000000000000 DUP2 MSTORE PUSH1 0x4 ADD PUSH2 0x335 SWAP1 PUSH2 0x1150 JUMP JUMPDEST PUSH1 0x40 MLOAD DUP1 SWAP2 SUB SWAP1 REVERT JUMPDEST PUSH0 JUMPDEST PUSH1 0x1 DUP1 SLOAD SWAP1 POP DUP2 LT ISZERO PUSH2 0x4C0 JUMPI DUP2 PUSH1 0x1 DUP3 DUP2 SLOAD DUP2 LT PUSH2 0x362 JUMPI PUSH2 0x361 PUSH2 0x116E JUMP JUMPDEST JUMPDEST SWAP1 PUSH0 MSTORE PUSH1 0x20 PUSH0 KECCAK256 SWAP1 PUSH1 0x3 MUL ADD PUSH0 ADD SLOAD SUB PUSH2 0x4B3 JUMPI PUSH1 0x1 DUP1 DUP1 DUP1 SLOAD SWAP1 POP PUSH2 0x388 SWAP2 SWAP1 PUSH2 0x119B JUMP JUMPDEST DUP2 SLOAD DUP2 LT PUSH2 0x399 JUMPI PUSH2 0x398 PUSH2 0x116E JUMP JUMPDEST JUMPDEST SWAP1 PUSH0 MSTORE PUSH1 0x20 PUSH0 KECCAK256 SWAP1 PUSH1 0x3 MUL ADD PUSH1 0x1 DUP3 DUP2 SLOAD DUP2 LT PUSH2 0x3B9 JUMPI PUSH2 0x3B8 PUSH2 0x116E JUMP JUMPDEST JUMPDEST SWAP1 PUSH0 MSTORE PUSH1 0x20 PUSH0 KECCAK256 SWAP1 PUSH1 0x3 MUL ADD PUSH0 DUP3 ADD SLOAD DUP2 PUSH0 ADD SSTORE PUSH1 0x1 DUP3 ADD DUP2 PUSH1 0x1 ADD SWAP1 DUP2 PUSH2 0x3E1 SWAP2 SWAP1 PUSH2 0x11E3 JUMP JUMPDEST POP PUSH1 0x2 DUP3 ADD PUSH0 SWAP1 SLOAD SWAP1 PUSH2 0x100 EXP SWAP1 DIV PUSH20 0xFFFFFFFFFFFFFFFFFFFFFFFFFFFFFFFFFFFFFFFF AND DUP2 PUSH1 0x2 ADD PUSH0 PUSH2 0x100 EXP DUP2 SLOAD DUP2 PUSH20 0xFFFFFFFFFFFFFFFFFFFFFFFFFFFFFFFFFFFFFFFF MUL NOT AND SWAP1 DUP4 PUSH20 0xFFFFFFFFFFFFFFFFFFFFFFFFFFFFFFFFFFFFFFFF AND MUL OR SWAP1 SSTORE POP SWAP1 POP POP PUSH1 0x1 DUP1 SLOAD DUP1 PUSH2 0x45C JUMPI PUSH2 0x45B PUSH2 0x12C8 JUMP JUMPDEST JUMPDEST PUSH1 0x1 SWAP1 SUB DUP2 DUP2 SWAP1 PUSH0 MSTORE PUSH1 0x20 PUSH0 KECCAK256 SWAP1 PUSH1 0x3 MUL ADD PUSH0 DUP1 DUP3 ADD PUSH0 SWAP1 SSTORE PUSH1 0x1 DUP3 ADD PUSH0 PUSH2 0x484 SWAP2 SWAP1 PUSH2 0x8AD JUMP JUMPDEST PUSH1 0x2 DUP3 ADD PUSH0 PUSH2 0x100 EXP DUP2 SLOAD SWAP1 PUSH20 0xFFFFFFFFFFFFFFFFFFFFFFFFFFFFFFFFFFFFFFFF MUL NOT AND SWAP1 SSTORE POP POP SWAP1 SSTORE PUSH2 0x4C0 JUMP JUMPDEST DUP1 DUP1 PUSH1 0x1 ADD SWAP2 POP POP PUSH2 0x340 JUMP JUMPDEST POP PUSH1 0x2 PUSH0 DUP3 DUP2 MSTORE PUSH1 0x20 ADD SWAP1 DUP2 MSTORE PUSH1 0x20 ADD PUSH0 KECCAK256 PUSH0 PUSH2 0x100 EXP DUP2 SLOAD SWAP1 PUSH20 0xFFFFFFFFFFFFFFFFFFFFFFFFFFFFFFFFFFFFFFFF MUL NOT AND SWAP1 SSTORE PUSH32 0x86839E11666B3D11048312755FF196577CCFB2EB8634833A34285C483E22D4ED DUP2 CALLER PUSH1 0x40 MLOAD PUSH2 0x525 SWAP3 SWAP2 SWAP1 PUSH2 0x12F5 JUMP JUMPDEST PUSH1 0x40 MLOAD DUP1 SWAP2 SUB SWAP1 LOG1 POP JUMP JUMPDEST PUSH1 0x1 DUP2 DUP2 SLOAD DUP2 LT PUSH2 0x53F JUMPI PUSH0 DUP1 REVERT JUMPDEST SWAP1 PUSH0 MSTORE PUSH1 0x20 PUSH0 KECCAK256 SWAP1 PUSH1 0x3 MUL ADD PUSH0 SWAP2 POP SWAP1 POP DUP1 PUSH0 ADD SLOAD SWAP1 DUP1 PUSH1 0x1 ADD DUP1 SLOAD PUSH2 0x564 SWAP1 PUSH2 0xDF6 JUMP JUMPDEST DUP1 PUSH1 0x1F ADD PUSH1 0x20 DUP1 SWAP2 DIV MUL PUSH1 0x20 ADD PUSH1 0x40 MLOAD SWAP1 DUP2 ADD PUSH1 0x40 MSTORE DUP1 SWAP3 SWAP2 SWAP1 DUP2 DUP2 MSTORE PUSH1 0x20 ADD DUP3 DUP1 SLOAD PUSH2 0x590 SWAP1 PUSH2 0xDF6 JUMP JUMPDEST DUP1 ISZERO PUSH2 0x5DB JUMPI DUP1 PUSH1 0x1F LT PUSH2 0x5B2 JUMPI PUSH2 0x100 DUP1 DUP4 SLOAD DIV MUL DUP4 MSTORE SWAP2 PUSH1 0x20 ADD SWAP2 PUSH2 0x5DB JUMP JUMPDEST DUP3 ADD SWAP2 SWAP1 PUSH0 MSTORE PUSH1 0x20 PUSH0 KECCAK256 SWAP1 JUMPDEST DUP2 SLOAD DUP2 MSTORE SWAP1 PUSH1 0x1 ADD SWAP1 PUSH1 0x20 ADD DUP1 DUP4 GT PUSH2 0x5BE JUMPI DUP3 SWAP1 SUB PUSH1 0x1F AND DUP3 ADD SWAP2 JUMPDEST POP POP POP POP POP SWAP1 DUP1 PUSH1 0x2 ADD PUSH0 SWAP1 SLOAD SWAP1 PUSH2 0x100 EXP SWAP1 DIV PUSH20 0xFFFFFFFFFFFFFFFFFFFFFFFFFFFFFFFFFFFFFFFF AND SWAP1 POP DUP4 JUMP JUMPDEST PUSH1 0x2 PUSH0 DUP4 DUP2 MSTORE PUSH1 0x20 ADD SWAP1 DUP2 MSTORE PUSH1 0x20 ADD PUSH0 KECCAK256 PUSH0 SWAP1 SLOAD SWAP1 PUSH2 0x100 EXP SWAP1 DIV PUSH20 0xFFFFFFFFFFFFFFFFFFFFFFFFFFFFFFFFFFFFFFFF AND PUSH20 0xFFFFFFFFFFFFFFFFFFFFFFFFFFFFFFFFFFFFFFFF AND CALLER PUSH20 0xFFFFFFFFFFFFFFFFFFFFFFFFFFFFFFFFFFFFFFFF AND EQ PUSH2 0x6A8 JUMPI PUSH1 0x40 MLOAD PUSH32 0x8C379A000000000000000000000000000000000000000000000000000000000 DUP2 MSTORE PUSH1 0x4 ADD PUSH2 0x69F SWAP1 PUSH2 0x1150 JUMP JUMPDEST PUSH1 0x40 MLOAD DUP1 SWAP2 SUB SWAP1 REVERT JUMPDEST PUSH0 JUMPDEST PUSH1 0x1 DUP1 SLOAD SWAP1 POP DUP2 LT ISZERO PUSH2 0x723 JUMPI DUP3 PUSH1 0x1 DUP3 DUP2 SLOAD DUP2 LT PUSH2 0x6CC JUMPI PUSH2 0x6CB PUSH2 0x116E JUMP JUMPDEST JUMPDEST SWAP1 PUSH0 MSTORE PUSH1 0x20 PUSH0 KECCAK256 SWAP1 PUSH1 0x3 MUL ADD PUSH0 ADD SLOAD SUB PUSH2 0x716 JUMPI DUP2 PUSH1 0x1 DUP3 DUP2 SLOAD DUP2 LT PUSH2 0x6F5 JUMPI PUSH2 0x6F4 PUSH2 0x116E JUMP JUMPDEST JUMPDEST SWAP1 PUSH0 MSTORE PUSH1 0x20 PUSH0 KECCAK256 SWAP1 PUSH1 0x3 MUL ADD PUSH1 0x1 ADD SWAP1 DUP2 PUSH2 0x710 SWAP2 SWAP1 PUSH2 0xFC3 JUMP JUMPDEST POP PUSH2 0x723 JUMP JUMPDEST DUP1 DUP1 PUSH1 0x1 ADD SWAP2 POP POP PUSH2 0x6AA JUMP JUMPDEST POP PUSH32 0xDE3F4946A429411950EB0FD1D7C91C8F44B84B8AE778DAFD058243C7F234006D DUP3 DUP3 CALLER PUSH1 0x40 MLOAD PUSH2 0x757 SWAP4 SWAP3 SWAP2 SWAP1 PUSH2 0xBA5 JUMP JUMPDEST PUSH1 0x40 MLOAD DUP1 SWAP2 SUB SWAP1 LOG1 POP POP JUMP JUMPDEST PUSH1 0x60 PUSH1 0x1 DUP1 SLOAD DUP1 PUSH1 0x20 MUL PUSH1 0x20 ADD PUSH1 0x40 MLOAD SWAP1 DUP2 ADD PUSH1 0x40 MSTORE DUP1 SWAP3 SWAP2 SWAP1 DUP2 DUP2 MSTORE PUSH1 0x20 ADD PUSH0 SWAP1 JUMPDEST DUP3 DUP3 LT ISZERO PUSH2 0x8A4 JUMPI DUP4 DUP3 SWAP1 PUSH0 MSTORE PUSH1 0x20 PUSH0 KECCAK256 SWAP1 PUSH1 0x3 MUL ADD PUSH1 0x40 MLOAD DUP1 PUSH1 0x60 ADD PUSH1 0x40 MSTORE SWAP1 DUP2 PUSH0 DUP3 ADD SLOAD DUP2 MSTORE PUSH1 0x20 ADD PUSH1 0x1 DUP3 ADD DUP1 SLOAD PUSH2 0x7C0 SWAP1 PUSH2 0xDF6 JUMP JUMPDEST DUP1 PUSH1 0x1F ADD PUSH1 0x20 DUP1 SWAP2 DIV MUL PUSH1 0x20 ADD PUSH1 0x40 MLOAD SWAP1 DUP2 ADD PUSH1 0x40 MSTORE DUP1 SWAP3 SWAP2 SWAP1 DUP2 DUP2 MSTORE PUSH1 0x20 ADD DUP3 DUP1 SLOAD PUSH2 0x7EC SWAP1 PUSH2 0xDF6 JUMP JUMPDEST DUP1 ISZERO PUSH2 0x837 JUMPI DUP1 PUSH1 0x1F LT PUSH2 0x80E JUMPI PUSH2 0x100 DUP1 DUP4 SLOAD DIV MUL DUP4 MSTORE SWAP2 PUSH1 0x20 ADD SWAP2 PUSH2 0x837 JUMP JUMPDEST DUP3 ADD SWAP2 SWAP1 PUSH0 MSTORE PUSH1 0x20 PUSH0 KECCAK256 SWAP1 JUMPDEST DUP2 SLOAD DUP2 MSTORE SWAP1 PUSH1 0x1 ADD SWAP1 PUSH1 0x20 ADD DUP1 DUP4 GT PUSH2 0x81A JUMPI DUP3 SWAP1 SUB PUSH1 0x1F AND DUP3 ADD SWAP2 JUMPDEST POP POP POP POP POP DUP2 MSTORE PUSH1 0x20 ADD PUSH1 0x2 DUP3 ADD PUSH0 SWAP1 SLOAD SWAP1 PUSH2 0x100 EXP SWAP1 DIV PUSH20 0xFFFFFFFFFFFFFFFFFFFFFFFFFFFFFFFFFFFFFFFF AND PUSH20 0xFFFFFFFFFFFFFFFFFFFFFFFFFFFFFFFFFFFFFFFF AND PUSH20 0xFFFFFFFFFFFFFFFFFFFFFFFFFFFFFFFFFFFFFFFF AND DUP2 MSTORE POP POP DUP2 MSTORE PUSH1 0x20 ADD SWAP1 PUSH1 0x1 ADD SWAP1 PUSH2 0x786 JUMP JUMPDEST POP POP POP POP SWAP1 POP SWAP1 JUMP JUMPDEST POP DUP1 SLOAD PUSH2 0x8B9 SWAP1 PUSH2 0xDF6 JUMP JUMPDEST PUSH0 DUP3 SSTORE DUP1 PUSH1 0x1F LT PUSH2 0x8CA JUMPI POP PUSH2 0x8E7 JUMP JUMPDEST PUSH1 0x1F ADD PUSH1 0x20 SWAP1 DIV SWAP1 PUSH0 MSTORE PUSH1 0x20 PUSH0 KECCAK256 SWAP1 DUP2 ADD SWAP1 PUSH2 0x8E6 SWAP2 SWAP1 PUSH2 0x8EA JUMP JUMPDEST JUMPDEST POP JUMP JUMPDEST JUMPDEST DUP1 DUP3 GT ISZERO PUSH2 0x901 JUMPI PUSH0 DUP2 PUSH0 SWAP1 SSTORE POP PUSH1 0x1 ADD PUSH2 0x8EB JUMP JUMPDEST POP SWAP1 JUMP JUMPDEST PUSH0 PUSH1 0x40 MLOAD SWAP1 POP SWAP1 JUMP JUMPDEST PUSH0 DUP1 REVERT JUMPDEST PUSH0 DUP1 REVERT JUMPDEST PUSH0 DUP1 REVERT JUMPDEST PUSH0 DUP1 REVERT JUMPDEST PUSH0 PUSH1 0x1F NOT PUSH1 0x1F DUP4 ADD AND SWAP1 POP SWAP2 SWAP1 POP JUMP JUMPDEST PUSH32 0x4E487B7100000000000000000000000000000000000000000000000000000000 PUSH0 MSTORE PUSH1 0x41 PUSH1 0x4 MSTORE PUSH1 0x24 PUSH0 REVERT JUMPDEST PUSH2 0x964 DUP3 PUSH2 0x91E JUMP JUMPDEST DUP2 ADD DUP2 DUP2 LT PUSH8 0xFFFFFFFFFFFFFFFF DUP3 GT OR ISZERO PUSH2 0x983 JUMPI PUSH2 0x982 PUSH2 0x92E JUMP JUMPDEST JUMPDEST DUP1 PUSH1 0x40 MSTORE POP POP POP JUMP JUMPDEST PUSH0 PUSH2 0x995 PUSH2 0x905 JUMP JUMPDEST SWAP1 POP PUSH2 0x9A1 DUP3 DUP3 PUSH2 0x95B JUMP JUMPDEST SWAP2 SWAP1 POP JUMP JUMPDEST PUSH0 PUSH8 0xFFFFFFFFFFFFFFFF DUP3 GT ISZERO PUSH2 0x9C0 JUMPI PUSH2 0x9BF PUSH2 0x92E JUMP JUMPDEST JUMPDEST PUSH2 0x9C9 DUP3 PUSH2 0x91E JUMP JUMPDEST SWAP1 POP PUSH1 0x20 DUP2 ADD SWAP1 POP SWAP2 SWAP1 POP JUMP JUMPDEST DUP3 DUP2 DUP4 CALLDATACOPY PUSH0 DUP4 DUP4 ADD MSTORE POP POP POP JUMP JUMPDEST PUSH0 PUSH2 0x9F6 PUSH2 0x9F1 DUP5 PUSH2 0x9A6 JUMP JUMPDEST PUSH2 0x98C JUMP JUMPDEST SWAP1 POP DUP3 DUP2 MSTORE PUSH1 0x20 DUP2 ADD DUP5 DUP5 DUP5 ADD GT ISZERO PUSH2 0xA12 JUMPI PUSH2 0xA11 PUSH2 0x91A JUMP JUMPDEST JUMPDEST PUSH2 0xA1D DUP5 DUP3 DUP6 PUSH2 0x9D6 JUMP JUMPDEST POP SWAP4 SWAP3 POP POP POP JUMP JUMPDEST PUSH0 DUP3 PUSH1 0x1F DUP4 ADD SLT PUSH2 0xA39 JUMPI PUSH2 0xA38 PUSH2 0x916 JUMP JUMPDEST JUMPDEST DUP2 CALLDATALOAD PUSH2 0xA49 DUP5 DUP3 PUSH1 0x20 DUP7 ADD PUSH2 0x9E4 JUMP JUMPDEST SWAP2 POP POP SWAP3 SWAP2 POP POP JUMP JUMPDEST PUSH0 PUSH1 0x20 DUP3 DUP5 SUB SLT ISZERO PUSH2 0xA67 JUMPI PUSH2 0xA66 PUSH2 0x90E JUMP JUMPDEST JUMPDEST PUSH0 DUP3 ADD CALLDATALOAD PUSH8 0xFFFFFFFFFFFFFFFF DUP2 GT ISZERO PUSH2 0xA84 JUMPI PUSH2 0xA83 PUSH2 0x912 JUMP JUMPDEST JUMPDEST PUSH2 0xA90 DUP5 DUP3 DUP6 ADD PUSH2 0xA25 JUMP JUMPDEST SWAP2 POP POP SWAP3 SWAP2 POP POP JUMP JUMPDEST PUSH0 DUP2 SWAP1 POP SWAP2 SWAP1 POP JUMP JUMPDEST PUSH2 0xAAB DUP2 PUSH2 0xA99 JUMP JUMPDEST DUP2 EQ PUSH2 0xAB5 JUMPI PUSH0 DUP1 REVERT JUMPDEST POP JUMP JUMPDEST PUSH0 DUP2 CALLDATALOAD SWAP1 POP PUSH2 0xAC6 DUP2 PUSH2 0xAA2 JUMP JUMPDEST SWAP3 SWAP2 POP POP JUMP JUMPDEST PUSH0 PUSH1 0x20 DUP3 DUP5 SUB SLT ISZERO PUSH2 0xAE1 JUMPI PUSH2 0xAE0 PUSH2 0x90E JUMP JUMPDEST JUMPDEST PUSH0 PUSH2 0xAEE DUP5 DUP3 DUP6 ADD PUSH2 0xAB8 JUMP JUMPDEST SWAP2 POP POP SWAP3 SWAP2 POP POP JUMP JUMPDEST PUSH2 0xB00 DUP2 PUSH2 0xA99 JUMP JUMPDEST DUP3 MSTORE POP POP JUMP JUMPDEST PUSH0 DUP2 MLOAD SWAP1 POP SWAP2 SWAP1 POP JUMP JUMPDEST PUSH0 DUP3 DUP3 MSTORE PUSH1 0x20 DUP3 ADD SWAP1 POP SWAP3 SWAP2 POP POP JUMP JUMPDEST DUP3 DUP2 DUP4 MCOPY PUSH0 DUP4 DUP4 ADD MSTORE POP POP POP JUMP JUMPDEST PUSH0 PUSH2 0xB38 DUP3 PUSH2 0xB06 JUMP JUMPDEST PUSH2 0xB42 DUP2 DUP6 PUSH2 0xB10 JUMP JUMPDEST SWAP4 POP PUSH2 0xB52 DUP2 DUP6 PUSH1 0x20 DUP7 ADD PUSH2 0xB20 JUMP JUMPDEST PUSH2 0xB5B DUP2 PUSH2 0x91E JUMP JUMPDEST DUP5 ADD SWAP2 POP POP SWAP3 SWAP2 POP POP JUMP JUMPDEST PUSH0 PUSH20 0xFFFFFFFFFFFFFFFFFFFFFFFFFFFFFFFFFFFFFFFF DUP3 AND SWAP1 POP SWAP2 SWAP1 POP JUMP JUMPDEST PUSH0 PUSH2 0xB8F DUP3 PUSH2 0xB66 JUMP JUMPDEST SWAP1 POP SWAP2 SWAP1 POP JUMP JUMPDEST PUSH2 0xB9F DUP2 PUSH2 0xB85 JUMP JUMPDEST DUP3 MSTORE POP POP JUMP JUMPDEST PUSH0 PUSH1 0x60 DUP3 ADD SWAP1 POP PUSH2 0xBB8 PUSH0 DUP4 ADD DUP7 PUSH2 0xAF7 JUMP JUMPDEST DUP2 DUP2 SUB PUSH1 0x20 DUP4 ADD MSTORE PUSH2 0xBCA DUP2 DUP6 PUSH2 0xB2E JUMP JUMPDEST SWAP1 POP PUSH2 0xBD9 PUSH1 0x40 DUP4 ADD DUP5 PUSH2 0xB96 JUMP JUMPDEST SWAP5 SWAP4 POP POP POP POP JUMP JUMPDEST PUSH0 DUP1 PUSH1 0x40 DUP4 DUP6 SUB SLT ISZERO PUSH2 0xBF7 JUMPI PUSH2 0xBF6 PUSH2 0x90E JUMP JUMPDEST JUMPDEST PUSH0 PUSH2 0xC04 DUP6 DUP3 DUP7 ADD PUSH2 0xAB8 JUMP JUMPDEST SWAP3 POP POP PUSH1 0x20 DUP4 ADD CALLDATALOAD PUSH8 0xFFFFFFFFFFFFFFFF DUP2 GT ISZERO PUSH2 0xC25 JUMPI PUSH2 0xC24 PUSH2 0x912 JUMP JUMPDEST JUMPDEST PUSH2 0xC31 DUP6 DUP3 DUP7 ADD PUSH2 0xA25 JUMP JUMPDEST SWAP2 POP POP SWAP3 POP SWAP3 SWAP1 POP JUMP JUMPDEST PUSH0 DUP2 MLOAD SWAP1 POP SWAP2 SWAP1 POP JUMP JUMPDEST PUSH0 DUP3 DUP3 MSTORE PUSH1 0x20 DUP3 ADD SWAP1 POP SWAP3 SWAP2 POP POP JUMP JUMPDEST PUSH0 DUP2 SWAP1 POP PUSH1 0x20 DUP3 ADD SWAP1 POP SWAP2 SWAP1 POP JUMP JUMPDEST PUSH2 0xC6D DUP2 PUSH2 0xA99 JUMP JUMPDEST DUP3 MSTORE POP POP JUMP JUMPDEST PUSH0 DUP3 DUP3 MSTORE PUSH1 0x20 DUP3 ADD SWAP1 POP SWAP3 SWAP2 POP POP JUMP JUMPDEST PUSH0 PUSH2 0xC8D DUP3 PUSH2 0xB06 JUMP JUMPDEST PUSH2 0xC97 DUP2 DUP6 PUSH2 0xC73 JUMP JUMPDEST SWAP4 POP PUSH2 0xCA7 DUP2 DUP6 PUSH1 0x20 DUP7 ADD PUSH2 0xB20 JUMP JUMPDEST PUSH2 0xCB0 DUP2 PUSH2 0x91E JUMP JUMPDEST DUP5 ADD SWAP2 POP POP SWAP3 SWAP2 POP POP JUMP JUMPDEST PUSH2 0xCC4 DUP2 PUSH2 0xB85 JUMP JUMPDEST DUP3 MSTORE POP POP JUMP JUMPDEST PUSH0 PUSH1 0x60 DUP4 ADD PUSH0 DUP4 ADD MLOAD PUSH2 0xCDF PUSH0 DUP7 ADD DUP3 PUSH2 0xC64 JUMP JUMPDEST POP PUSH1 0x20 DUP4 ADD MLOAD DUP5 DUP3 SUB PUSH1 0x20 DUP7 ADD MSTORE PUSH2 0xCF7 DUP3 DUP3 PUSH2 0xC83 JUMP JUMPDEST SWAP2 POP POP PUSH1 0x40 DUP4 ADD MLOAD PUSH2 0xD0C PUSH1 0x40 DUP7 ADD DUP3 PUSH2 0xCBB JUMP JUMPDEST POP DUP1 SWAP2 POP POP SWAP3 SWAP2 POP POP JUMP JUMPDEST PUSH0 PUSH2 0xD22 DUP4 DUP4 PUSH2 0xCCA JUMP JUMPDEST SWAP1 POP SWAP3 SWAP2 POP POP JUMP JUMPDEST PUSH0 PUSH1 0x20 DUP3 ADD SWAP1 POP SWAP2 SWAP1 POP JUMP JUMPDEST PUSH0 PUSH2 0xD40 DUP3 PUSH2 0xC3B JUMP JUMPDEST PUSH2 0xD4A DUP2 DUP6 PUSH2 0xC45 JUMP JUMPDEST SWAP4 POP DUP4 PUSH1 0x20 DUP3 MUL DUP6 ADD PUSH2 0xD5C DUP6 PUSH2 0xC55 JUMP JUMPDEST DUP1 PUSH0 JUMPDEST DUP6 DUP2 LT ISZERO PUSH2 0xD97 JUMPI DUP5 DUP5 SUB DUP10 MSTORE DUP2 MLOAD PUSH2 0xD78 DUP6 DUP3 PUSH2 0xD17 JUMP JUMPDEST SWAP5 POP PUSH2 0xD83 DUP4 PUSH2 0xD2A JUMP JUMPDEST SWAP3 POP PUSH1 0x20 DUP11 ADD SWAP10 POP POP PUSH1 0x1 DUP2 ADD SWAP1 POP PUSH2 0xD5F JUMP JUMPDEST POP DUP3 SWAP8 POP DUP8 SWAP6 POP POP POP POP POP POP SWAP3 SWAP2 POP POP JUMP JUMPDEST PUSH0 PUSH1 0x20 DUP3 ADD SWAP1 POP DUP2 DUP2 SUB PUSH0 DUP4 ADD MSTORE PUSH2 0xDC1 DUP2 DUP5 PUSH2 0xD36 JUMP JUMPDEST SWAP1 POP SWAP3 SWAP2 POP POP JUMP JUMPDEST PUSH32 0x4E487B7100000000000000000000000000000000000000000000000000000000 PUSH0 MSTORE PUSH1 0x22 PUSH1 0x4 MSTORE PUSH1 0x24 PUSH0 REVERT JUMPDEST PUSH0 PUSH1 0x2 DUP3 DIV SWAP1 POP PUSH1 0x1 DUP3 AND DUP1 PUSH2 0xE0D JUMPI PUSH1 0x7F DUP3 AND SWAP2 POP JUMPDEST PUSH1 0x20 DUP3 LT DUP2 SUB PUSH2 0xE20 JUMPI PUSH2 0xE1F PUSH2 0xDC9 JUMP JUMPDEST JUMPDEST POP SWAP2 SWAP1 POP JUMP JUMPDEST PUSH0 DUP2 SWAP1 POP DUP2 PUSH0 MSTORE PUSH1 0x20 PUSH0 KECCAK256 SWAP1 POP SWAP2 SWAP1 POP JUMP JUMPDEST PUSH0 PUSH1 0x20 PUSH1 0x1F DUP4 ADD DIV SWAP1 POP SWAP2 SWAP1 POP JUMP JUMPDEST PUSH0 DUP3 DUP3 SHL SWAP1 POP SWAP3 SWAP2 POP POP JUMP JUMPDEST PUSH0 PUSH1 0x8 DUP4 MUL PUSH2 0xE82 PUSH32 0xFFFFFFFFFFFFFFFFFFFFFFFFFFFFFFFFFFFFFFFFFFFFFFFFFFFFFFFFFFFFFFFF DUP3 PUSH2 0xE47 JUMP JUMPDEST PUSH2 0xE8C DUP7 DUP4 PUSH2 0xE47 JUMP JUMPDEST SWAP6 POP DUP1 NOT DUP5 AND SWAP4 POP DUP1 DUP7 AND DUP5 OR SWAP3 POP POP POP SWAP4 SWAP3 POP POP POP JUMP JUMPDEST PUSH0 DUP2 SWAP1 POP SWAP2 SWAP1 POP JUMP JUMPDEST PUSH0 PUSH2 0xEC7 PUSH2 0xEC2 PUSH2 0xEBD DUP5 PUSH2 0xA99 JUMP JUMPDEST PUSH2 0xEA4 JUMP JUMPDEST PUSH2 0xA99 JUMP JUMPDEST SWAP1 POP SWAP2 SWAP1 POP JUMP JUMPDEST PUSH0 DUP2 SWAP1 POP SWAP2 SWAP1 POP JUMP JUMPDEST PUSH2 0xEE0 DUP4 PUSH2 0xEAD JUMP JUMPDEST PUSH2 0xEF4 PUSH2 0xEEC DUP3 PUSH2 0xECE JUMP JUMPDEST DUP5 DUP5 SLOAD PUSH2 0xE53 JUMP JUMPDEST DUP3 SSTORE POP POP POP POP JUMP JUMPDEST PUSH0 SWAP1 JUMP JUMPDEST PUSH2 0xF08 PUSH2 0xEFC JUMP JUMPDEST PUSH2 0xF13 DUP2 DUP5 DUP5 PUSH2 0xED7 JUMP JUMPDEST POP POP POP JUMP JUMPDEST JUMPDEST DUP2 DUP2 LT ISZERO PUSH2 0xF36 JUMPI PUSH2 0xF2B PUSH0 DUP3 PUSH2 0xF00 JUMP JUMPDEST PUSH1 0x1 DUP2 ADD SWAP1 POP PUSH2 0xF19 JUMP JUMPDEST POP POP JUMP JUMPDEST PUSH1 0x1F DUP3 GT ISZERO PUSH2 0xF7B JUMPI PUSH2 0xF4C DUP2 PUSH2 0xE26 JUMP JUMPDEST PUSH2 0xF55 DUP5 PUSH2 0xE38 JUMP JUMPDEST DUP2 ADD PUSH1 0x20 DUP6 LT ISZERO PUSH2 0xF64 JUMPI DUP2 SWAP1 POP JUMPDEST PUSH2 0xF78 PUSH2 0xF70 DUP6 PUSH2 0xE38 JUMP JUMPDEST DUP4 ADD DUP3 PUSH2 0xF18 JUMP JUMPDEST POP POP JUMPDEST POP POP POP JUMP JUMPDEST PUSH0 DUP3 DUP3 SHR SWAP1 POP SWAP3 SWAP2 POP POP JUMP JUMPDEST PUSH0 PUSH2 0xF9B PUSH0 NOT DUP5 PUSH1 0x8 MUL PUSH2 0xF80 JUMP JUMPDEST NOT DUP1 DUP4 AND SWAP2 POP POP SWAP3 SWAP2 POP POP JUMP JUMPDEST PUSH0 PUSH2 0xFB3 DUP4 DUP4 PUSH2 0xF8C JUMP JUMPDEST SWAP2 POP DUP3 PUSH1 0x2 MUL DUP3 OR SWAP1 POP SWAP3 SWAP2 POP POP JUMP JUMPDEST PUSH2 0xFCC DUP3 PUSH2 0xB06 JUMP JUMPDEST PUSH8 0xFFFFFFFFFFFFFFFF DUP2 GT ISZERO PUSH2 0xFE5 JUMPI PUSH2 0xFE4 PUSH2 0x92E JUMP JUMPDEST JUMPDEST PUSH2 0xFEF DUP3 SLOAD PUSH2 0xDF6 JUMP JUMPDEST PUSH2 0xFFA DUP3 DUP3 DUP6 PUSH2 0xF3A JUMP JUMPDEST PUSH0 PUSH1 0x20 SWAP1 POP PUSH1 0x1F DUP4 GT PUSH1 0x1 DUP2 EQ PUSH2 0x102B JUMPI PUSH0 DUP5 ISZERO PUSH2 0x1019 JUMPI DUP3 DUP8 ADD MLOAD SWAP1 POP JUMPDEST PUSH2 0x1023 DUP6 DUP3 PUSH2 0xFA8 JUMP JUMPDEST DUP7 SSTORE POP PUSH2 0x108A JUMP JUMPDEST PUSH1 0x1F NOT DUP5 AND PUSH2 0x1039 DUP7 PUSH2 0xE26 JUMP JUMPDEST PUSH0 JUMPDEST DUP3 DUP2 LT ISZERO PUSH2 0x1060 JUMPI DUP5 DUP10 ADD MLOAD DUP3 SSTORE PUSH1 0x1 DUP3 ADD SWAP2 POP PUSH1 0x20 DUP6 ADD SWAP5 POP PUSH1 0x20 DUP2 ADD SWAP1 POP PUSH2 0x103B JUMP JUMPDEST DUP7 DUP4 LT ISZERO PUSH2 0x107D JUMPI DUP5 DUP10 ADD MLOAD PUSH2 0x1079 PUSH1 0x1F DUP10 AND DUP3 PUSH2 0xF8C JUMP JUMPDEST DUP4 SSTORE POP JUMPDEST PUSH1 0x1 PUSH1 0x2 DUP9 MUL ADD DUP9 SSTORE POP POP POP JUMPDEST POP POP POP POP POP POP JUMP JUMPDEST PUSH32 0x4E487B7100000000000000000000000000000000000000000000000000000000 PUSH0 MSTORE PUSH1 0x11 PUSH1 0x4 MSTORE PUSH1 0x24 PUSH0 REVERT JUMPDEST PUSH0 PUSH2 0x10C9 DUP3 PUSH2 0xA99 JUMP JUMPDEST SWAP2 POP PUSH32 0xFFFFFFFFFFFFFFFFFFFFFFFFFFFFFFFFFFFFFFFFFFFFFFFFFFFFFFFFFFFFFFFF DUP3 SUB PUSH2 0x10FB JUMPI PUSH2 0x10FA PUSH2 0x1092 JUMP JUMPDEST JUMPDEST PUSH1 0x1 DUP3 ADD SWAP1 POP SWAP2 SWAP1 POP JUMP JUMPDEST PUSH32 0x42616E206B686F6E672070686169206C6120636875206E686100000000000000 PUSH0 DUP3 ADD MSTORE POP JUMP JUMPDEST PUSH0 PUSH2 0x113A PUSH1 0x19 DUP4 PUSH2 0xB10 JUMP JUMPDEST SWAP2 POP PUSH2 0x1145 DUP3 PUSH2 0x1106 JUMP JUMPDEST PUSH1 0x20 DUP3 ADD SWAP1 POP SWAP2 SWAP1 POP JUMP JUMPDEST PUSH0 PUSH1 0x20 DUP3 ADD SWAP1 POP DUP2 DUP2 SUB PUSH0 DUP4 ADD MSTORE PUSH2 0x1167 DUP2 PUSH2 0x112E JUMP JUMPDEST SWAP1 POP SWAP2 SWAP1 POP JUMP JUMPDEST PUSH32 0x4E487B7100000000000000000000000000000000000000000000000000000000 PUSH0 MSTORE PUSH1 0x32 PUSH1 0x4 MSTORE PUSH1 0x24 PUSH0 REVERT JUMPDEST PUSH0 PUSH2 0x11A5 DUP3 PUSH2 0xA99 JUMP JUMPDEST SWAP2 POP PUSH2 0x11B0 DUP4 PUSH2 0xA99 JUMP JUMPDEST SWAP3 POP DUP3 DUP3 SUB SWAP1 POP DUP2 DUP2 GT ISZERO PUSH2 0x11C8 JUMPI PUSH2 0x11C7 PUSH2 0x1092 JUMP JUMPDEST JUMPDEST SWAP3 SWAP2 POP POP JUMP JUMPDEST PUSH0 DUP2 SLOAD SWAP1 POP PUSH2 0x11DC DUP2 PUSH2 0xDF6 JUMP JUMPDEST SWAP1 POP SWAP2 SWAP1 POP JUMP JUMPDEST DUP2 DUP2 SUB PUSH2 0x11F1 JUMPI POP POP PUSH2 0x12C6 JUMP JUMPDEST PUSH2 0x11FA DUP3 PUSH2 0x11CE JUMP JUMPDEST PUSH8 0xFFFFFFFFFFFFFFFF DUP2 GT ISZERO PUSH2 0x1213 JUMPI PUSH2 0x1212 PUSH2 0x92E JUMP JUMPDEST JUMPDEST PUSH2 0x121D DUP3 SLOAD PUSH2 0xDF6 JUMP JUMPDEST PUSH2 0x1228 DUP3 DUP3 DUP6 PUSH2 0xF3A JUMP JUMPDEST PUSH0 PUSH1 0x1F DUP4 GT PUSH1 0x1 DUP2 EQ PUSH2 0x1255 JUMPI PUSH0 DUP5 ISZERO PUSH2 0x1243 JUMPI DUP3 DUP8 ADD SLOAD SWAP1 POP JUMPDEST PUSH2 0x124D DUP6 DUP3 PUSH2 0xFA8 JUMP JUMPDEST DUP7 SSTORE POP PUSH2 0x12BF JUMP JUMPDEST PUSH1 0x1F NOT DUP5 AND PUSH2 0x1263 DUP8 PUSH2 0xE26 JUMP JUMPDEST SWAP7 POP PUSH2 0x126E DUP7 PUSH2 0xE26 JUMP JUMPDEST PUSH0 JUMPDEST DUP3 DUP2 LT ISZERO PUSH2 0x1295 JUMPI DUP5 DUP10 ADD SLOAD DUP3 SSTORE PUSH1 0x1 DUP3 ADD SWAP2 POP PUSH1 0x1 DUP6 ADD SWAP5 POP PUSH1 0x20 DUP2 ADD SWAP1 POP PUSH2 0x1270 JUMP JUMPDEST DUP7 DUP4 LT ISZERO PUSH2 0x12B2 JUMPI DUP5 DUP10 ADD SLOAD PUSH2 0x12AE PUSH1 0x1F DUP10 AND DUP3 PUSH2 0xF8C JUMP JUMPDEST DUP4 SSTORE POP JUMPDEST PUSH1 0x1 PUSH1 0x2 DUP9 MUL ADD DUP9 SSTORE POP POP POP JUMPDEST POP POP POP POP POP POP JUMPDEST JUMP JUMPDEST PUSH32 0x4E487B7100000000000000000000000000000000000000000000000000000000 PUSH0 MSTORE PUSH1 0x31 PUSH1 0x4 MSTORE PUSH1 0x24 PUSH0 REVERT JUMPDEST PUSH0 PUSH1 0x40 DUP3 ADD SWAP1 POP PUSH2 0x1308 PUSH0 DUP4 ADD DUP6 PUSH2 0xAF7 JUMP JUMPDEST PUSH2 0x1315 PUSH1 0x20 DUP4 ADD DUP5 PUSH2 0xB96 JUMP JUMPDEST SWAP4 SWAP3 POP POP POP JUMP INVALID LOG2 PUSH5 0x6970667358 0x22 SLT KECCAK256 0x4D JUMPDEST 0xBF 0x2F PUSH31 0x48E8387CCEE1D5006F103CCD7CB1068D3D9F4E18261D938D3E8F8764736F6C PUSH4 0x4300081A STOP CALLER "
				},
				"gasEstimates": {
					"creation": {
						"codeDepositCost": "989200",
						"executionCost": "1025",
						"totalCost": "990225"
					},
					"external": {
						"addHouse(string)": "infinite",
						"deleteHouse(uint256)": "infinite",
						"editHouse(uint256,string)": "infinite",
						"getHouses()": "infinite",
						"houses(uint256)": "infinite"
					}
				},
				"methodIdentifiers": {
					"addHouse(string)": "474a0e38",
					"deleteHouse(uint256)": "4c9b56fd",
					"editHouse(uint256,string)": "f45fec22",
					"getHouses()": "fd5f33ec",
					"houses(uint256)": "aeda852f"
				}
			},
			"storageLayout": {
				"storage": [
					{
						"astId": 10,
						"contract": "contracts/bai4.sol:HouseManager",
						"label": "nextId",
						"offset": 0,
						"slot": "0",
						"type": "t_uint256"
					},
					{
						"astId": 14,
						"contract": "contracts/bai4.sol:HouseManager",
						"label": "houses",
						"offset": 0,
						"slot": "1",
						"type": "t_array(t_struct(House)8_storage)dyn_storage"
					},
					{
						"astId": 18,
						"contract": "contracts/bai4.sol:HouseManager",
						"label": "owners",
						"offset": 0,
						"slot": "2",
						"type": "t_mapping(t_uint256,t_address)"
					}
				],
				"types": {
					"t_address": {
						"encoding": "inplace",
						"label": "address",
						"numberOfBytes": "20"
					},
					"t_array(t_struct(House)8_storage)dyn_storage": {
						"base": "t_struct(House)8_storage",
						"encoding": "dynamic_array",
						"label": "struct HouseManager.House[]",
						"numberOfBytes": "32"
					},
					"t_mapping(t_uint256,t_address)": {
						"encoding": "mapping",
						"key": "t_uint256",
						"label": "mapping(uint256 => address)",
						"numberOfBytes": "32",
						"value": "t_address"
					},
					"t_string_storage": {
						"encoding": "bytes",
						"label": "string",
						"numberOfBytes": "32"
					},
					"t_struct(House)8_storage": {
						"encoding": "inplace",
						"label": "struct HouseManager.House",
						"members": [
							{
								"astId": 3,
								"contract": "contracts/bai4.sol:HouseManager",
								"label": "id",
								"offset": 0,
								"slot": "0",
								"type": "t_uint256"
							},
							{
								"astId": 5,
								"contract": "contracts/bai4.sol:HouseManager",
								"label": "house_address",
								"offset": 0,
								"slot": "1",
								"type": "t_string_storage"
							},
							{
								"astId": 7,
								"contract": "contracts/bai4.sol:HouseManager",
								"label": "owner",
								"offset": 0,
								"slot": "2",
								"type": "t_address"
							}
						],
						"numberOfBytes": "96"
					},
					"t_uint256": {
						"encoding": "inplace",
						"label": "uint256",
						"numberOfBytes": "32"
					}
				}
			},
			"userdoc": {
				"kind": "user",
				"methods": {},
				"version": 1
			}
		}
	}
}