{
	"contracts/PersonWallet.sol": {
		"PersonWallet": {
			"abi": [
				{
					"inputs": [],
					"stateMutability": "nonpayable",
					"type": "constructor"
				},
				{
					"inputs": [],
					"name": "deposit",
					"outputs": [],
					"stateMutability": "payable",
					"type": "function"
				},
				{
					"inputs": [],
					"name": "getAllDonations",
					"outputs": [
						{
							"internalType": "address[]",
							"name": "",
							"type": "address[]"
						},
						{
							"internalType": "uint256[]",
							"name": "",
							"type": "uint256[]"
						}
					],
					"stateMutability": "view",
					"type": "function"
				},
				{
					"inputs": [
						{
							"internalType": "uint256",
							"name": "value",
							"type": "uint256"
						}
					],
					"name": "withdraw",
					"outputs": [],
					"stateMutability": "nonpayable",
					"type": "function"
				},
				{
					"inputs": [],
					"name": "withdraw",
					"outputs": [],
					"stateMutability": "nonpayable",
					"type": "function"
				}
			],
			"devdoc": {
				"kind": "dev",
				"methods": {},
				"version": 1
			},
			"evm": {
				"assembly": "    /* \"contracts/PersonWallet.sol\":74:1064  contract PersonWallet{... */\n  mstore(0x40, 0x80)\n    /* \"contracts/PersonWallet.sol\":189:239  constructor () {... */\n  callvalue\n  dup1\n  iszero\n  tag_1\n  jumpi\n  0x00\n  dup1\n  revert\ntag_1:\n  pop\n    /* \"contracts/PersonWallet.sol\":221:231  msg.sender */\n  caller\n    /* \"contracts/PersonWallet.sol\":215:218  own */\n  0x00\n  dup1\n    /* \"contracts/PersonWallet.sol\":215:231  own = msg.sender */\n  0x0100\n  exp\n  dup2\n  sload\n  dup2\n  0xffffffffffffffffffffffffffffffffffffffff\n  mul\n  not\n  and\n  swap1\n  dup4\n  0xffffffffffffffffffffffffffffffffffffffff\n  and\n  mul\n  or\n  swap1\n  sstore\n  pop\n    /* \"contracts/PersonWallet.sol\":74:1064  contract PersonWallet{... */\n  dataSize(sub_0)\n  dup1\n  dataOffset(sub_0)\n  0x00\n  codecopy\n  0x00\n  return\nstop\n\nsub_0: assembly {\n        /* \"contracts/PersonWallet.sol\":74:1064  contract PersonWallet{... */\n      mstore(0x40, 0x80)\n      jumpi(tag_1, lt(calldatasize, 0x04))\n      shr(0xe0, calldataload(0x00))\n      dup1\n      0x2e1a7d4d\n      eq\n      tag_2\n      jumpi\n      dup1\n      0x38a59a07\n      eq\n      tag_3\n      jumpi\n      dup1\n      0x3ccfd60b\n      eq\n      tag_4\n      jumpi\n      dup1\n      0xd0e30db0\n      eq\n      tag_5\n      jumpi\n    tag_1:\n      0x00\n      dup1\n      revert\n        /* \"contracts/PersonWallet.sol\":593:744  function withdraw(uint256 value) public  {... */\n    tag_2:\n      callvalue\n      dup1\n      iszero\n      tag_6\n      jumpi\n      0x00\n      dup1\n      revert\n    tag_6:\n      pop\n      tag_7\n      0x04\n      dup1\n      calldatasize\n      sub\n      dup2\n      add\n      swap1\n      tag_8\n      swap2\n      swap1\n      tag_9\n      jump\t// in\n    tag_8:\n      tag_10\n      jump\t// in\n    tag_7:\n      stop\n        /* \"contracts/PersonWallet.sol\":749:1057  function getAllDonations() public view returns (address[] memory, uint256[] memory) {... */\n    tag_3:\n      callvalue\n      dup1\n      iszero\n      tag_11\n      jumpi\n      0x00\n      dup1\n      revert\n    tag_11:\n      pop\n      tag_12\n      tag_13\n      jump\t// in\n    tag_12:\n      mload(0x40)\n      tag_14\n      swap3\n      swap2\n      swap1\n      tag_15\n      jump\t// in\n    tag_14:\n      mload(0x40)\n      dup1\n      swap2\n      sub\n      swap1\n      return\n        /* \"contracts/PersonWallet.sol\":433:587  function withdraw() public  {... */\n    tag_4:\n      callvalue\n      dup1\n      iszero\n      tag_16\n      jumpi\n      0x00\n      dup1\n      revert\n    tag_16:\n      pop\n      tag_17\n      tag_18\n      jump\t// in\n    tag_17:\n      stop\n        /* \"contracts/PersonWallet.sol\":245:427  function deposit () public payable {... */\n    tag_5:\n      tag_19\n      tag_20\n      jump\t// in\n    tag_19:\n      stop\n        /* \"contracts/PersonWallet.sol\":593:744  function withdraw(uint256 value) public  {... */\n    tag_10:\n        /* \"contracts/PersonWallet.sol\":660:670  msg.sender */\n      caller\n        /* \"contracts/PersonWallet.sol\":653:670  own == msg.sender */\n      0xffffffffffffffffffffffffffffffffffffffff\n      and\n        /* \"contracts/PersonWallet.sol\":653:656  own */\n      0x00\n      dup1\n      sload\n      swap1\n      0x0100\n      exp\n      swap1\n      div\n      0xffffffffffffffffffffffffffffffffffffffff\n      and\n        /* \"contracts/PersonWallet.sol\":653:670  own == msg.sender */\n      0xffffffffffffffffffffffffffffffffffffffff\n      and\n      eq\n        /* \"contracts/PersonWallet.sol\":645:689  require(own == msg.sender, 'sai dia chi vi') */\n      tag_22\n      jumpi\n      mload(0x40)\n      0x08c379a000000000000000000000000000000000000000000000000000000000\n      dup2\n      mstore\n      0x04\n      add\n      tag_23\n      swap1\n      tag_24\n      jump\t// in\n    tag_23:\n      mload(0x40)\n      dup1\n      swap2\n      sub\n      swap1\n      revert\n    tag_22:\n        /* \"contracts/PersonWallet.sol\":709:719  msg.sender */\n      caller\n        /* \"contracts/PersonWallet.sol\":700:729  payable (msg.sender).transfer */\n      0xffffffffffffffffffffffffffffffffffffffff\n      and\n        /* \"contracts/PersonWallet.sol\":700:736  payable (msg.sender).transfer(value) */\n      0x08fc\n        /* \"contracts/PersonWallet.sol\":730:735  value */\n      dup3\n        /* \"contracts/PersonWallet.sol\":700:736  payable (msg.sender).transfer(value) */\n      swap1\n      dup2\n      iszero\n      mul\n      swap1\n      mload(0x40)\n      0x00\n      mload(0x40)\n      dup1\n      dup4\n      sub\n      dup2\n      dup6\n      dup9\n      dup9\n      call\n      swap4\n      pop\n      pop\n      pop\n      pop\n      iszero\n      dup1\n      iszero\n      tag_26\n      jumpi\n      returndatasize\n      0x00\n      dup1\n      returndatacopy\n      revert(0x00, returndatasize)\n    tag_26:\n      pop\n        /* \"contracts/PersonWallet.sol\":593:744  function withdraw(uint256 value) public  {... */\n      pop\n      jump\t// out\n        /* \"contracts/PersonWallet.sol\":749:1057  function getAllDonations() public view returns (address[] memory, uint256[] memory) {... */\n    tag_13:\n        /* \"contracts/PersonWallet.sol\":797:813  address[] memory */\n      0x60\n        /* \"contracts/PersonWallet.sol\":815:831  uint256[] memory */\n      dup1\n        /* \"contracts/PersonWallet.sol\":844:868  uint256[] memory amounts */\n      0x00\n        /* \"contracts/PersonWallet.sol\":885:891  donors */\n      0x02\n        /* \"contracts/PersonWallet.sol\":885:898  donors.length */\n      dup1\n      sload\n      swap1\n      pop\n        /* \"contracts/PersonWallet.sol\":871:899  new uint256[](donors.length) */\n      0xffffffffffffffff\n      dup2\n      gt\n      iszero\n      tag_28\n      jumpi\n      tag_29\n      tag_30\n      jump\t// in\n    tag_29:\n    tag_28:\n      mload(0x40)\n      swap1\n      dup1\n      dup3\n      mstore\n      dup1\n      0x20\n      mul\n      0x20\n      add\n      dup3\n      add\n      0x40\n      mstore\n      dup1\n      iszero\n      tag_31\n      jumpi\n      dup2\n      0x20\n      add\n      0x20\n      dup3\n      mul\n      dup1\n      calldatasize\n      dup4\n      calldatacopy\n      dup1\n      dup3\n      add\n      swap2\n      pop\n      pop\n      swap1\n      pop\n    tag_31:\n      pop\n        /* \"contracts/PersonWallet.sol\":844:899  uint256[] memory amounts = new uint256[](donors.length) */\n      swap1\n      pop\n        /* \"contracts/PersonWallet.sol\":915:924  uint256 i */\n      0x00\n        /* \"contracts/PersonWallet.sol\":910:1015  for (uint256 i = 0; i < donors.length; i++) {... */\n    tag_32:\n        /* \"contracts/PersonWallet.sol\":934:940  donors */\n      0x02\n        /* \"contracts/PersonWallet.sol\":934:947  donors.length */\n      dup1\n      sload\n      swap1\n      pop\n        /* \"contracts/PersonWallet.sol\":930:931  i */\n      dup2\n        /* \"contracts/PersonWallet.sol\":930:947  i < donors.length */\n      lt\n        /* \"contracts/PersonWallet.sol\":910:1015  for (uint256 i = 0; i < donors.length; i++) {... */\n      iszero\n      tag_33\n      jumpi\n        /* \"contracts/PersonWallet.sol\":982:992  listDonate */\n      0x01\n        /* \"contracts/PersonWallet.sol\":982:1003  listDonate[donors[i]] */\n      0x00\n        /* \"contracts/PersonWallet.sol\":993:999  donors */\n      0x02\n        /* \"contracts/PersonWallet.sol\":1000:1001  i */\n      dup4\n        /* \"contracts/PersonWallet.sol\":993:1002  donors[i] */\n      dup2\n      sload\n      dup2\n      lt\n      tag_35\n      jumpi\n      tag_36\n      tag_37\n      jump\t// in\n    tag_36:\n    tag_35:\n      swap1\n      0x00\n      mstore\n      keccak256(0x00, 0x20)\n      add\n      0x00\n      swap1\n      sload\n      swap1\n      0x0100\n      exp\n      swap1\n      div\n      0xffffffffffffffffffffffffffffffffffffffff\n      and\n        /* \"contracts/PersonWallet.sol\":982:1003  listDonate[donors[i]] */\n      0xffffffffffffffffffffffffffffffffffffffff\n      and\n      0xffffffffffffffffffffffffffffffffffffffff\n      and\n      dup2\n      mstore\n      0x20\n      add\n      swap1\n      dup2\n      mstore\n      0x20\n      add\n      0x00\n      keccak256\n      sload\n        /* \"contracts/PersonWallet.sol\":969:976  amounts */\n      dup3\n        /* \"contracts/PersonWallet.sol\":977:978  i */\n      dup3\n        /* \"contracts/PersonWallet.sol\":969:979  amounts[i] */\n      dup2\n      mload\n      dup2\n      lt\n      tag_39\n      jumpi\n      tag_40\n      tag_37\n      jump\t// in\n    tag_40:\n    tag_39:\n      0x20\n      mul\n      0x20\n      add\n      add\n        /* \"contracts/PersonWallet.sol\":969:1003  amounts[i] = listDonate[donors[i]] */\n      dup2\n      dup2\n      mstore\n      pop\n      pop\n        /* \"contracts/PersonWallet.sol\":949:952  i++ */\n      dup1\n      dup1\n      0x01\n      add\n      swap2\n      pop\n      pop\n        /* \"contracts/PersonWallet.sol\":910:1015  for (uint256 i = 0; i < donors.length; i++) {... */\n      jump(tag_32)\n    tag_33:\n      pop\n        /* \"contracts/PersonWallet.sol\":1033:1039  donors */\n      0x02\n        /* \"contracts/PersonWallet.sol\":1041:1048  amounts */\n      dup2\n        /* \"contracts/PersonWallet.sol\":1025:1049  return (donors, amounts) */\n      dup2\n      dup1\n      sload\n      dup1\n      0x20\n      mul\n      0x20\n      add\n      mload(0x40)\n      swap1\n      dup2\n      add\n      0x40\n      mstore\n      dup1\n      swap3\n      swap2\n      swap1\n      dup2\n      dup2\n      mstore\n      0x20\n      add\n      dup3\n      dup1\n      sload\n      dup1\n      iszero\n      tag_41\n      jumpi\n      0x20\n      mul\n      dup3\n      add\n      swap2\n      swap1\n      0x00\n      mstore\n      keccak256(0x00, 0x20)\n      swap1\n    tag_42:\n      dup2\n      0x00\n      swap1\n      sload\n      swap1\n      0x0100\n      exp\n      swap1\n      div\n      0xffffffffffffffffffffffffffffffffffffffff\n      and\n      0xffffffffffffffffffffffffffffffffffffffff\n      and\n      dup2\n      mstore\n      0x20\n      add\n      swap1\n      0x01\n      add\n      swap1\n      dup1\n      dup4\n      gt\n      tag_42\n      jumpi\n    tag_41:\n      pop\n      pop\n      pop\n      pop\n      pop\n      swap2\n      pop\n      swap3\n      pop\n      swap3\n      pop\n      pop\n        /* \"contracts/PersonWallet.sol\":749:1057  function getAllDonations() public view returns (address[] memory, uint256[] memory) {... */\n      swap1\n      swap2\n      jump\t// out\n        /* \"contracts/PersonWallet.sol\":433:587  function withdraw() public  {... */\n    tag_18:\n        /* \"contracts/PersonWallet.sol\":487:497  msg.sender */\n      caller\n        /* \"contracts/PersonWallet.sol\":480:497  own == msg.sender */\n      0xffffffffffffffffffffffffffffffffffffffff\n      and\n        /* \"contracts/PersonWallet.sol\":480:483  own */\n      0x00\n      dup1\n      sload\n      swap1\n      0x0100\n      exp\n      swap1\n      div\n      0xffffffffffffffffffffffffffffffffffffffff\n      and\n        /* \"contracts/PersonWallet.sol\":480:497  own == msg.sender */\n      0xffffffffffffffffffffffffffffffffffffffff\n      and\n      eq\n        /* \"contracts/PersonWallet.sol\":472:516  require(own == msg.sender, 'sai dia chi vi') */\n      tag_44\n      jumpi\n      mload(0x40)\n      0x08c379a000000000000000000000000000000000000000000000000000000000\n      dup2\n      mstore\n      0x04\n      add\n      tag_45\n      swap1\n      tag_24\n      jump\t// in\n    tag_45:\n      mload(0x40)\n      dup1\n      swap2\n      sub\n      swap1\n      revert\n    tag_44:\n        /* \"contracts/PersonWallet.sol\":536:546  msg.sender */\n      caller\n        /* \"contracts/PersonWallet.sol\":527:556  payable (msg.sender).transfer */\n      0xffffffffffffffffffffffffffffffffffffffff\n      and\n        /* \"contracts/PersonWallet.sol\":527:579  payable (msg.sender).transfer(address(this).balance) */\n      0x08fc\n        /* \"contracts/PersonWallet.sol\":557:578  address(this).balance */\n      selfbalance\n        /* \"contracts/PersonWallet.sol\":527:579  payable (msg.sender).transfer(address(this).balance) */\n      swap1\n      dup2\n      iszero\n      mul\n      swap1\n      mload(0x40)\n      0x00\n      mload(0x40)\n      dup1\n      dup4\n      sub\n      dup2\n      dup6\n      dup9\n      dup9\n      call\n      swap4\n      pop\n      pop\n      pop\n      pop\n      iszero\n      dup1\n      iszero\n      tag_47\n      jumpi\n      returndatasize\n      0x00\n      dup1\n      returndatacopy\n      revert(0x00, returndatasize)\n    tag_47:\n      pop\n        /* \"contracts/PersonWallet.sol\":433:587  function withdraw() public  {... */\n      jump\t// out\n        /* \"contracts/PersonWallet.sol\":245:427  function deposit () public payable {... */\n    tag_20:\n        /* \"contracts/PersonWallet.sol\":321:322  0 */\n      0x00\n        /* \"contracts/PersonWallet.sol\":295:305  listDonate */\n      0x01\n        /* \"contracts/PersonWallet.sol\":295:317  listDonate[msg.sender] */\n      0x00\n        /* \"contracts/PersonWallet.sol\":306:316  msg.sender */\n      caller\n        /* \"contracts/PersonWallet.sol\":295:317  listDonate[msg.sender] */\n      0xffffffffffffffffffffffffffffffffffffffff\n      and\n      0xffffffffffffffffffffffffffffffffffffffff\n      and\n      dup2\n      mstore\n      0x20\n      add\n      swap1\n      dup2\n      mstore\n      0x20\n      add\n      0x00\n      keccak256\n      sload\n        /* \"contracts/PersonWallet.sol\":295:322  listDonate[msg.sender] == 0 */\n      sub\n        /* \"contracts/PersonWallet.sol\":291:374  if (listDonate[msg.sender] == 0) {... */\n      tag_49\n      jumpi\n        /* \"contracts/PersonWallet.sol\":339:345  donors */\n      0x02\n        /* \"contracts/PersonWallet.sol\":351:361  msg.sender */\n      caller\n        /* \"contracts/PersonWallet.sol\":339:362  donors.push(msg.sender) */\n      swap1\n      dup1\n      0x01\n      dup2\n      sload\n      add\n      dup1\n      dup3\n      sstore\n      dup1\n      swap2\n      pop\n      pop\n      0x01\n      swap1\n      sub\n      swap1\n      0x00\n      mstore\n      keccak256(0x00, 0x20)\n      add\n      0x00\n      swap1\n      swap2\n      swap1\n      swap2\n      swap1\n      swap2\n      0x0100\n      exp\n      dup2\n      sload\n      dup2\n      0xffffffffffffffffffffffffffffffffffffffff\n      mul\n      not\n      and\n      swap1\n      dup4\n      0xffffffffffffffffffffffffffffffffffffffff\n      and\n      mul\n      or\n      swap1\n      sstore\n      pop\n        /* \"contracts/PersonWallet.sol\":291:374  if (listDonate[msg.sender] == 0) {... */\n    tag_49:\n        /* \"contracts/PersonWallet.sol\":410:419  msg.value */\n      callvalue\n        /* \"contracts/PersonWallet.sol\":384:394  listDonate */\n      0x01\n        /* \"contracts/PersonWallet.sol\":384:406  listDonate[msg.sender] */\n      0x00\n        /* \"contracts/PersonWallet.sol\":395:405  msg.sender */\n      caller\n        /* \"contracts/PersonWallet.sol\":384:406  listDonate[msg.sender] */\n      0xffffffffffffffffffffffffffffffffffffffff\n      and\n      0xffffffffffffffffffffffffffffffffffffffff\n      and\n      dup2\n      mstore\n      0x20\n      add\n      swap1\n      dup2\n      mstore\n      0x20\n      add\n      0x00\n      keccak256\n      0x00\n        /* \"contracts/PersonWallet.sol\":384:419  listDonate[msg.sender] += msg.value */\n      dup3\n      dup3\n      sload\n      tag_51\n      swap2\n      swap1\n      tag_52\n      jump\t// in\n    tag_51:\n      swap3\n      pop\n      pop\n      dup2\n      swap1\n      sstore\n      pop\n        /* \"contracts/PersonWallet.sol\":245:427  function deposit () public payable {... */\n      jump\t// out\n        /* \"#utility.yul\":88:205   */\n    tag_54:\n        /* \"#utility.yul\":197:198   */\n      0x00\n        /* \"#utility.yul\":194:195   */\n      dup1\n        /* \"#utility.yul\":187:199   */\n      revert\n        /* \"#utility.yul\":334:411   */\n    tag_56:\n        /* \"#utility.yul\":371:378   */\n      0x00\n        /* \"#utility.yul\":400:405   */\n      dup2\n        /* \"#utility.yul\":389:405   */\n      swap1\n      pop\n        /* \"#utility.yul\":334:411   */\n      swap2\n      swap1\n      pop\n      jump\t// out\n        /* \"#utility.yul\":417:539   */\n    tag_57:\n        /* \"#utility.yul\":490:514   */\n      tag_85\n        /* \"#utility.yul\":508:513   */\n      dup2\n        /* \"#utility.yul\":490:514   */\n      tag_56\n      jump\t// in\n    tag_85:\n        /* \"#utility.yul\":483:488   */\n      dup2\n        /* \"#utility.yul\":480:515   */\n      eq\n        /* \"#utility.yul\":470:533   */\n      tag_86\n      jumpi\n        /* \"#utility.yul\":529:530   */\n      0x00\n        /* \"#utility.yul\":526:527   */\n      dup1\n        /* \"#utility.yul\":519:531   */\n      revert\n        /* \"#utility.yul\":470:533   */\n    tag_86:\n        /* \"#utility.yul\":417:539   */\n      pop\n      jump\t// out\n        /* \"#utility.yul\":545:684   */\n    tag_58:\n        /* \"#utility.yul\":591:596   */\n      0x00\n        /* \"#utility.yul\":629:635   */\n      dup2\n        /* \"#utility.yul\":616:636   */\n      calldataload\n        /* \"#utility.yul\":607:636   */\n      swap1\n      pop\n        /* \"#utility.yul\":645:678   */\n      tag_88\n        /* \"#utility.yul\":672:677   */\n      dup2\n        /* \"#utility.yul\":645:678   */\n      tag_57\n      jump\t// in\n    tag_88:\n        /* \"#utility.yul\":545:684   */\n      swap3\n      swap2\n      pop\n      pop\n      jump\t// out\n        /* \"#utility.yul\":690:1019   */\n    tag_9:\n        /* \"#utility.yul\":749:755   */\n      0x00\n        /* \"#utility.yul\":798:800   */\n      0x20\n        /* \"#utility.yul\":786:795   */\n      dup3\n        /* \"#utility.yul\":777:784   */\n      dup5\n        /* \"#utility.yul\":773:796   */\n      sub\n        /* \"#utility.yul\":769:801   */\n      slt\n        /* \"#utility.yul\":766:885   */\n      iszero\n      tag_90\n      jumpi\n        /* \"#utility.yul\":804:883   */\n      tag_91\n      tag_54\n      jump\t// in\n    tag_91:\n        /* \"#utility.yul\":766:885   */\n    tag_90:\n        /* \"#utility.yul\":924:925   */\n      0x00\n        /* \"#utility.yul\":949:1002   */\n      tag_92\n        /* \"#utility.yul\":994:1001   */\n      dup5\n        /* \"#utility.yul\":985:991   */\n      dup3\n        /* \"#utility.yul\":974:983   */\n      dup6\n        /* \"#utility.yul\":970:992   */\n      add\n        /* \"#utility.yul\":949:1002   */\n      tag_58\n      jump\t// in\n    tag_92:\n        /* \"#utility.yul\":939:1002   */\n      swap2\n      pop\n        /* \"#utility.yul\":895:1012   */\n      pop\n        /* \"#utility.yul\":690:1019   */\n      swap3\n      swap2\n      pop\n      pop\n      jump\t// out\n        /* \"#utility.yul\":1025:1139   */\n    tag_59:\n        /* \"#utility.yul\":1092:1098   */\n      0x00\n        /* \"#utility.yul\":1126:1131   */\n      dup2\n        /* \"#utility.yul\":1120:1132   */\n      mload\n        /* \"#utility.yul\":1110:1132   */\n      swap1\n      pop\n        /* \"#utility.yul\":1025:1139   */\n      swap2\n      swap1\n      pop\n      jump\t// out\n        /* \"#utility.yul\":1145:1329   */\n    tag_60:\n        /* \"#utility.yul\":1244:1255   */\n      0x00\n        /* \"#utility.yul\":1278:1284   */\n      dup3\n        /* \"#utility.yul\":1273:1276   */\n      dup3\n        /* \"#utility.yul\":1266:1285   */\n      mstore\n        /* \"#utility.yul\":1318:1322   */\n      0x20\n        /* \"#utility.yul\":1313:1316   */\n      dup3\n        /* \"#utility.yul\":1309:1323   */\n      add\n        /* \"#utility.yul\":1294:1323   */\n      swap1\n      pop\n        /* \"#utility.yul\":1145:1329   */\n      swap3\n      swap2\n      pop\n      pop\n      jump\t// out\n        /* \"#utility.yul\":1335:1467   */\n    tag_61:\n        /* \"#utility.yul\":1402:1406   */\n      0x00\n        /* \"#utility.yul\":1425:1428   */\n      dup2\n        /* \"#utility.yul\":1417:1428   */\n      swap1\n      pop\n        /* \"#utility.yul\":1455:1459   */\n      0x20\n        /* \"#utility.yul\":1450:1453   */\n      dup3\n        /* \"#utility.yul\":1446:1460   */\n      add\n        /* \"#utility.yul\":1438:1460   */\n      swap1\n      pop\n        /* \"#utility.yul\":1335:1467   */\n      swap2\n      swap1\n      pop\n      jump\t// out\n        /* \"#utility.yul\":1473:1599   */\n    tag_62:\n        /* \"#utility.yul\":1510:1517   */\n      0x00\n        /* \"#utility.yul\":1550:1592   */\n      0xffffffffffffffffffffffffffffffffffffffff\n        /* \"#utility.yul\":1543:1548   */\n      dup3\n        /* \"#utility.yul\":1539:1593   */\n      and\n        /* \"#utility.yul\":1528:1593   */\n      swap1\n      pop\n        /* \"#utility.yul\":1473:1599   */\n      swap2\n      swap1\n      pop\n      jump\t// out\n        /* \"#utility.yul\":1605:1701   */\n    tag_63:\n        /* \"#utility.yul\":1642:1649   */\n      0x00\n        /* \"#utility.yul\":1671:1695   */\n      tag_98\n        /* \"#utility.yul\":1689:1694   */\n      dup3\n        /* \"#utility.yul\":1671:1695   */\n      tag_62\n      jump\t// in\n    tag_98:\n        /* \"#utility.yul\":1660:1695   */\n      swap1\n      pop\n        /* \"#utility.yul\":1605:1701   */\n      swap2\n      swap1\n      pop\n      jump\t// out\n        /* \"#utility.yul\":1707:1815   */\n    tag_64:\n        /* \"#utility.yul\":1784:1808   */\n      tag_100\n        /* \"#utility.yul\":1802:1807   */\n      dup2\n        /* \"#utility.yul\":1784:1808   */\n      tag_63\n      jump\t// in\n    tag_100:\n        /* \"#utility.yul\":1779:1782   */\n      dup3\n        /* \"#utility.yul\":1772:1809   */\n      mstore\n        /* \"#utility.yul\":1707:1815   */\n      pop\n      pop\n      jump\t// out\n        /* \"#utility.yul\":1821:2000   */\n    tag_65:\n        /* \"#utility.yul\":1890:1900   */\n      0x00\n        /* \"#utility.yul\":1911:1957   */\n      tag_102\n        /* \"#utility.yul\":1953:1956   */\n      dup4\n        /* \"#utility.yul\":1945:1951   */\n      dup4\n        /* \"#utility.yul\":1911:1957   */\n      tag_64\n      jump\t// in\n    tag_102:\n        /* \"#utility.yul\":1989:1993   */\n      0x20\n        /* \"#utility.yul\":1984:1987   */\n      dup4\n        /* \"#utility.yul\":1980:1994   */\n      add\n        /* \"#utility.yul\":1966:1994   */\n      swap1\n      pop\n        /* \"#utility.yul\":1821:2000   */\n      swap3\n      swap2\n      pop\n      pop\n      jump\t// out\n        /* \"#utility.yul\":2006:2119   */\n    tag_66:\n        /* \"#utility.yul\":2076:2080   */\n      0x00\n        /* \"#utility.yul\":2108:2112   */\n      0x20\n        /* \"#utility.yul\":2103:2106   */\n      dup3\n        /* \"#utility.yul\":2099:2113   */\n      add\n        /* \"#utility.yul\":2091:2113   */\n      swap1\n      pop\n        /* \"#utility.yul\":2006:2119   */\n      swap2\n      swap1\n      pop\n      jump\t// out\n        /* \"#utility.yul\":2155:2887   */\n    tag_67:\n        /* \"#utility.yul\":2274:2277   */\n      0x00\n        /* \"#utility.yul\":2303:2357   */\n      tag_105\n        /* \"#utility.yul\":2351:2356   */\n      dup3\n        /* \"#utility.yul\":2303:2357   */\n      tag_59\n      jump\t// in\n    tag_105:\n        /* \"#utility.yul\":2373:2459   */\n      tag_106\n        /* \"#utility.yul\":2452:2458   */\n      dup2\n        /* \"#utility.yul\":2447:2450   */\n      dup6\n        /* \"#utility.yul\":2373:2459   */\n      tag_60\n      jump\t// in\n    tag_106:\n        /* \"#utility.yul\":2366:2459   */\n      swap4\n      pop\n        /* \"#utility.yul\":2483:2539   */\n      tag_107\n        /* \"#utility.yul\":2533:2538   */\n      dup4\n        /* \"#utility.yul\":2483:2539   */\n      tag_61\n      jump\t// in\n    tag_107:\n        /* \"#utility.yul\":2562:2569   */\n      dup1\n        /* \"#utility.yul\":2593:2594   */\n      0x00\n        /* \"#utility.yul\":2578:2862   */\n    tag_108:\n        /* \"#utility.yul\":2603:2609   */\n      dup4\n        /* \"#utility.yul\":2600:2601   */\n      dup2\n        /* \"#utility.yul\":2597:2610   */\n      lt\n        /* \"#utility.yul\":2578:2862   */\n      iszero\n      tag_110\n      jumpi\n        /* \"#utility.yul\":2679:2685   */\n      dup2\n        /* \"#utility.yul\":2673:2686   */\n      mload\n        /* \"#utility.yul\":2706:2769   */\n      tag_111\n        /* \"#utility.yul\":2765:2768   */\n      dup9\n        /* \"#utility.yul\":2750:2763   */\n      dup3\n        /* \"#utility.yul\":2706:2769   */\n      tag_65\n      jump\t// in\n    tag_111:\n        /* \"#utility.yul\":2699:2769   */\n      swap8\n      pop\n        /* \"#utility.yul\":2792:2852   */\n      tag_112\n        /* \"#utility.yul\":2845:2851   */\n      dup4\n        /* \"#utility.yul\":2792:2852   */\n      tag_66\n      jump\t// in\n    tag_112:\n        /* \"#utility.yul\":2782:2852   */\n      swap3\n      pop\n        /* \"#utility.yul\":2638:2862   */\n      pop\n        /* \"#utility.yul\":2625:2626   */\n      0x01\n        /* \"#utility.yul\":2622:2623   */\n      dup2\n        /* \"#utility.yul\":2618:2627   */\n      add\n        /* \"#utility.yul\":2613:2627   */\n      swap1\n      pop\n        /* \"#utility.yul\":2578:2862   */\n      jump(tag_108)\n    tag_110:\n        /* \"#utility.yul\":2582:2596   */\n      pop\n        /* \"#utility.yul\":2878:2881   */\n      dup6\n        /* \"#utility.yul\":2871:2881   */\n      swap4\n      pop\n        /* \"#utility.yul\":2279:2887   */\n      pop\n      pop\n      pop\n        /* \"#utility.yul\":2155:2887   */\n      swap3\n      swap2\n      pop\n      pop\n      jump\t// out\n        /* \"#utility.yul\":2893:3007   */\n    tag_68:\n        /* \"#utility.yul\":2960:2966   */\n      0x00\n        /* \"#utility.yul\":2994:2999   */\n      dup2\n        /* \"#utility.yul\":2988:3000   */\n      mload\n        /* \"#utility.yul\":2978:3000   */\n      swap1\n      pop\n        /* \"#utility.yul\":2893:3007   */\n      swap2\n      swap1\n      pop\n      jump\t// out\n        /* \"#utility.yul\":3013:3197   */\n    tag_69:\n        /* \"#utility.yul\":3112:3123   */\n      0x00\n        /* \"#utility.yul\":3146:3152   */\n      dup3\n        /* \"#utility.yul\":3141:3144   */\n      dup3\n        /* \"#utility.yul\":3134:3153   */\n      mstore\n        /* \"#utility.yul\":3186:3190   */\n      0x20\n        /* \"#utility.yul\":3181:3184   */\n      dup3\n        /* \"#utility.yul\":3177:3191   */\n      add\n        /* \"#utility.yul\":3162:3191   */\n      swap1\n      pop\n        /* \"#utility.yul\":3013:3197   */\n      swap3\n      swap2\n      pop\n      pop\n      jump\t// out\n        /* \"#utility.yul\":3203:3335   */\n    tag_70:\n        /* \"#utility.yul\":3270:3274   */\n      0x00\n        /* \"#utility.yul\":3293:3296   */\n      dup2\n        /* \"#utility.yul\":3285:3296   */\n      swap1\n      pop\n        /* \"#utility.yul\":3323:3327   */\n      0x20\n        /* \"#utility.yul\":3318:3321   */\n      dup3\n        /* \"#utility.yul\":3314:3328   */\n      add\n        /* \"#utility.yul\":3306:3328   */\n      swap1\n      pop\n        /* \"#utility.yul\":3203:3335   */\n      swap2\n      swap1\n      pop\n      jump\t// out\n        /* \"#utility.yul\":3341:3449   */\n    tag_71:\n        /* \"#utility.yul\":3418:3442   */\n      tag_117\n        /* \"#utility.yul\":3436:3441   */\n      dup2\n        /* \"#utility.yul\":3418:3442   */\n      tag_56\n      jump\t// in\n    tag_117:\n        /* \"#utility.yul\":3413:3416   */\n      dup3\n        /* \"#utility.yul\":3406:3443   */\n      mstore\n        /* \"#utility.yul\":3341:3449   */\n      pop\n      pop\n      jump\t// out\n        /* \"#utility.yul\":3455:3634   */\n    tag_72:\n        /* \"#utility.yul\":3524:3534   */\n      0x00\n        /* \"#utility.yul\":3545:3591   */\n      tag_119\n        /* \"#utility.yul\":3587:3590   */\n      dup4\n        /* \"#utility.yul\":3579:3585   */\n      dup4\n        /* \"#utility.yul\":3545:3591   */\n      tag_71\n      jump\t// in\n    tag_119:\n        /* \"#utility.yul\":3623:3627   */\n      0x20\n        /* \"#utility.yul\":3618:3621   */\n      dup4\n        /* \"#utility.yul\":3614:3628   */\n      add\n        /* \"#utility.yul\":3600:3628   */\n      swap1\n      pop\n        /* \"#utility.yul\":3455:3634   */\n      swap3\n      swap2\n      pop\n      pop\n      jump\t// out\n        /* \"#utility.yul\":3640:3753   */\n    tag_73:\n        /* \"#utility.yul\":3710:3714   */\n      0x00\n        /* \"#utility.yul\":3742:3746   */\n      0x20\n        /* \"#utility.yul\":3737:3740   */\n      dup3\n        /* \"#utility.yul\":3733:3747   */\n      add\n        /* \"#utility.yul\":3725:3747   */\n      swap1\n      pop\n        /* \"#utility.yul\":3640:3753   */\n      swap2\n      swap1\n      pop\n      jump\t// out\n        /* \"#utility.yul\":3789:4521   */\n    tag_74:\n        /* \"#utility.yul\":3908:3911   */\n      0x00\n        /* \"#utility.yul\":3937:3991   */\n      tag_122\n        /* \"#utility.yul\":3985:3990   */\n      dup3\n        /* \"#utility.yul\":3937:3991   */\n      tag_68\n      jump\t// in\n    tag_122:\n        /* \"#utility.yul\":4007:4093   */\n      tag_123\n        /* \"#utility.yul\":4086:4092   */\n      dup2\n        /* \"#utility.yul\":4081:4084   */\n      dup6\n        /* \"#utility.yul\":4007:4093   */\n      tag_69\n      jump\t// in\n    tag_123:\n        /* \"#utility.yul\":4000:4093   */\n      swap4\n      pop\n        /* \"#utility.yul\":4117:4173   */\n      tag_124\n        /* \"#utility.yul\":4167:4172   */\n      dup4\n        /* \"#utility.yul\":4117:4173   */\n      tag_70\n      jump\t// in\n    tag_124:\n        /* \"#utility.yul\":4196:4203   */\n      dup1\n        /* \"#utility.yul\":4227:4228   */\n      0x00\n        /* \"#utility.yul\":4212:4496   */\n    tag_125:\n        /* \"#utility.yul\":4237:4243   */\n      dup4\n        /* \"#utility.yul\":4234:4235   */\n      dup2\n        /* \"#utility.yul\":4231:4244   */\n      lt\n        /* \"#utility.yul\":4212:4496   */\n      iszero\n      tag_127\n      jumpi\n        /* \"#utility.yul\":4313:4319   */\n      dup2\n        /* \"#utility.yul\":4307:4320   */\n      mload\n        /* \"#utility.yul\":4340:4403   */\n      tag_128\n        /* \"#utility.yul\":4399:4402   */\n      dup9\n        /* \"#utility.yul\":4384:4397   */\n      dup3\n        /* \"#utility.yul\":4340:4403   */\n      tag_72\n      jump\t// in\n    tag_128:\n        /* \"#utility.yul\":4333:4403   */\n      swap8\n      pop\n        /* \"#utility.yul\":4426:4486   */\n      tag_129\n        /* \"#utility.yul\":4479:4485   */\n      dup4\n        /* \"#utility.yul\":4426:4486   */\n      tag_73\n      jump\t// in\n    tag_129:\n        /* \"#utility.yul\":4416:4486   */\n      swap3\n      pop\n        /* \"#utility.yul\":4272:4496   */\n      pop\n        /* \"#utility.yul\":4259:4260   */\n      0x01\n        /* \"#utility.yul\":4256:4257   */\n      dup2\n        /* \"#utility.yul\":4252:4261   */\n      add\n        /* \"#utility.yul\":4247:4261   */\n      swap1\n      pop\n        /* \"#utility.yul\":4212:4496   */\n      jump(tag_125)\n    tag_127:\n        /* \"#utility.yul\":4216:4230   */\n      pop\n        /* \"#utility.yul\":4512:4515   */\n      dup6\n        /* \"#utility.yul\":4505:4515   */\n      swap4\n      pop\n        /* \"#utility.yul\":3913:4521   */\n      pop\n      pop\n      pop\n        /* \"#utility.yul\":3789:4521   */\n      swap3\n      swap2\n      pop\n      pop\n      jump\t// out\n        /* \"#utility.yul\":4527:5161   */\n    tag_15:\n        /* \"#utility.yul\":4748:4752   */\n      0x00\n        /* \"#utility.yul\":4786:4788   */\n      0x40\n        /* \"#utility.yul\":4775:4784   */\n      dup3\n        /* \"#utility.yul\":4771:4789   */\n      add\n        /* \"#utility.yul\":4763:4789   */\n      swap1\n      pop\n        /* \"#utility.yul\":4835:4844   */\n      dup2\n        /* \"#utility.yul\":4829:4833   */\n      dup2\n        /* \"#utility.yul\":4825:4845   */\n      sub\n        /* \"#utility.yul\":4821:4822   */\n      0x00\n        /* \"#utility.yul\":4810:4819   */\n      dup4\n        /* \"#utility.yul\":4806:4823   */\n      add\n        /* \"#utility.yul\":4799:4846   */\n      mstore\n        /* \"#utility.yul\":4863:4971   */\n      tag_131\n        /* \"#utility.yul\":4966:4970   */\n      dup2\n        /* \"#utility.yul\":4957:4963   */\n      dup6\n        /* \"#utility.yul\":4863:4971   */\n      tag_67\n      jump\t// in\n    tag_131:\n        /* \"#utility.yul\":4855:4971   */\n      swap1\n      pop\n        /* \"#utility.yul\":5018:5027   */\n      dup2\n        /* \"#utility.yul\":5012:5016   */\n      dup2\n        /* \"#utility.yul\":5008:5028   */\n      sub\n        /* \"#utility.yul\":5003:5005   */\n      0x20\n        /* \"#utility.yul\":4992:5001   */\n      dup4\n        /* \"#utility.yul\":4988:5006   */\n      add\n        /* \"#utility.yul\":4981:5029   */\n      mstore\n        /* \"#utility.yul\":5046:5154   */\n      tag_132\n        /* \"#utility.yul\":5149:5153   */\n      dup2\n        /* \"#utility.yul\":5140:5146   */\n      dup5\n        /* \"#utility.yul\":5046:5154   */\n      tag_74\n      jump\t// in\n    tag_132:\n        /* \"#utility.yul\":5038:5154   */\n      swap1\n      pop\n        /* \"#utility.yul\":4527:5161   */\n      swap4\n      swap3\n      pop\n      pop\n      pop\n      jump\t// out\n        /* \"#utility.yul\":5167:5336   */\n    tag_75:\n        /* \"#utility.yul\":5251:5262   */\n      0x00\n        /* \"#utility.yul\":5285:5291   */\n      dup3\n        /* \"#utility.yul\":5280:5283   */\n      dup3\n        /* \"#utility.yul\":5273:5292   */\n      mstore\n        /* \"#utility.yul\":5325:5329   */\n      0x20\n        /* \"#utility.yul\":5320:5323   */\n      dup3\n        /* \"#utility.yul\":5316:5330   */\n      add\n        /* \"#utility.yul\":5301:5330   */\n      swap1\n      pop\n        /* \"#utility.yul\":5167:5336   */\n      swap3\n      swap2\n      pop\n      pop\n      jump\t// out\n        /* \"#utility.yul\":5342:5506   */\n    tag_76:\n        /* \"#utility.yul\":5482:5498   */\n      0x7361692064696120636869207669000000000000000000000000000000000000\n        /* \"#utility.yul\":5478:5479   */\n      0x00\n        /* \"#utility.yul\":5470:5476   */\n      dup3\n        /* \"#utility.yul\":5466:5480   */\n      add\n        /* \"#utility.yul\":5459:5499   */\n      mstore\n        /* \"#utility.yul\":5342:5506   */\n      pop\n      jump\t// out\n        /* \"#utility.yul\":5512:5878   */\n    tag_77:\n        /* \"#utility.yul\":5654:5657   */\n      0x00\n        /* \"#utility.yul\":5675:5742   */\n      tag_136\n        /* \"#utility.yul\":5739:5741   */\n      0x0e\n        /* \"#utility.yul\":5734:5737   */\n      dup4\n        /* \"#utility.yul\":5675:5742   */\n      tag_75\n      jump\t// in\n    tag_136:\n        /* \"#utility.yul\":5668:5742   */\n      swap2\n      pop\n        /* \"#utility.yul\":5751:5844   */\n      tag_137\n        /* \"#utility.yul\":5840:5843   */\n      dup3\n        /* \"#utility.yul\":5751:5844   */\n      tag_76\n      jump\t// in\n    tag_137:\n        /* \"#utility.yul\":5869:5871   */\n      0x20\n        /* \"#utility.yul\":5864:5867   */\n      dup3\n        /* \"#utility.yul\":5860:5872   */\n      add\n        /* \"#utility.yul\":5853:5872   */\n      swap1\n      pop\n        /* \"#utility.yul\":5512:5878   */\n      swap2\n      swap1\n      pop\n      jump\t// out\n        /* \"#utility.yul\":5884:6303   */\n    tag_24:\n        /* \"#utility.yul\":6050:6054   */\n      0x00\n        /* \"#utility.yul\":6088:6090   */\n      0x20\n        /* \"#utility.yul\":6077:6086   */\n      dup3\n        /* \"#utility.yul\":6073:6091   */\n      add\n        /* \"#utility.yul\":6065:6091   */\n      swap1\n      pop\n        /* \"#utility.yul\":6137:6146   */\n      dup2\n        /* \"#utility.yul\":6131:6135   */\n      dup2\n        /* \"#utility.yul\":6127:6147   */\n      sub\n        /* \"#utility.yul\":6123:6124   */\n      0x00\n        /* \"#utility.yul\":6112:6121   */\n      dup4\n        /* \"#utility.yul\":6108:6125   */\n      add\n        /* \"#utility.yul\":6101:6148   */\n      mstore\n        /* \"#utility.yul\":6165:6296   */\n      tag_139\n        /* \"#utility.yul\":6291:6295   */\n      dup2\n        /* \"#utility.yul\":6165:6296   */\n      tag_77\n      jump\t// in\n    tag_139:\n        /* \"#utility.yul\":6157:6296   */\n      swap1\n      pop\n        /* \"#utility.yul\":5884:6303   */\n      swap2\n      swap1\n      pop\n      jump\t// out\n        /* \"#utility.yul\":6309:6489   */\n    tag_30:\n        /* \"#utility.yul\":6357:6434   */\n      0x4e487b7100000000000000000000000000000000000000000000000000000000\n        /* \"#utility.yul\":6354:6355   */\n      0x00\n        /* \"#utility.yul\":6347:6435   */\n      mstore\n        /* \"#utility.yul\":6454:6458   */\n      0x41\n        /* \"#utility.yul\":6451:6452   */\n      0x04\n        /* \"#utility.yul\":6444:6459   */\n      mstore\n        /* \"#utility.yul\":6478:6482   */\n      0x24\n        /* \"#utility.yul\":6475:6476   */\n      0x00\n        /* \"#utility.yul\":6468:6483   */\n      revert\n        /* \"#utility.yul\":6495:6675   */\n    tag_37:\n        /* \"#utility.yul\":6543:6620   */\n      0x4e487b7100000000000000000000000000000000000000000000000000000000\n        /* \"#utility.yul\":6540:6541   */\n      0x00\n        /* \"#utility.yul\":6533:6621   */\n      mstore\n        /* \"#utility.yul\":6640:6644   */\n      0x32\n        /* \"#utility.yul\":6637:6638   */\n      0x04\n        /* \"#utility.yul\":6630:6645   */\n      mstore\n        /* \"#utility.yul\":6664:6668   */\n      0x24\n        /* \"#utility.yul\":6661:6662   */\n      0x00\n        /* \"#utility.yul\":6654:6669   */\n      revert\n        /* \"#utility.yul\":6681:6861   */\n    tag_78:\n        /* \"#utility.yul\":6729:6806   */\n      0x4e487b7100000000000000000000000000000000000000000000000000000000\n        /* \"#utility.yul\":6726:6727   */\n      0x00\n        /* \"#utility.yul\":6719:6807   */\n      mstore\n        /* \"#utility.yul\":6826:6830   */\n      0x11\n        /* \"#utility.yul\":6823:6824   */\n      0x04\n        /* \"#utility.yul\":6816:6831   */\n      mstore\n        /* \"#utility.yul\":6850:6854   */\n      0x24\n        /* \"#utility.yul\":6847:6848   */\n      0x00\n        /* \"#utility.yul\":6840:6855   */\n      revert\n        /* \"#utility.yul\":6867:7058   */\n    tag_52:\n        /* \"#utility.yul\":6907:6910   */\n      0x00\n        /* \"#utility.yul\":6926:6946   */\n      tag_144\n        /* \"#utility.yul\":6944:6945   */\n      dup3\n        /* \"#utility.yul\":6926:6946   */\n      tag_56\n      jump\t// in\n    tag_144:\n        /* \"#utility.yul\":6921:6946   */\n      swap2\n      pop\n        /* \"#utility.yul\":6960:6980   */\n      tag_145\n        /* \"#utility.yul\":6978:6979   */\n      dup4\n        /* \"#utility.yul\":6960:6980   */\n      tag_56\n      jump\t// in\n    tag_145:\n        /* \"#utility.yul\":6955:6980   */\n      swap3\n      pop\n        /* \"#utility.yul\":7003:7004   */\n      dup3\n        /* \"#utility.yul\":7000:7001   */\n      dup3\n        /* \"#utility.yul\":6996:7005   */\n      add\n        /* \"#utility.yul\":6989:7005   */\n      swap1\n      pop\n        /* \"#utility.yul\":7024:7027   */\n      dup1\n        /* \"#utility.yul\":7021:7022   */\n      dup3\n        /* \"#utility.yul\":7018:7028   */\n      gt\n        /* \"#utility.yul\":7015:7051   */\n      iszero\n      tag_146\n      jumpi\n        /* \"#utility.yul\":7031:7049   */\n      tag_147\n      tag_78\n      jump\t// in\n    tag_147:\n        /* \"#utility.yul\":7015:7051   */\n    tag_146:\n        /* \"#utility.yul\":6867:7058   */\n      swap3\n      swap2\n      pop\n      pop\n      jump\t// out\n\n    auxdata: 0xa26469706673582212206488e806eb6cc228904618bc80fff40aba6b41e9c52d23c3c77aa2fbf4ab051e64736f6c634300081a0033\n}\n",
				"bytecode": {
					"linkReferences": {},
					"object": "6080604052348015600e575f80fd5b50335f806101000a81548173ffffffffffffffffffffffffffffffffffffffff021916908373ffffffffffffffffffffffffffffffffffffffff16021790555061088d8061005b5f395ff3fe60806040526004361061003e575f3560e01c80632e1a7d4d1461004257806338a59a071461006a5780633ccfd60b14610095578063d0e30db0146100ab575b5f80fd5b34801561004d575f80fd5b5061006860048036038101906100639190610527565b6100b5565b005b348015610075575f80fd5b5061007e610189565b60405161008c9291906106f0565b60405180910390f35b3480156100a0575f80fd5b506100a9610323565b005b6100b36103f6565b005b3373ffffffffffffffffffffffffffffffffffffffff165f8054906101000a900473ffffffffffffffffffffffffffffffffffffffff1673ffffffffffffffffffffffffffffffffffffffff1614610142576040517f08c379a00000000000000000000000000000000000000000000000000000000081526004016101399061077f565b60405180910390fd5b3373ffffffffffffffffffffffffffffffffffffffff166108fc8290811502906040515f60405180830381858888f19350505050158015610185573d5f803e3d5ffd5b5050565b6060805f60028054905067ffffffffffffffff8111156101ac576101ab61079d565b5b6040519080825280602002602001820160405280156101da5781602001602082028036833780820191505090505b5090505f5b6002805490508110156102915760015f60028381548110610203576102026107ca565b5b905f5260205f20015f9054906101000a900473ffffffffffffffffffffffffffffffffffffffff1673ffffffffffffffffffffffffffffffffffffffff1673ffffffffffffffffffffffffffffffffffffffff1681526020019081526020015f2054828281518110610278576102776107ca565b5b60200260200101818152505080806001019150506101df565b506002818180548060200260200160405190810160405280929190818152602001828054801561031357602002820191905f5260205f20905b815f9054906101000a900473ffffffffffffffffffffffffffffffffffffffff1673ffffffffffffffffffffffffffffffffffffffff16815260200190600101908083116102ca575b5050505050915092509250509091565b3373ffffffffffffffffffffffffffffffffffffffff165f8054906101000a900473ffffffffffffffffffffffffffffffffffffffff1673ffffffffffffffffffffffffffffffffffffffff16146103b0576040517f08c379a00000000000000000000000000000000000000000000000000000000081526004016103a79061077f565b60405180910390fd5b3373ffffffffffffffffffffffffffffffffffffffff166108fc4790811502906040515f60405180830381858888f193505050501580156103f3573d5f803e3d5ffd5b50565b5f60015f3373ffffffffffffffffffffffffffffffffffffffff1673ffffffffffffffffffffffffffffffffffffffff1681526020019081526020015f20540361049b57600233908060018154018082558091505060019003905f5260205f20015f9091909190916101000a81548173ffffffffffffffffffffffffffffffffffffffff021916908373ffffffffffffffffffffffffffffffffffffffff1602179055505b3460015f3373ffffffffffffffffffffffffffffffffffffffff1673ffffffffffffffffffffffffffffffffffffffff1681526020019081526020015f205f8282546104e79190610824565b92505081905550565b5f80fd5b5f819050919050565b610506816104f4565b8114610510575f80fd5b50565b5f81359050610521816104fd565b92915050565b5f6020828403121561053c5761053b6104f0565b5b5f61054984828501610513565b91505092915050565b5f81519050919050565b5f82825260208201905092915050565b5f819050602082019050919050565b5f73ffffffffffffffffffffffffffffffffffffffff82169050919050565b5f6105a48261057b565b9050919050565b6105b48161059a565b82525050565b5f6105c583836105ab565b60208301905092915050565b5f602082019050919050565b5f6105e782610552565b6105f1818561055c565b93506105fc8361056c565b805f5b8381101561062c57815161061388826105ba565b975061061e836105d1565b9250506001810190506105ff565b5085935050505092915050565b5f81519050919050565b5f82825260208201905092915050565b5f819050602082019050919050565b61066b816104f4565b82525050565b5f61067c8383610662565b60208301905092915050565b5f602082019050919050565b5f61069e82610639565b6106a88185610643565b93506106b383610653565b805f5b838110156106e35781516106ca8882610671565b97506106d583610688565b9250506001810190506106b6565b5085935050505092915050565b5f6040820190508181035f83015261070881856105dd565b9050818103602083015261071c8184610694565b90509392505050565b5f82825260208201905092915050565b7f73616920646961206368692076690000000000000000000000000000000000005f82015250565b5f610769600e83610725565b915061077482610735565b602082019050919050565b5f6020820190508181035f8301526107968161075d565b9050919050565b7f4e487b71000000000000000000000000000000000000000000000000000000005f52604160045260245ffd5b7f4e487b71000000000000000000000000000000000000000000000000000000005f52603260045260245ffd5b7f4e487b71000000000000000000000000000000000000000000000000000000005f52601160045260245ffd5b5f61082e826104f4565b9150610839836104f4565b9250828201905080821115610851576108506107f7565b5b9291505056fea26469706673582212206488e806eb6cc228904618bc80fff40aba6b41e9c52d23c3c77aa2fbf4ab051e64736f6c634300081a0033",
					"opcodes": "PUSH1 0x80 PUSH1 0x40 MSTORE CALLVALUE DUP1 ISZERO PUSH1 0xE JUMPI PUSH0 DUP1 REVERT JUMPDEST POP CALLER PUSH0 DUP1 PUSH2 0x100 EXP DUP2 SLOAD DUP2 PUSH20 0xFFFFFFFFFFFFFFFFFFFFFFFFFFFFFFFFFFFFFFFF MUL NOT AND SWAP1 DUP4 PUSH20 0xFFFFFFFFFFFFFFFFFFFFFFFFFFFFFFFFFFFFFFFF AND MUL OR SWAP1 SSTORE POP PUSH2 0x88D DUP1 PUSH2 0x5B PUSH0 CODECOPY PUSH0 RETURN INVALID PUSH1 0x80 PUSH1 0x40 MSTORE PUSH1 0x4 CALLDATASIZE LT PUSH2 0x3E JUMPI PUSH0 CALLDATALOAD PUSH1 0xE0 SHR DUP1 PUSH4 0x2E1A7D4D EQ PUSH2 0x42 JUMPI DUP1 PUSH4 0x38A59A07 EQ PUSH2 0x6A JUMPI DUP1 PUSH4 0x3CCFD60B EQ PUSH2 0x95 JUMPI DUP1 PUSH4 0xD0E30DB0 EQ PUSH2 0xAB JUMPI JUMPDEST PUSH0 DUP1 REVERT JUMPDEST CALLVALUE DUP1 ISZERO PUSH2 0x4D JUMPI PUSH0 DUP1 REVERT JUMPDEST POP PUSH2 0x68 PUSH1 0x4 DUP1 CALLDATASIZE SUB DUP2 ADD SWAP1 PUSH2 0x63 SWAP2 SWAP1 PUSH2 0x527 JUMP JUMPDEST PUSH2 0xB5 JUMP JUMPDEST STOP JUMPDEST CALLVALUE DUP1 ISZERO PUSH2 0x75 JUMPI PUSH0 DUP1 REVERT JUMPDEST POP PUSH2 0x7E PUSH2 0x189 JUMP JUMPDEST PUSH1 0x40 MLOAD PUSH2 0x8C SWAP3 SWAP2 SWAP1 PUSH2 0x6F0 JUMP JUMPDEST PUSH1 0x40 MLOAD DUP1 SWAP2 SUB SWAP1 RETURN JUMPDEST CALLVALUE DUP1 ISZERO PUSH2 0xA0 JUMPI PUSH0 DUP1 REVERT JUMPDEST POP PUSH2 0xA9 PUSH2 0x323 JUMP JUMPDEST STOP JUMPDEST PUSH2 0xB3 PUSH2 0x3F6 JUMP JUMPDEST STOP JUMPDEST CALLER PUSH20 0xFFFFFFFFFFFFFFFFFFFFFFFFFFFFFFFFFFFFFFFF AND PUSH0 DUP1 SLOAD SWAP1 PUSH2 0x100 EXP SWAP1 DIV PUSH20 0xFFFFFFFFFFFFFFFFFFFFFFFFFFFFFFFFFFFFFFFF AND PUSH20 0xFFFFFFFFFFFFFFFFFFFFFFFFFFFFFFFFFFFFFFFF AND EQ PUSH2 0x142 JUMPI PUSH1 0x40 MLOAD PUSH32 0x8C379A000000000000000000000000000000000000000000000000000000000 DUP2 MSTORE PUSH1 0x4 ADD PUSH2 0x139 SWAP1 PUSH2 0x77F JUMP JUMPDEST PUSH1 0x40 MLOAD DUP1 SWAP2 SUB SWAP1 REVERT JUMPDEST CALLER PUSH20 0xFFFFFFFFFFFFFFFFFFFFFFFFFFFFFFFFFFFFFFFF AND PUSH2 0x8FC DUP3 SWAP1 DUP2 ISZERO MUL SWAP1 PUSH1 0x40 MLOAD PUSH0 PUSH1 0x40 MLOAD DUP1 DUP4 SUB DUP2 DUP6 DUP9 DUP9 CALL SWAP4 POP POP POP POP ISZERO DUP1 ISZERO PUSH2 0x185 JUMPI RETURNDATASIZE PUSH0 DUP1 RETURNDATACOPY RETURNDATASIZE PUSH0 REVERT JUMPDEST POP POP JUMP JUMPDEST PUSH1 0x60 DUP1 PUSH0 PUSH1 0x2 DUP1 SLOAD SWAP1 POP PUSH8 0xFFFFFFFFFFFFFFFF DUP2 GT ISZERO PUSH2 0x1AC JUMPI PUSH2 0x1AB PUSH2 0x79D JUMP JUMPDEST JUMPDEST PUSH1 0x40 MLOAD SWAP1 DUP1 DUP3 MSTORE DUP1 PUSH1 0x20 MUL PUSH1 0x20 ADD DUP3 ADD PUSH1 0x40 MSTORE DUP1 ISZERO PUSH2 0x1DA JUMPI DUP2 PUSH1 0x20 ADD PUSH1 0x20 DUP3 MUL DUP1 CALLDATASIZE DUP4 CALLDATACOPY DUP1 DUP3 ADD SWAP2 POP POP SWAP1 POP JUMPDEST POP SWAP1 POP PUSH0 JUMPDEST PUSH1 0x2 DUP1 SLOAD SWAP1 POP DUP2 LT ISZERO PUSH2 0x291 JUMPI PUSH1 0x1 PUSH0 PUSH1 0x2 DUP4 DUP2 SLOAD DUP2 LT PUSH2 0x203 JUMPI PUSH2 0x202 PUSH2 0x7CA JUMP JUMPDEST JUMPDEST SWAP1 PUSH0 MSTORE PUSH1 0x20 PUSH0 KECCAK256 ADD PUSH0 SWAP1 SLOAD SWAP1 PUSH2 0x100 EXP SWAP1 DIV PUSH20 0xFFFFFFFFFFFFFFFFFFFFFFFFFFFFFFFFFFFFFFFF AND PUSH20 0xFFFFFFFFFFFFFFFFFFFFFFFFFFFFFFFFFFFFFFFF AND PUSH20 0xFFFFFFFFFFFFFFFFFFFFFFFFFFFFFFFFFFFFFFFF AND DUP2 MSTORE PUSH1 0x20 ADD SWAP1 DUP2 MSTORE PUSH1 0x20 ADD PUSH0 KECCAK256 SLOAD DUP3 DUP3 DUP2 MLOAD DUP2 LT PUSH2 0x278 JUMPI PUSH2 0x277 PUSH2 0x7CA JUMP JUMPDEST JUMPDEST PUSH1 0x20 MUL PUSH1 0x20 ADD ADD DUP2 DUP2 MSTORE POP POP DUP1 DUP1 PUSH1 0x1 ADD SWAP2 POP POP PUSH2 0x1DF JUMP JUMPDEST POP PUSH1 0x2 DUP2 DUP2 DUP1 SLOAD DUP1 PUSH1 0x20 MUL PUSH1 0x20 ADD PUSH1 0x40 MLOAD SWAP1 DUP2 ADD PUSH1 0x40 MSTORE DUP1 SWAP3 SWAP2 SWAP1 DUP2 DUP2 MSTORE PUSH1 0x20 ADD DUP3 DUP1 SLOAD DUP1 ISZERO PUSH2 0x313 JUMPI PUSH1 0x20 MUL DUP3 ADD SWAP2 SWAP1 PUSH0 MSTORE PUSH1 0x20 PUSH0 KECCAK256 SWAP1 JUMPDEST DUP2 PUSH0 SWAP1 SLOAD SWAP1 PUSH2 0x100 EXP SWAP1 DIV PUSH20 0xFFFFFFFFFFFFFFFFFFFFFFFFFFFFFFFFFFFFFFFF AND PUSH20 0xFFFFFFFFFFFFFFFFFFFFFFFFFFFFFFFFFFFFFFFF AND DUP2 MSTORE PUSH1 0x20 ADD SWAP1 PUSH1 0x1 ADD SWAP1 DUP1 DUP4 GT PUSH2 0x2CA JUMPI JUMPDEST POP POP POP POP POP SWAP2 POP SWAP3 POP SWAP3 POP POP SWAP1 SWAP2 JUMP JUMPDEST CALLER PUSH20 0xFFFFFFFFFFFFFFFFFFFFFFFFFFFFFFFFFFFFFFFF AND PUSH0 DUP1 SLOAD SWAP1 PUSH2 0x100 EXP SWAP1 DIV PUSH20 0xFFFFFFFFFFFFFFFFFFFFFFFFFFFFFFFFFFFFFFFF AND PUSH20 0xFFFFFFFFFFFFFFFFFFFFFFFFFFFFFFFFFFFFFFFF AND EQ PUSH2 0x3B0 JUMPI PUSH1 0x40 MLOAD PUSH32 0x8C379A000000000000000000000000000000000000000000000000000000000 DUP2 MSTORE PUSH1 0x4 ADD PUSH2 0x3A7 SWAP1 PUSH2 0x77F JUMP JUMPDEST PUSH1 0x40 MLOAD DUP1 SWAP2 SUB SWAP1 REVERT JUMPDEST CALLER PUSH20 0xFFFFFFFFFFFFFFFFFFFFFFFFFFFFFFFFFFFFFFFF AND PUSH2 0x8FC SELFBALANCE SWAP1 DUP2 ISZERO MUL SWAP1 PUSH1 0x40 MLOAD PUSH0 PUSH1 0x40 MLOAD DUP1 DUP4 SUB DUP2 DUP6 DUP9 DUP9 CALL SWAP4 POP POP POP POP ISZERO DUP1 ISZERO PUSH2 0x3F3 JUMPI RETURNDATASIZE PUSH0 DUP1 RETURNDATACOPY RETURNDATASIZE PUSH0 REVERT JUMPDEST POP JUMP JUMPDEST PUSH0 PUSH1 0x1 PUSH0 CALLER PUSH20 0xFFFFFFFFFFFFFFFFFFFFFFFFFFFFFFFFFFFFFFFF AND PUSH20 0xFFFFFFFFFFFFFFFFFFFFFFFFFFFFFFFFFFFFFFFF AND DUP2 MSTORE PUSH1 0x20 ADD SWAP1 DUP2 MSTORE PUSH1 0x20 ADD PUSH0 KECCAK256 SLOAD SUB PUSH2 0x49B JUMPI PUSH1 0x2 CALLER SWAP1 DUP1 PUSH1 0x1 DUP2 SLOAD ADD DUP1 DUP3 SSTORE DUP1 SWAP2 POP POP PUSH1 0x1 SWAP1 SUB SWAP1 PUSH0 MSTORE PUSH1 0x20 PUSH0 KECCAK256 ADD PUSH0 SWAP1 SWAP2 SWAP1 SWAP2 SWAP1 SWAP2 PUSH2 0x100 EXP DUP2 SLOAD DUP2 PUSH20 0xFFFFFFFFFFFFFFFFFFFFFFFFFFFFFFFFFFFFFFFF MUL NOT AND SWAP1 DUP4 PUSH20 0xFFFFFFFFFFFFFFFFFFFFFFFFFFFFFFFFFFFFFFFF AND MUL OR SWAP1 SSTORE POP JUMPDEST CALLVALUE PUSH1 0x1 PUSH0 CALLER PUSH20 0xFFFFFFFFFFFFFFFFFFFFFFFFFFFFFFFFFFFFFFFF AND PUSH20 0xFFFFFFFFFFFFFFFFFFFFFFFFFFFFFFFFFFFFFFFF AND DUP2 MSTORE PUSH1 0x20 ADD SWAP1 DUP2 MSTORE PUSH1 0x20 ADD PUSH0 KECCAK256 PUSH0 DUP3 DUP3 SLOAD PUSH2 0x4E7 SWAP2 SWAP1 PUSH2 0x824 JUMP JUMPDEST SWAP3 POP POP DUP2 SWAP1 SSTORE POP JUMP JUMPDEST PUSH0 DUP1 REVERT JUMPDEST PUSH0 DUP2 SWAP1 POP SWAP2 SWAP1 POP JUMP JUMPDEST PUSH2 0x506 DUP2 PUSH2 0x4F4 JUMP JUMPDEST DUP2 EQ PUSH2 0x510 JUMPI PUSH0 DUP1 REVERT JUMPDEST POP JUMP JUMPDEST PUSH0 DUP2 CALLDATALOAD SWAP1 POP PUSH2 0x521 DUP2 PUSH2 0x4FD JUMP JUMPDEST SWAP3 SWAP2 POP POP JUMP JUMPDEST PUSH0 PUSH1 0x20 DUP3 DUP5 SUB SLT ISZERO PUSH2 0x53C JUMPI PUSH2 0x53B PUSH2 0x4F0 JUMP JUMPDEST JUMPDEST PUSH0 PUSH2 0x549 DUP5 DUP3 DUP6 ADD PUSH2 0x513 JUMP JUMPDEST SWAP2 POP POP SWAP3 SWAP2 POP POP JUMP JUMPDEST PUSH0 DUP2 MLOAD SWAP1 POP SWAP2 SWAP1 POP JUMP JUMPDEST PUSH0 DUP3 DUP3 MSTORE PUSH1 0x20 DUP3 ADD SWAP1 POP SWAP3 SWAP2 POP POP JUMP JUMPDEST PUSH0 DUP2 SWAP1 POP PUSH1 0x20 DUP3 ADD SWAP1 POP SWAP2 SWAP1 POP JUMP JUMPDEST PUSH0 PUSH20 0xFFFFFFFFFFFFFFFFFFFFFFFFFFFFFFFFFFFFFFFF DUP3 AND SWAP1 POP SWAP2 SWAP1 POP JUMP JUMPDEST PUSH0 PUSH2 0x5A4 DUP3 PUSH2 0x57B JUMP JUMPDEST SWAP1 POP SWAP2 SWAP1 POP JUMP JUMPDEST PUSH2 0x5B4 DUP2 PUSH2 0x59A JUMP JUMPDEST DUP3 MSTORE POP POP JUMP JUMPDEST PUSH0 PUSH2 0x5C5 DUP4 DUP4 PUSH2 0x5AB JUMP JUMPDEST PUSH1 0x20 DUP4 ADD SWAP1 POP SWAP3 SWAP2 POP POP JUMP JUMPDEST PUSH0 PUSH1 0x20 DUP3 ADD SWAP1 POP SWAP2 SWAP1 POP JUMP JUMPDEST PUSH0 PUSH2 0x5E7 DUP3 PUSH2 0x552 JUMP JUMPDEST PUSH2 0x5F1 DUP2 DUP6 PUSH2 0x55C JUMP JUMPDEST SWAP4 POP PUSH2 0x5FC DUP4 PUSH2 0x56C JUMP JUMPDEST DUP1 PUSH0 JUMPDEST DUP4 DUP2 LT ISZERO PUSH2 0x62C JUMPI DUP2 MLOAD PUSH2 0x613 DUP9 DUP3 PUSH2 0x5BA JUMP JUMPDEST SWAP8 POP PUSH2 0x61E DUP4 PUSH2 0x5D1 JUMP JUMPDEST SWAP3 POP POP PUSH1 0x1 DUP2 ADD SWAP1 POP PUSH2 0x5FF JUMP JUMPDEST POP DUP6 SWAP4 POP POP POP POP SWAP3 SWAP2 POP POP JUMP JUMPDEST PUSH0 DUP2 MLOAD SWAP1 POP SWAP2 SWAP1 POP JUMP JUMPDEST PUSH0 DUP3 DUP3 MSTORE PUSH1 0x20 DUP3 ADD SWAP1 POP SWAP3 SWAP2 POP POP JUMP JUMPDEST PUSH0 DUP2 SWAP1 POP PUSH1 0x20 DUP3 ADD SWAP1 POP SWAP2 SWAP1 POP JUMP JUMPDEST PUSH2 0x66B DUP2 PUSH2 0x4F4 JUMP JUMPDEST DUP3 MSTORE POP POP JUMP JUMPDEST PUSH0 PUSH2 0x67C DUP4 DUP4 PUSH2 0x662 JUMP JUMPDEST PUSH1 0x20 DUP4 ADD SWAP1 POP SWAP3 SWAP2 POP POP JUMP JUMPDEST PUSH0 PUSH1 0x20 DUP3 ADD SWAP1 POP SWAP2 SWAP1 POP JUMP JUMPDEST PUSH0 PUSH2 0x69E DUP3 PUSH2 0x639 JUMP JUMPDEST PUSH2 0x6A8 DUP2 DUP6 PUSH2 0x643 JUMP JUMPDEST SWAP4 POP PUSH2 0x6B3 DUP4 PUSH2 0x653 JUMP JUMPDEST DUP1 PUSH0 JUMPDEST DUP4 DUP2 LT ISZERO PUSH2 0x6E3 JUMPI DUP2 MLOAD PUSH2 0x6CA DUP9 DUP3 PUSH2 0x671 JUMP JUMPDEST SWAP8 POP PUSH2 0x6D5 DUP4 PUSH2 0x688 JUMP JUMPDEST SWAP3 POP POP PUSH1 0x1 DUP2 ADD SWAP1 POP PUSH2 0x6B6 JUMP JUMPDEST POP DUP6 SWAP4 POP POP POP POP SWAP3 SWAP2 POP POP JUMP JUMPDEST PUSH0 PUSH1 0x40 DUP3 ADD SWAP1 POP DUP2 DUP2 SUB PUSH0 DUP4 ADD MSTORE PUSH2 0x708 DUP2 DUP6 PUSH2 0x5DD JUMP JUMPDEST SWAP1 POP DUP2 DUP2 SUB PUSH1 0x20 DUP4 ADD MSTORE PUSH2 0x71C DUP2 DUP5 PUSH2 0x694 JUMP JUMPDEST SWAP1 POP SWAP4 SWAP3 POP POP POP JUMP JUMPDEST PUSH0 DUP3 DUP3 MSTORE PUSH1 0x20 DUP3 ADD SWAP1 POP SWAP3 SWAP2 POP POP JUMP JUMPDEST PUSH32 0x7361692064696120636869207669000000000000000000000000000000000000 PUSH0 DUP3 ADD MSTORE POP JUMP JUMPDEST PUSH0 PUSH2 0x769 PUSH1 0xE DUP4 PUSH2 0x725 JUMP JUMPDEST SWAP2 POP PUSH2 0x774 DUP3 PUSH2 0x735 JUMP JUMPDEST PUSH1 0x20 DUP3 ADD SWAP1 POP SWAP2 SWAP1 POP JUMP JUMPDEST PUSH0 PUSH1 0x20 DUP3 ADD SWAP1 POP DUP2 DUP2 SUB PUSH0 DUP4 ADD MSTORE PUSH2 0x796 DUP2 PUSH2 0x75D JUMP JUMPDEST SWAP1 POP SWAP2 SWAP1 POP JUMP JUMPDEST PUSH32 0x4E487B7100000000000000000000000000000000000000000000000000000000 PUSH0 MSTORE PUSH1 0x41 PUSH1 0x4 MSTORE PUSH1 0x24 PUSH0 REVERT JUMPDEST PUSH32 0x4E487B7100000000000000000000000000000000000000000000000000000000 PUSH0 MSTORE PUSH1 0x32 PUSH1 0x4 MSTORE PUSH1 0x24 PUSH0 REVERT JUMPDEST PUSH32 0x4E487B7100000000000000000000000000000000000000000000000000000000 PUSH0 MSTORE PUSH1 0x11 PUSH1 0x4 MSTORE PUSH1 0x24 PUSH0 REVERT JUMPDEST PUSH0 PUSH2 0x82E DUP3 PUSH2 0x4F4 JUMP JUMPDEST SWAP2 POP PUSH2 0x839 DUP4 PUSH2 0x4F4 JUMP JUMPDEST SWAP3 POP DUP3 DUP3 ADD SWAP1 POP DUP1 DUP3 GT ISZERO PUSH2 0x851 JUMPI PUSH2 0x850 PUSH2 0x7F7 JUMP JUMPDEST JUMPDEST SWAP3 SWAP2 POP POP JUMP INVALID LOG2 PUSH5 0x6970667358 0x22 SLT KECCAK256 PUSH5 0x88E806EB6C 0xC2 0x28 SWAP1 CHAINID XOR 0xBC DUP1 SELFDESTRUCT DELEGATECALL EXP 0xBA PUSH12 0x41E9C52D23C3C77AA2FBF4AB SDIV 0x1E PUSH5 0x736F6C6343 STOP ADDMOD BYTE STOP CALLER "
				},
				"gasEstimates": {
					"creation": {
						"codeDepositCost": "437800",
						"executionCost": "24737",
						"totalCost": "462537"
					},
					"external": {
						"deposit()": "infinite",
						"getAllDonations()": "infinite",
						"withdraw()": "infinite",
						"withdraw(uint256)": "infinite"
					}
				},
				"methodIdentifiers": {
					"deposit()": "d0e30db0",
					"getAllDonations()": "38a59a07",
					"withdraw()": "3ccfd60b",
					"withdraw(uint256)": "2e1a7d4d"
				}
			},
			"storageLayout": {
				"storage": [
					{
						"astId": 3,
						"contract": "contracts/PersonWallet.sol:PersonWallet",
						"label": "own",
						"offset": 0,
						"slot": "0",
						"type": "t_address"
					},
					{
						"astId": 7,
						"contract": "contracts/PersonWallet.sol:PersonWallet",
						"label": "listDonate",
						"offset": 0,
						"slot": "1",
						"type": "t_mapping(t_address,t_uint256)"
					},
					{
						"astId": 10,
						"contract": "contracts/PersonWallet.sol:PersonWallet",
						"label": "donors",
						"offset": 0,
						"slot": "2",
						"type": "t_array(t_address)dyn_storage"
					}
				],
				"types": {
					"t_address": {
						"encoding": "inplace",
						"label": "address",
						"numberOfBytes": "20"
					},
					"t_array(t_address)dyn_storage": {
						"base": "t_address",
						"encoding": "dynamic_array",
						"label": "address[]",
						"numberOfBytes": "32"
					},
					"t_mapping(t_address,t_uint256)": {
						"encoding": "mapping",
						"key": "t_address",
						"label": "mapping(address => uint256)",
						"numberOfBytes": "32",
						"value": "t_uint256"
					},
					"t_uint256": {
						"encoding": "inplace",
						"label": "uint256",
						"numberOfBytes": "32"
					}
				}
			},
			"userdoc": {
				"kind": "user",
				"methods": {},
				"version": 1
			}
		}
	}
}