{
	"data": {
		"bytecode": {
			"linkReferences": {},
			"object": "6080604052348015600e575f80fd5b5061088a8061001c5f395ff3fe608060405234801561000f575f80fd5b506004361061004a575f3560e01c806320db8b9d1461004e5780633e8ae8c61461006c5780634b115bce14610088578063864fc1b8146100a6575b5f80fd5b6100566100c4565b6040516100639190610298565b60405180910390f35b610086600480360381019061008191906103f5565b6100ee565b005b610090610111565b60405161009d9190610298565b60405180910390f35b6100ae61019d565b6040516100bb9190610298565b60405180910390f35b60605f60016040516020016100da9291906105b0565b604051602081830303815290604052905090565b815f90816100fc9190610785565b50806001908161010c9190610785565b505050565b6001805461011e906104be565b80601f016020809104026020016040519081016040528092919081815260200182805461014a906104be565b80156101955780601f1061016c57610100808354040283529160200191610195565b820191905f5260205f20905b81548152906001019060200180831161017857829003601f168201915b505050505081565b5f80546101a9906104be565b80601f01602080910402602001604051908101604052809291908181526020018280546101d5906104be565b80156102205780601f106101f757610100808354040283529160200191610220565b820191905f5260205f20905b81548152906001019060200180831161020357829003601f168201915b505050505081565b5f81519050919050565b5f82825260208201905092915050565b8281835e5f83830152505050565b5f601f19601f8301169050919050565b5f61026a82610228565b6102748185610232565b9350610284818560208601610242565b61028d81610250565b840191505092915050565b5f6020820190508181035f8301526102b08184610260565b905092915050565b5f604051905090565b5f80fd5b5f80fd5b5f80fd5b5f80fd5b7f4e487b71000000000000000000000000000000000000000000000000000000005f52604160045260245ffd5b61030782610250565b810181811067ffffffffffffffff82111715610326576103256102d1565b5b80604052505050565b5f6103386102b8565b905061034482826102fe565b919050565b5f67ffffffffffffffff821115610363576103626102d1565b5b61036c82610250565b9050602081019050919050565b828183375f83830152505050565b5f61039961039484610349565b61032f565b9050828152602081018484840111156103b5576103b46102cd565b5b6103c0848285610379565b509392505050565b5f82601f8301126103dc576103db6102c9565b5b81356103ec848260208601610387565b91505092915050565b5f806040838503121561040b5761040a6102c1565b5b5f83013567ffffffffffffffff811115610428576104276102c5565b5b610434858286016103c8565b925050602083013567ffffffffffffffff811115610455576104546102c5565b5b610461858286016103c8565b9150509250929050565b7f486f2074656e3a20000000000000000000000000000000000000000000000000815250565b7f4e487b71000000000000000000000000000000000000000000000000000000005f52602260045260245ffd5b5f60028204905060018216806104d557607f821691505b6020821081036104e8576104e7610491565b5b50919050565b5f81905092915050565b5f819050815f5260205f209050919050565b5f8154610516816104be565b61052081866104ee565b9450600182165f811461053a576001811461054f57610581565b60ff1983168652811515820286019350610581565b610558856104f8565b5f5b838110156105795781548189015260018201915060208101905061055a565b838801955050505b50505092915050565b7f2047696f692074696e683a200000000000000000000000000000000000000000815250565b5f6105ba8261046b565b6008820191506105ca828561050a565b91506105d58261058a565b600c820191506105e5828461050a565b91508190509392505050565b5f6020601f8301049050919050565b5f82821b905092915050565b5f6008830261063b7fffffffffffffffffffffffffffffffffffffffffffffffffffffffffffffffff82610600565b6106458683610600565b95508019841693508086168417925050509392505050565b5f819050919050565b5f819050919050565b5f61068961068461067f8461065d565b610666565b61065d565b9050919050565b5f819050919050565b6106a28361066f565b6106b66106ae82610690565b84845461060c565b825550505050565b5f90565b6106ca6106be565b6106d5818484610699565b505050565b5b818110156106f8576106ed5f826106c2565b6001810190506106db565b5050565b601f82111561073d5761070e816104f8565b610717846105f1565b81016020851015610726578190505b61073a610732856105f1565b8301826106da565b50505b505050565b5f82821c905092915050565b5f61075d5f1984600802610742565b1980831691505092915050565b5f610775838361074e565b9150826002028217905092915050565b61078e82610228565b67ffffffffffffffff8111156107a7576107a66102d1565b5b6107b182546104be565b6107bc8282856106fc565b5f60209050601f8311600181146107ed575f84156107db578287015190505b6107e5858261076a565b86555061084c565b601f1984166107fb866104f8565b5f5b82811015610822578489015182556001820191506020850194506020810190506107fd565b8683101561083f578489015161083b601f89168261074e565b8355505b6001600288020188555050505b50505050505056fea2646970667358221220bff39b2e531ef34e24f5dcde74e27ce3aafbe43385d7d2f9fd17d94c32e9e75b64736f6c634300081a0033",
			"opcodes": "PUSH1 0x80 PUSH1 0x40 MSTORE CALLVALUE DUP1 ISZERO PUSH1 0xE JUMPI PUSH0 DUP1 REVERT JUMPDEST POP PUSH2 0x88A DUP1 PUSH2 0x1C PUSH0 CODECOPY PUSH0 RETURN INVALID PUSH1 0x80 PUSH1 0x40 MSTORE CALLVALUE DUP1 ISZERO PUSH2 0xF JUMPI PUSH0 DUP1 REVERT JUMPDEST POP PUSH1 0x4 CALLDATASIZE LT PUSH2 0x4A JUMPI PUSH0 CALLDATALOAD PUSH1 0xE0 SHR DUP1 PUSH4 0x20DB8B9D EQ PUSH2 0x4E JUMPI DUP1 PUSH4 0x3E8AE8C6 EQ PUSH2 0x6C JUMPI DUP1 PUSH4 0x4B115BCE EQ PUSH2 0x88 JUMPI DUP1 PUSH4 0x864FC1B8 EQ PUSH2 0xA6 JUMPI JUMPDEST PUSH0 DUP1 REVERT JUMPDEST PUSH2 0x56 PUSH2 0xC4 JUMP JUMPDEST PUSH1 0x40 MLOAD PUSH2 0x63 SWAP2 SWAP1 PUSH2 0x298 JUMP JUMPDEST PUSH1 0x40 MLOAD DUP1 SWAP2 SUB SWAP1 RETURN JUMPDEST PUSH2 0x86 PUSH1 0x4 DUP1 CALLDATASIZE SUB DUP2 ADD SWAP1 PUSH2 0x81 SWAP2 SWAP1 PUSH2 0x3F5 JUMP JUMPDEST PUSH2 0xEE JUMP JUMPDEST STOP JUMPDEST PUSH2 0x90 PUSH2 0x111 JUMP JUMPDEST PUSH1 0x40 MLOAD PUSH2 0x9D SWAP2 SWAP1 PUSH2 0x298 JUMP JUMPDEST PUSH1 0x40 MLOAD DUP1 SWAP2 SUB SWAP1 RETURN JUMPDEST PUSH2 0xAE PUSH2 0x19D JUMP JUMPDEST PUSH1 0x40 MLOAD PUSH2 0xBB SWAP2 SWAP1 PUSH2 0x298 JUMP JUMPDEST PUSH1 0x40 MLOAD DUP1 SWAP2 SUB SWAP1 RETURN JUMPDEST PUSH1 0x60 PUSH0 PUSH1 0x1 PUSH1 0x40 MLOAD PUSH1 0x20 ADD PUSH2 0xDA SWAP3 SWAP2 SWAP1 PUSH2 0x5B0 JUMP JUMPDEST PUSH1 0x40 MLOAD PUSH1 0x20 DUP2 DUP4 SUB SUB DUP2 MSTORE SWAP1 PUSH1 0x40 MSTORE SWAP1 POP SWAP1 JUMP JUMPDEST DUP2 PUSH0 SWAP1 DUP2 PUSH2 0xFC SWAP2 SWAP1 PUSH2 0x785 JUMP JUMPDEST POP DUP1 PUSH1 0x1 SWAP1 DUP2 PUSH2 0x10C SWAP2 SWAP1 PUSH2 0x785 JUMP JUMPDEST POP POP POP JUMP JUMPDEST PUSH1 0x1 DUP1 SLOAD PUSH2 0x11E SWAP1 PUSH2 0x4BE JUMP JUMPDEST DUP1 PUSH1 0x1F ADD PUSH1 0x20 DUP1 SWAP2 DIV MUL PUSH1 0x20 ADD PUSH1 0x40 MLOAD SWAP1 DUP2 ADD PUSH1 0x40 MSTORE DUP1 SWAP3 SWAP2 SWAP1 DUP2 DUP2 MSTORE PUSH1 0x20 ADD DUP3 DUP1 SLOAD PUSH2 0x14A SWAP1 PUSH2 0x4BE JUMP JUMPDEST DUP1 ISZERO PUSH2 0x195 JUMPI DUP1 PUSH1 0x1F LT PUSH2 0x16C JUMPI PUSH2 0x100 DUP1 DUP4 SLOAD DIV MUL DUP4 MSTORE SWAP2 PUSH1 0x20 ADD SWAP2 PUSH2 0x195 JUMP JUMPDEST DUP3 ADD SWAP2 SWAP1 PUSH0 MSTORE PUSH1 0x20 PUSH0 KECCAK256 SWAP1 JUMPDEST DUP2 SLOAD DUP2 MSTORE SWAP1 PUSH1 0x1 ADD SWAP1 PUSH1 0x20 ADD DUP1 DUP4 GT PUSH2 0x178 JUMPI DUP3 SWAP1 SUB PUSH1 0x1F AND DUP3 ADD SWAP2 JUMPDEST POP POP POP POP POP DUP2 JUMP JUMPDEST PUSH0 DUP1 SLOAD PUSH2 0x1A9 SWAP1 PUSH2 0x4BE JUMP JUMPDEST DUP1 PUSH1 0x1F ADD PUSH1 0x20 DUP1 SWAP2 DIV MUL PUSH1 0x20 ADD PUSH1 0x40 MLOAD SWAP1 DUP2 ADD PUSH1 0x40 MSTORE DUP1 SWAP3 SWAP2 SWAP1 DUP2 DUP2 MSTORE PUSH1 0x20 ADD DUP3 DUP1 SLOAD PUSH2 0x1D5 SWAP1 PUSH2 0x4BE JUMP JUMPDEST DUP1 ISZERO PUSH2 0x220 JUMPI DUP1 PUSH1 0x1F LT PUSH2 0x1F7 JUMPI PUSH2 0x100 DUP1 DUP4 SLOAD DIV MUL DUP4 MSTORE SWAP2 PUSH1 0x20 ADD SWAP2 PUSH2 0x220 JUMP JUMPDEST DUP3 ADD SWAP2 SWAP1 PUSH0 MSTORE PUSH1 0x20 PUSH0 KECCAK256 SWAP1 JUMPDEST DUP2 SLOAD DUP2 MSTORE SWAP1 PUSH1 0x1 ADD SWAP1 PUSH1 0x20 ADD DUP1 DUP4 GT PUSH2 0x203 JUMPI DUP3 SWAP1 SUB PUSH1 0x1F AND DUP3 ADD SWAP2 JUMPDEST POP POP POP POP POP DUP2 JUMP JUMPDEST PUSH0 DUP2 MLOAD SWAP1 POP SWAP2 SWAP1 POP JUMP JUMPDEST PUSH0 DUP3 DUP3 MSTORE PUSH1 0x20 DUP3 ADD SWAP1 POP SWAP3 SWAP2 POP POP JUMP JUMPDEST DUP3 DUP2 DUP4 MCOPY PUSH0 DUP4 DUP4 ADD MSTORE POP POP POP JUMP JUMPDEST PUSH0 PUSH1 0x1F NOT PUSH1 0x1F DUP4 ADD AND SWAP1 POP SWAP2 SWAP1 POP JUMP JUMPDEST PUSH0 PUSH2 0x26A DUP3 PUSH2 0x228 JUMP JUMPDEST PUSH2 0x274 DUP2 DUP6 PUSH2 0x232 JUMP JUMPDEST SWAP4 POP PUSH2 0x284 DUP2 DUP6 PUSH1 0x20 DUP7 ADD PUSH2 0x242 JUMP JUMPDEST PUSH2 0x28D DUP2 PUSH2 0x250 JUMP JUMPDEST DUP5 ADD SWAP2 POP POP SWAP3 SWAP2 POP POP JUMP JUMPDEST PUSH0 PUSH1 0x20 DUP3 ADD SWAP1 POP DUP2 DUP2 SUB PUSH0 DUP4 ADD MSTORE PUSH2 0x2B0 DUP2 DUP5 PUSH2 0x260 JUMP JUMPDEST SWAP1 POP SWAP3 SWAP2 POP POP JUMP JUMPDEST PUSH0 PUSH1 0x40 MLOAD SWAP1 POP SWAP1 JUMP JUMPDEST PUSH0 DUP1 REVERT JUMPDEST PUSH0 DUP1 REVERT JUMPDEST PUSH0 DUP1 REVERT JUMPDEST PUSH0 DUP1 REVERT JUMPDEST PUSH32 0x4E487B7100000000000000000000000000000000000000000000000000000000 PUSH0 MSTORE PUSH1 0x41 PUSH1 0x4 MSTORE PUSH1 0x24 PUSH0 REVERT JUMPDEST PUSH2 0x307 DUP3 PUSH2 0x250 JUMP JUMPDEST DUP2 ADD DUP2 DUP2 LT PUSH8 0xFFFFFFFFFFFFFFFF DUP3 GT OR ISZERO PUSH2 0x326 JUMPI PUSH2 0x325 PUSH2 0x2D1 JUMP JUMPDEST JUMPDEST DUP1 PUSH1 0x40 MSTORE POP POP POP JUMP JUMPDEST PUSH0 PUSH2 0x338 PUSH2 0x2B8 JUMP JUMPDEST SWAP1 POP PUSH2 0x344 DUP3 DUP3 PUSH2 0x2FE JUMP JUMPDEST SWAP2 SWAP1 POP JUMP JUMPDEST PUSH0 PUSH8 0xFFFFFFFFFFFFFFFF DUP3 GT ISZERO PUSH2 0x363 JUMPI PUSH2 0x362 PUSH2 0x2D1 JUMP JUMPDEST JUMPDEST PUSH2 0x36C DUP3 PUSH2 0x250 JUMP JUMPDEST SWAP1 POP PUSH1 0x20 DUP2 ADD SWAP1 POP SWAP2 SWAP1 POP JUMP JUMPDEST DUP3 DUP2 DUP4 CALLDATACOPY PUSH0 DUP4 DUP4 ADD MSTORE POP POP POP JUMP JUMPDEST PUSH0 PUSH2 0x399 PUSH2 0x394 DUP5 PUSH2 0x349 JUMP JUMPDEST PUSH2 0x32F JUMP JUMPDEST SWAP1 POP DUP3 DUP2 MSTORE PUSH1 0x20 DUP2 ADD DUP5 DUP5 DUP5 ADD GT ISZERO PUSH2 0x3B5 JUMPI PUSH2 0x3B4 PUSH2 0x2CD JUMP JUMPDEST JUMPDEST PUSH2 0x3C0 DUP5 DUP3 DUP6 PUSH2 0x379 JUMP JUMPDEST POP SWAP4 SWAP3 POP POP POP JUMP JUMPDEST PUSH0 DUP3 PUSH1 0x1F DUP4 ADD SLT PUSH2 0x3DC JUMPI PUSH2 0x3DB PUSH2 0x2C9 JUMP JUMPDEST JUMPDEST DUP2 CALLDATALOAD PUSH2 0x3EC DUP5 DUP3 PUSH1 0x20 DUP7 ADD PUSH2 0x387 JUMP JUMPDEST SWAP2 POP POP SWAP3 SWAP2 POP POP JUMP JUMPDEST PUSH0 DUP1 PUSH1 0x40 DUP4 DUP6 SUB SLT ISZERO PUSH2 0x40B JUMPI PUSH2 0x40A PUSH2 0x2C1 JUMP JUMPDEST JUMPDEST PUSH0 DUP4 ADD CALLDATALOAD PUSH8 0xFFFFFFFFFFFFFFFF DUP2 GT ISZERO PUSH2 0x428 JUMPI PUSH2 0x427 PUSH2 0x2C5 JUMP JUMPDEST JUMPDEST PUSH2 0x434 DUP6 DUP3 DUP7 ADD PUSH2 0x3C8 JUMP JUMPDEST SWAP3 POP POP PUSH1 0x20 DUP4 ADD CALLDATALOAD PUSH8 0xFFFFFFFFFFFFFFFF DUP2 GT ISZERO PUSH2 0x455 JUMPI PUSH2 0x454 PUSH2 0x2C5 JUMP JUMPDEST JUMPDEST PUSH2 0x461 DUP6 DUP3 DUP7 ADD PUSH2 0x3C8 JUMP JUMPDEST SWAP2 POP POP SWAP3 POP SWAP3 SWAP1 POP JUMP JUMPDEST PUSH32 0x486F2074656E3A20000000000000000000000000000000000000000000000000 DUP2 MSTORE POP JUMP JUMPDEST PUSH32 0x4E487B7100000000000000000000000000000000000000000000000000000000 PUSH0 MSTORE PUSH1 0x22 PUSH1 0x4 MSTORE PUSH1 0x24 PUSH0 REVERT JUMPDEST PUSH0 PUSH1 0x2 DUP3 DIV SWAP1 POP PUSH1 0x1 DUP3 AND DUP1 PUSH2 0x4D5 JUMPI PUSH1 0x7F DUP3 AND SWAP2 POP JUMPDEST PUSH1 0x20 DUP3 LT DUP2 SUB PUSH2 0x4E8 JUMPI PUSH2 0x4E7 PUSH2 0x491 JUMP JUMPDEST JUMPDEST POP SWAP2 SWAP1 POP JUMP JUMPDEST PUSH0 DUP2 SWAP1 POP SWAP3 SWAP2 POP POP JUMP JUMPDEST PUSH0 DUP2 SWAP1 POP DUP2 PUSH0 MSTORE PUSH1 0x20 PUSH0 KECCAK256 SWAP1 POP SWAP2 SWAP1 POP JUMP JUMPDEST PUSH0 DUP2 SLOAD PUSH2 0x516 DUP2 PUSH2 0x4BE JUMP JUMPDEST PUSH2 0x520 DUP2 DUP7 PUSH2 0x4EE JUMP JUMPDEST SWAP5 POP PUSH1 0x1 DUP3 AND PUSH0 DUP2 EQ PUSH2 0x53A JUMPI PUSH1 0x1 DUP2 EQ PUSH2 0x54F JUMPI PUSH2 0x581 JUMP JUMPDEST PUSH1 0xFF NOT DUP4 AND DUP7 MSTORE DUP2 ISZERO ISZERO DUP3 MUL DUP7 ADD SWAP4 POP PUSH2 0x581 JUMP JUMPDEST PUSH2 0x558 DUP6 PUSH2 0x4F8 JUMP JUMPDEST PUSH0 JUMPDEST DUP4 DUP2 LT ISZERO PUSH2 0x579 JUMPI DUP2 SLOAD DUP2 DUP10 ADD MSTORE PUSH1 0x1 DUP3 ADD SWAP2 POP PUSH1 0x20 DUP2 ADD SWAP1 POP PUSH2 0x55A JUMP JUMPDEST DUP4 DUP9 ADD SWAP6 POP POP POP JUMPDEST POP POP POP SWAP3 SWAP2 POP POP JUMP JUMPDEST PUSH32 0x2047696F692074696E683A200000000000000000000000000000000000000000 DUP2 MSTORE POP JUMP JUMPDEST PUSH0 PUSH2 0x5BA DUP3 PUSH2 0x46B JUMP JUMPDEST PUSH1 0x8 DUP3 ADD SWAP2 POP PUSH2 0x5CA DUP3 DUP6 PUSH2 0x50A JUMP JUMPDEST SWAP2 POP PUSH2 0x5D5 DUP3 PUSH2 0x58A JUMP JUMPDEST PUSH1 0xC DUP3 ADD SWAP2 POP PUSH2 0x5E5 DUP3 DUP5 PUSH2 0x50A JUMP JUMPDEST SWAP2 POP DUP2 SWAP1 POP SWAP4 SWAP3 POP POP POP JUMP JUMPDEST PUSH0 PUSH1 0x20 PUSH1 0x1F DUP4 ADD DIV SWAP1 POP SWAP2 SWAP1 POP JUMP JUMPDEST PUSH0 DUP3 DUP3 SHL SWAP1 POP SWAP3 SWAP2 POP POP JUMP JUMPDEST PUSH0 PUSH1 0x8 DUP4 MUL PUSH2 0x63B PUSH32 0xFFFFFFFFFFFFFFFFFFFFFFFFFFFFFFFFFFFFFFFFFFFFFFFFFFFFFFFFFFFFFFFF DUP3 PUSH2 0x600 JUMP JUMPDEST PUSH2 0x645 DUP7 DUP4 PUSH2 0x600 JUMP JUMPDEST SWAP6 POP DUP1 NOT DUP5 AND SWAP4 POP DUP1 DUP7 AND DUP5 OR SWAP3 POP POP POP SWAP4 SWAP3 POP POP POP JUMP JUMPDEST PUSH0 DUP2 SWAP1 POP SWAP2 SWAP1 POP JUMP JUMPDEST PUSH0 DUP2 SWAP1 POP SWAP2 SWAP1 POP JUMP JUMPDEST PUSH0 PUSH2 0x689 PUSH2 0x684 PUSH2 0x67F DUP5 PUSH2 0x65D JUMP JUMPDEST PUSH2 0x666 JUMP JUMPDEST PUSH2 0x65D JUMP JUMPDEST SWAP1 POP SWAP2 SWAP1 POP JUMP JUMPDEST PUSH0 DUP2 SWAP1 POP SWAP2 SWAP1 POP JUMP JUMPDEST PUSH2 0x6A2 DUP4 PUSH2 0x66F JUMP JUMPDEST PUSH2 0x6B6 PUSH2 0x6AE DUP3 PUSH2 0x690 JUMP JUMPDEST DUP5 DUP5 SLOAD PUSH2 0x60C JUMP JUMPDEST DUP3 SSTORE POP POP POP POP JUMP JUMPDEST PUSH0 SWAP1 JUMP JUMPDEST PUSH2 0x6CA PUSH2 0x6BE JUMP JUMPDEST PUSH2 0x6D5 DUP2 DUP5 DUP5 PUSH2 0x699 JUMP JUMPDEST POP POP POP JUMP JUMPDEST JUMPDEST DUP2 DUP2 LT ISZERO PUSH2 0x6F8 JUMPI PUSH2 0x6ED PUSH0 DUP3 PUSH2 0x6C2 JUMP JUMPDEST PUSH1 0x1 DUP2 ADD SWAP1 POP PUSH2 0x6DB JUMP JUMPDEST POP POP JUMP JUMPDEST PUSH1 0x1F DUP3 GT ISZERO PUSH2 0x73D JUMPI PUSH2 0x70E DUP2 PUSH2 0x4F8 JUMP JUMPDEST PUSH2 0x717 DUP5 PUSH2 0x5F1 JUMP JUMPDEST DUP2 ADD PUSH1 0x20 DUP6 LT ISZERO PUSH2 0x726 JUMPI DUP2 SWAP1 POP JUMPDEST PUSH2 0x73A PUSH2 0x732 DUP6 PUSH2 0x5F1 JUMP JUMPDEST DUP4 ADD DUP3 PUSH2 0x6DA JUMP JUMPDEST POP POP JUMPDEST POP POP POP JUMP JUMPDEST PUSH0 DUP3 DUP3 SHR SWAP1 POP SWAP3 SWAP2 POP POP JUMP JUMPDEST PUSH0 PUSH2 0x75D PUSH0 NOT DUP5 PUSH1 0x8 MUL PUSH2 0x742 JUMP JUMPDEST NOT DUP1 DUP4 AND SWAP2 POP POP SWAP3 SWAP2 POP POP JUMP JUMPDEST PUSH0 PUSH2 0x775 DUP4 DUP4 PUSH2 0x74E JUMP JUMPDEST SWAP2 POP DUP3 PUSH1 0x2 MUL DUP3 OR SWAP1 POP SWAP3 SWAP2 POP POP JUMP JUMPDEST PUSH2 0x78E DUP3 PUSH2 0x228 JUMP JUMPDEST PUSH8 0xFFFFFFFFFFFFFFFF DUP2 GT ISZERO PUSH2 0x7A7 JUMPI PUSH2 0x7A6 PUSH2 0x2D1 JUMP JUMPDEST JUMPDEST PUSH2 0x7B1 DUP3 SLOAD PUSH2 0x4BE JUMP JUMPDEST PUSH2 0x7BC DUP3 DUP3 DUP6 PUSH2 0x6FC JUMP JUMPDEST PUSH0 PUSH1 0x20 SWAP1 POP PUSH1 0x1F DUP4 GT PUSH1 0x1 DUP2 EQ PUSH2 0x7ED JUMPI PUSH0 DUP5 ISZERO PUSH2 0x7DB JUMPI DUP3 DUP8 ADD MLOAD SWAP1 POP JUMPDEST PUSH2 0x7E5 DUP6 DUP3 PUSH2 0x76A JUMP JUMPDEST DUP7 SSTORE POP PUSH2 0x84C JUMP JUMPDEST PUSH1 0x1F NOT DUP5 AND PUSH2 0x7FB DUP7 PUSH2 0x4F8 JUMP JUMPDEST PUSH0 JUMPDEST DUP3 DUP2 LT ISZERO PUSH2 0x822 JUMPI DUP5 DUP10 ADD MLOAD DUP3 SSTORE PUSH1 0x1 DUP3 ADD SWAP2 POP PUSH1 0x20 DUP6 ADD SWAP5 POP PUSH1 0x20 DUP2 ADD SWAP1 POP PUSH2 0x7FD JUMP JUMPDEST DUP7 DUP4 LT ISZERO PUSH2 0x83F JUMPI DUP5 DUP10 ADD MLOAD PUSH2 0x83B PUSH1 0x1F DUP10 AND DUP3 PUSH2 0x74E JUMP JUMPDEST DUP4 SSTORE POP JUMPDEST PUSH1 0x1 PUSH1 0x2 DUP9 MUL ADD DUP9 SSTORE POP POP POP JUMPDEST POP POP POP POP POP POP JUMP INVALID LOG2 PUSH5 0x6970667358 0x22 SLT KECCAK256 0xBF RETURN SWAP12 0x2E MSTORE8 0x1E RETURN 0x4E 0x24 CREATE2 0xDC 0xDE PUSH21 0xE27CE3AAFBE43385D7D2F9FD17D94C32E9E75B6473 PUSH16 0x6C634300081A00330000000000000000 "
		},
		"gasEstimates": {
			"creation": {
				"codeDepositCost": "437200",
				"executionCost": "472",
				"totalCost": "437672"
			},
			"external": {
				"GioiTinh()": "infinite",
				"Hoten()": "infinite",
				"hienThongTin()": "infinite",
				"nhanThongTin(string,string)": "infinite"
			}
		},
		"methodIdentifiers": {
			"GioiTinh()": "4b115bce",
			"Hoten()": "864fc1b8",
			"hienThongTin()": "20db8b9d",
			"nhanThongTin(string,string)": "3e8ae8c6"
		}
	},
	"abi": [
		{
			"inputs": [],
			"name": "GioiTinh",
			"outputs": [
				{
					"internalType": "string",
					"name": "",
					"type": "string"
				}
			],
			"stateMutability": "view",
			"type": "function"
		},
		{
			"inputs": [],
			"name": "Hoten",
			"outputs": [
				{
					"internalType": "string",
					"name": "",
					"type": "string"
				}
			],
			"stateMutability": "view",
			"type": "function"
		},
		{
			"inputs": [],
			"name": "hienThongTin",
			"outputs": [
				{
					"internalType": "string",
					"name": "",
					"type": "string"
				}
			],
			"stateMutability": "view",
			"type": "function"
		},
		{
			"inputs": [
				{
					"internalType": "string",
					"name": "_Hoten",
					"type": "string"
				},
				{
					"internalType": "string",
					"name": "_GioiTinh",
					"type": "string"
				}
			],
			"name": "nhanThongTin",
			"outputs": [],
			"stateMutability": "nonpayable",
			"type": "function"
		}
	]
}