{
	"data": {
		"bytecode": {
			"linkReferences": {},
			"object": "6080604052348015600e575f80fd5b50610a6e8061001c5f395ff3fe608060405234801561000f575f80fd5b5060043610610060575f3560e01c806305206b8e1461006457806320db8b9d146100805780633e8ae8c61461009e5780634b115bce146100ba5780634ca55da2146100d8578063864fc1b8146100f6575b5f80fd5b61007e60048036038101906100799190610473565b610114565b005b610088610133565b6040516100959190610577565b60405180910390f35b6100b860048036038101906100b39190610597565b610160565b005b6100c2610183565b6040516100cf9190610577565b60405180910390f35b6100e061020f565b6040516100ed9190610577565b60405180910390f35b6100fe61029b565b60405161010b9190610577565b60405180910390f35b61011e8383610160565b806002908161012d9190610810565b50505050565b60605f6001600260405160200161014c939291906109db565b604051602081830303815290604052905090565b815f908161016e9190610810565b50806001908161017e9190610810565b505050565b600180546101909061063a565b80601f01602080910402602001604051908101604052809291908181526020018280546101bc9061063a565b80156102075780601f106101de57610100808354040283529160200191610207565b820191905f5260205f20905b8154815290600101906020018083116101ea57829003601f168201915b505050505081565b6002805461021c9061063a565b80601f01602080910402602001604051908101604052809291908181526020018280546102489061063a565b80156102935780601f1061026a57610100808354040283529160200191610293565b820191905f5260205f20905b81548152906001019060200180831161027657829003601f168201915b505050505081565b5f80546102a79061063a565b80601f01602080910402602001604051908101604052809291908181526020018280546102d39061063a565b801561031e5780601f106102f55761010080835404028352916020019161031e565b820191905f5260205f20905b81548152906001019060200180831161030157829003601f168201915b505050505081565b5f604051905090565b5f80fd5b5f80fd5b5f80fd5b5f80fd5b5f601f19601f8301169050919050565b7f4e487b71000000000000000000000000000000000000000000000000000000005f52604160045260245ffd5b6103858261033f565b810181811067ffffffffffffffff821117156103a4576103a361034f565b5b80604052505050565b5f6103b6610326565b90506103c2828261037c565b919050565b5f67ffffffffffffffff8211156103e1576103e061034f565b5b6103ea8261033f565b9050602081019050919050565b828183375f83830152505050565b5f610417610412846103c7565b6103ad565b9050828152602081018484840111156104335761043261033b565b5b61043e8482856103f7565b509392505050565b5f82601f83011261045a57610459610337565b5b813561046a848260208601610405565b91505092915050565b5f805f6060848603121561048a5761048961032f565b5b5f84013567ffffffffffffffff8111156104a7576104a6610333565b5b6104b386828701610446565b935050602084013567ffffffffffffffff8111156104d4576104d3610333565b5b6104e086828701610446565b925050604084013567ffffffffffffffff81111561050157610500610333565b5b61050d86828701610446565b9150509250925092565b5f81519050919050565b5f82825260208201905092915050565b8281835e5f83830152505050565b5f61054982610517565b6105538185610521565b9350610563818560208601610531565b61056c8161033f565b840191505092915050565b5f6020820190508181035f83015261058f818461053f565b905092915050565b5f80604083850312156105ad576105ac61032f565b5b5f83013567ffffffffffffffff8111156105ca576105c9610333565b5b6105d685828601610446565b925050602083013567ffffffffffffffff8111156105f7576105f6610333565b5b61060385828601610446565b9150509250929050565b7f4e487b71000000000000000000000000000000000000000000000000000000005f52602260045260245ffd5b5f600282049050600182168061065157607f821691505b6020821081036106645761066361060d565b5b50919050565b5f819050815f5260205f209050919050565b5f6020601f8301049050919050565b5f82821b905092915050565b5f600883026106c67fffffffffffffffffffffffffffffffffffffffffffffffffffffffffffffffff8261068b565b6106d0868361068b565b95508019841693508086168417925050509392505050565b5f819050919050565b5f819050919050565b5f61071461070f61070a846106e8565b6106f1565b6106e8565b9050919050565b5f819050919050565b61072d836106fa565b6107416107398261071b565b848454610697565b825550505050565b5f90565b610755610749565b610760818484610724565b505050565b5b81811015610783576107785f8261074d565b600181019050610766565b5050565b601f8211156107c8576107998161066a565b6107a28461067c565b810160208510156107b1578190505b6107c56107bd8561067c565b830182610765565b50505b505050565b5f82821c905092915050565b5f6107e85f19846008026107cd565b1980831691505092915050565b5f61080083836107d9565b9150826002028217905092915050565b61081982610517565b67ffffffffffffffff8111156108325761083161034f565b5b61083c825461063a565b610847828285610787565b5f60209050601f831160018114610878575f8415610866578287015190505b61087085826107f5565b8655506108d7565b601f1984166108868661066a565b5f5b828110156108ad57848901518255600182019150602085019450602081019050610888565b868310156108ca57848901516108c6601f8916826107d9565b8355505b6001600288020188555050505b505050505050565b7f486f2074656e3a20000000000000000000000000000000000000000000000000815250565b5f81905092915050565b5f815461091b8161063a565b6109258186610905565b9450600182165f811461093f576001811461095457610986565b60ff1983168652811515820286019350610986565b61095d8561066a565b5f5b8381101561097e5781548189015260018201915060208101905061095f565b838801955050505b50505092915050565b7f2047696f692074696e683a200000000000000000000000000000000000000000815250565b7f2054656e206c6f703a0000000000000000000000000000000000000000000000815250565b5f6109e5826108df565b6008820191506109f5828661090f565b9150610a008261098f565b600c82019150610a10828561090f565b9150610a1b826109b5565b600982019150610a2b828461090f565b915081905094935050505056fea2646970667358221220bc22e65cd8a8028d7048974f1779d563b3defbf4c4025ca6fe026da737cb83e564736f6c634300081a0033",
			"opcodes": "PUSH1 0x80 PUSH1 0x40 MSTORE CALLVALUE DUP1 ISZERO PUSH1 0xE JUMPI PUSH0 DUP1 REVERT JUMPDEST POP PUSH2 0xA6E DUP1 PUSH2 0x1C PUSH0 CODECOPY PUSH0 RETURN INVALID PUSH1 0x80 PUSH1 0x40 MSTORE CALLVALUE DUP1 ISZERO PUSH2 0xF JUMPI PUSH0 DUP1 REVERT JUMPDEST POP PUSH1 0x4 CALLDATASIZE LT PUSH2 0x60 JUMPI PUSH0 CALLDATALOAD PUSH1 0xE0 SHR DUP1 PUSH4 0x5206B8E EQ PUSH2 0x64 JUMPI DUP1 PUSH4 0x20DB8B9D EQ PUSH2 0x80 JUMPI DUP1 PUSH4 0x3E8AE8C6 EQ PUSH2 0x9E JUMPI DUP1 PUSH4 0x4B115BCE EQ PUSH2 0xBA JUMPI DUP1 PUSH4 0x4CA55DA2 EQ PUSH2 0xD8 JUMPI DUP1 PUSH4 0x864FC1B8 EQ PUSH2 0xF6 JUMPI JUMPDEST PUSH0 DUP1 REVERT JUMPDEST PUSH2 0x7E PUSH1 0x4 DUP1 CALLDATASIZE SUB DUP2 ADD SWAP1 PUSH2 0x79 SWAP2 SWAP1 PUSH2 0x473 JUMP JUMPDEST PUSH2 0x114 JUMP JUMPDEST STOP JUMPDEST PUSH2 0x88 PUSH2 0x133 JUMP JUMPDEST PUSH1 0x40 MLOAD PUSH2 0x95 SWAP2 SWAP1 PUSH2 0x577 JUMP JUMPDEST PUSH1 0x40 MLOAD DUP1 SWAP2 SUB SWAP1 RETURN JUMPDEST PUSH2 0xB8 PUSH1 0x4 DUP1 CALLDATASIZE SUB DUP2 ADD SWAP1 PUSH2 0xB3 SWAP2 SWAP1 PUSH2 0x597 JUMP JUMPDEST PUSH2 0x160 JUMP JUMPDEST STOP JUMPDEST PUSH2 0xC2 PUSH2 0x183 JUMP JUMPDEST PUSH1 0x40 MLOAD PUSH2 0xCF SWAP2 SWAP1 PUSH2 0x577 JUMP JUMPDEST PUSH1 0x40 MLOAD DUP1 SWAP2 SUB SWAP1 RETURN JUMPDEST PUSH2 0xE0 PUSH2 0x20F JUMP JUMPDEST PUSH1 0x40 MLOAD PUSH2 0xED SWAP2 SWAP1 PUSH2 0x577 JUMP JUMPDEST PUSH1 0x40 MLOAD DUP1 SWAP2 SUB SWAP1 RETURN JUMPDEST PUSH2 0xFE PUSH2 0x29B JUMP JUMPDEST PUSH1 0x40 MLOAD PUSH2 0x10B SWAP2 SWAP1 PUSH2 0x577 JUMP JUMPDEST PUSH1 0x40 MLOAD DUP1 SWAP2 SUB SWAP1 RETURN JUMPDEST PUSH2 0x11E DUP4 DUP4 PUSH2 0x160 JUMP JUMPDEST DUP1 PUSH1 0x2 SWAP1 DUP2 PUSH2 0x12D SWAP2 SWAP1 PUSH2 0x810 JUMP JUMPDEST POP POP POP POP JUMP JUMPDEST PUSH1 0x60 PUSH0 PUSH1 0x1 PUSH1 0x2 PUSH1 0x40 MLOAD PUSH1 0x20 ADD PUSH2 0x14C SWAP4 SWAP3 SWAP2 SWAP1 PUSH2 0x9DB JUMP JUMPDEST PUSH1 0x40 MLOAD PUSH1 0x20 DUP2 DUP4 SUB SUB DUP2 MSTORE SWAP1 PUSH1 0x40 MSTORE SWAP1 POP SWAP1 JUMP JUMPDEST DUP2 PUSH0 SWAP1 DUP2 PUSH2 0x16E SWAP2 SWAP1 PUSH2 0x810 JUMP JUMPDEST POP DUP1 PUSH1 0x1 SWAP1 DUP2 PUSH2 0x17E SWAP2 SWAP1 PUSH2 0x810 JUMP JUMPDEST POP POP POP JUMP JUMPDEST PUSH1 0x1 DUP1 SLOAD PUSH2 0x190 SWAP1 PUSH2 0x63A JUMP JUMPDEST DUP1 PUSH1 0x1F ADD PUSH1 0x20 DUP1 SWAP2 DIV MUL PUSH1 0x20 ADD PUSH1 0x40 MLOAD SWAP1 DUP2 ADD PUSH1 0x40 MSTORE DUP1 SWAP3 SWAP2 SWAP1 DUP2 DUP2 MSTORE PUSH1 0x20 ADD DUP3 DUP1 SLOAD PUSH2 0x1BC SWAP1 PUSH2 0x63A JUMP JUMPDEST DUP1 ISZERO PUSH2 0x207 JUMPI DUP1 PUSH1 0x1F LT PUSH2 0x1DE JUMPI PUSH2 0x100 DUP1 DUP4 SLOAD DIV MUL DUP4 MSTORE SWAP2 PUSH1 0x20 ADD SWAP2 PUSH2 0x207 JUMP JUMPDEST DUP3 ADD SWAP2 SWAP1 PUSH0 MSTORE PUSH1 0x20 PUSH0 KECCAK256 SWAP1 JUMPDEST DUP2 SLOAD DUP2 MSTORE SWAP1 PUSH1 0x1 ADD SWAP1 PUSH1 0x20 ADD DUP1 DUP4 GT PUSH2 0x1EA JUMPI DUP3 SWAP1 SUB PUSH1 0x1F AND DUP3 ADD SWAP2 JUMPDEST POP POP POP POP POP DUP2 JUMP JUMPDEST PUSH1 0x2 DUP1 SLOAD PUSH2 0x21C SWAP1 PUSH2 0x63A JUMP JUMPDEST DUP1 PUSH1 0x1F ADD PUSH1 0x20 DUP1 SWAP2 DIV MUL PUSH1 0x20 ADD PUSH1 0x40 MLOAD SWAP1 DUP2 ADD PUSH1 0x40 MSTORE DUP1 SWAP3 SWAP2 SWAP1 DUP2 DUP2 MSTORE PUSH1 0x20 ADD DUP3 DUP1 SLOAD PUSH2 0x248 SWAP1 PUSH2 0x63A JUMP JUMPDEST DUP1 ISZERO PUSH2 0x293 JUMPI DUP1 PUSH1 0x1F LT PUSH2 0x26A JUMPI PUSH2 0x100 DUP1 DUP4 SLOAD DIV MUL DUP4 MSTORE SWAP2 PUSH1 0x20 ADD SWAP2 PUSH2 0x293 JUMP JUMPDEST DUP3 ADD SWAP2 SWAP1 PUSH0 MSTORE PUSH1 0x20 PUSH0 KECCAK256 SWAP1 JUMPDEST DUP2 SLOAD DUP2 MSTORE SWAP1 PUSH1 0x1 ADD SWAP1 PUSH1 0x20 ADD DUP1 DUP4 GT PUSH2 0x276 JUMPI DUP3 SWAP1 SUB PUSH1 0x1F AND DUP3 ADD SWAP2 JUMPDEST POP POP POP POP POP DUP2 JUMP JUMPDEST PUSH0 DUP1 SLOAD PUSH2 0x2A7 SWAP1 PUSH2 0x63A JUMP JUMPDEST DUP1 PUSH1 0x1F ADD PUSH1 0x20 DUP1 SWAP2 DIV MUL PUSH1 0x20 ADD PUSH1 0x40 MLOAD SWAP1 DUP2 ADD PUSH1 0x40 MSTORE DUP1 SWAP3 SWAP2 SWAP1 DUP2 DUP2 MSTORE PUSH1 0x20 ADD DUP3 DUP1 SLOAD PUSH2 0x2D3 SWAP1 PUSH2 0x63A JUMP JUMPDEST DUP1 ISZERO PUSH2 0x31E JUMPI DUP1 PUSH1 0x1F LT PUSH2 0x2F5 JUMPI PUSH2 0x100 DUP1 DUP4 SLOAD DIV MUL DUP4 MSTORE SWAP2 PUSH1 0x20 ADD SWAP2 PUSH2 0x31E JUMP JUMPDEST DUP3 ADD SWAP2 SWAP1 PUSH0 MSTORE PUSH1 0x20 PUSH0 KECCAK256 SWAP1 JUMPDEST DUP2 SLOAD DUP2 MSTORE SWAP1 PUSH1 0x1 ADD SWAP1 PUSH1 0x20 ADD DUP1 DUP4 GT PUSH2 0x301 JUMPI DUP3 SWAP1 SUB PUSH1 0x1F AND DUP3 ADD SWAP2 JUMPDEST POP POP POP POP POP DUP2 JUMP JUMPDEST PUSH0 PUSH1 0x40 MLOAD SWAP1 POP SWAP1 JUMP JUMPDEST PUSH0 DUP1 REVERT JUMPDEST PUSH0 DUP1 REVERT JUMPDEST PUSH0 DUP1 REVERT JUMPDEST PUSH0 DUP1 REVERT JUMPDEST PUSH0 PUSH1 0x1F NOT PUSH1 0x1F DUP4 ADD AND SWAP1 POP SWAP2 SWAP1 POP JUMP JUMPDEST PUSH32 0x4E487B7100000000000000000000000000000000000000000000000000000000 PUSH0 MSTORE PUSH1 0x41 PUSH1 0x4 MSTORE PUSH1 0x24 PUSH0 REVERT JUMPDEST PUSH2 0x385 DUP3 PUSH2 0x33F JUMP JUMPDEST DUP2 ADD DUP2 DUP2 LT PUSH8 0xFFFFFFFFFFFFFFFF DUP3 GT OR ISZERO PUSH2 0x3A4 JUMPI PUSH2 0x3A3 PUSH2 0x34F JUMP JUMPDEST JUMPDEST DUP1 PUSH1 0x40 MSTORE POP POP POP JUMP JUMPDEST PUSH0 PUSH2 0x3B6 PUSH2 0x326 JUMP JUMPDEST SWAP1 POP PUSH2 0x3C2 DUP3 DUP3 PUSH2 0x37C JUMP JUMPDEST SWAP2 SWAP1 POP JUMP JUMPDEST PUSH0 PUSH8 0xFFFFFFFFFFFFFFFF DUP3 GT ISZERO PUSH2 0x3E1 JUMPI PUSH2 0x3E0 PUSH2 0x34F JUMP JUMPDEST JUMPDEST PUSH2 0x3EA DUP3 PUSH2 0x33F JUMP JUMPDEST SWAP1 POP PUSH1 0x20 DUP2 ADD SWAP1 POP SWAP2 SWAP1 POP JUMP JUMPDEST DUP3 DUP2 DUP4 CALLDATACOPY PUSH0 DUP4 DUP4 ADD MSTORE POP POP POP JUMP JUMPDEST PUSH0 PUSH2 0x417 PUSH2 0x412 DUP5 PUSH2 0x3C7 JUMP JUMPDEST PUSH2 0x3AD JUMP JUMPDEST SWAP1 POP DUP3 DUP2 MSTORE PUSH1 0x20 DUP2 ADD DUP5 DUP5 DUP5 ADD GT ISZERO PUSH2 0x433 JUMPI PUSH2 0x432 PUSH2 0x33B JUMP JUMPDEST JUMPDEST PUSH2 0x43E DUP5 DUP3 DUP6 PUSH2 0x3F7 JUMP JUMPDEST POP SWAP4 SWAP3 POP POP POP JUMP JUMPDEST PUSH0 DUP3 PUSH1 0x1F DUP4 ADD SLT PUSH2 0x45A JUMPI PUSH2 0x459 PUSH2 0x337 JUMP JUMPDEST JUMPDEST DUP2 CALLDATALOAD PUSH2 0x46A DUP5 DUP3 PUSH1 0x20 DUP7 ADD PUSH2 0x405 JUMP JUMPDEST SWAP2 POP POP SWAP3 SWAP2 POP POP JUMP JUMPDEST PUSH0 DUP1 PUSH0 PUSH1 0x60 DUP5 DUP7 SUB SLT ISZERO PUSH2 0x48A JUMPI PUSH2 0x489 PUSH2 0x32F JUMP JUMPDEST JUMPDEST PUSH0 DUP5 ADD CALLDATALOAD PUSH8 0xFFFFFFFFFFFFFFFF DUP2 GT ISZERO PUSH2 0x4A7 JUMPI PUSH2 0x4A6 PUSH2 0x333 JUMP JUMPDEST JUMPDEST PUSH2 0x4B3 DUP7 DUP3 DUP8 ADD PUSH2 0x446 JUMP JUMPDEST SWAP4 POP POP PUSH1 0x20 DUP5 ADD CALLDATALOAD PUSH8 0xFFFFFFFFFFFFFFFF DUP2 GT ISZERO PUSH2 0x4D4 JUMPI PUSH2 0x4D3 PUSH2 0x333 JUMP JUMPDEST JUMPDEST PUSH2 0x4E0 DUP7 DUP3 DUP8 ADD PUSH2 0x446 JUMP JUMPDEST SWAP3 POP POP PUSH1 0x40 DUP5 ADD CALLDATALOAD PUSH8 0xFFFFFFFFFFFFFFFF DUP2 GT ISZERO PUSH2 0x501 JUMPI PUSH2 0x500 PUSH2 0x333 JUMP JUMPDEST JUMPDEST PUSH2 0x50D DUP7 DUP3 DUP8 ADD PUSH2 0x446 JUMP JUMPDEST SWAP2 POP POP SWAP3 POP SWAP3 POP SWAP3 JUMP JUMPDEST PUSH0 DUP2 MLOAD SWAP1 POP SWAP2 SWAP1 POP JUMP JUMPDEST PUSH0 DUP3 DUP3 MSTORE PUSH1 0x20 DUP3 ADD SWAP1 POP SWAP3 SWAP2 POP POP JUMP JUMPDEST DUP3 DUP2 DUP4 MCOPY PUSH0 DUP4 DUP4 ADD MSTORE POP POP POP JUMP JUMPDEST PUSH0 PUSH2 0x549 DUP3 PUSH2 0x517 JUMP JUMPDEST PUSH2 0x553 DUP2 DUP6 PUSH2 0x521 JUMP JUMPDEST SWAP4 POP PUSH2 0x563 DUP2 DUP6 PUSH1 0x20 DUP7 ADD PUSH2 0x531 JUMP JUMPDEST PUSH2 0x56C DUP2 PUSH2 0x33F JUMP JUMPDEST DUP5 ADD SWAP2 POP POP SWAP3 SWAP2 POP POP JUMP JUMPDEST PUSH0 PUSH1 0x20 DUP3 ADD SWAP1 POP DUP2 DUP2 SUB PUSH0 DUP4 ADD MSTORE PUSH2 0x58F DUP2 DUP5 PUSH2 0x53F JUMP JUMPDEST SWAP1 POP SWAP3 SWAP2 POP POP JUMP JUMPDEST PUSH0 DUP1 PUSH1 0x40 DUP4 DUP6 SUB SLT ISZERO PUSH2 0x5AD JUMPI PUSH2 0x5AC PUSH2 0x32F JUMP JUMPDEST JUMPDEST PUSH0 DUP4 ADD CALLDATALOAD PUSH8 0xFFFFFFFFFFFFFFFF DUP2 GT ISZERO PUSH2 0x5CA JUMPI PUSH2 0x5C9 PUSH2 0x333 JUMP JUMPDEST JUMPDEST PUSH2 0x5D6 DUP6 DUP3 DUP7 ADD PUSH2 0x446 JUMP JUMPDEST SWAP3 POP POP PUSH1 0x20 DUP4 ADD CALLDATALOAD PUSH8 0xFFFFFFFFFFFFFFFF DUP2 GT ISZERO PUSH2 0x5F7 JUMPI PUSH2 0x5F6 PUSH2 0x333 JUMP JUMPDEST JUMPDEST PUSH2 0x603 DUP6 DUP3 DUP7 ADD PUSH2 0x446 JUMP JUMPDEST SWAP2 POP POP SWAP3 POP SWAP3 SWAP1 POP JUMP JUMPDEST PUSH32 0x4E487B7100000000000000000000000000000000000000000000000000000000 PUSH0 MSTORE PUSH1 0x22 PUSH1 0x4 MSTORE PUSH1 0x24 PUSH0 REVERT JUMPDEST PUSH0 PUSH1 0x2 DUP3 DIV SWAP1 POP PUSH1 0x1 DUP3 AND DUP1 PUSH2 0x651 JUMPI PUSH1 0x7F DUP3 AND SWAP2 POP JUMPDEST PUSH1 0x20 DUP3 LT DUP2 SUB PUSH2 0x664 JUMPI PUSH2 0x663 PUSH2 0x60D JUMP JUMPDEST JUMPDEST POP SWAP2 SWAP1 POP JUMP JUMPDEST PUSH0 DUP2 SWAP1 POP DUP2 PUSH0 MSTORE PUSH1 0x20 PUSH0 KECCAK256 SWAP1 POP SWAP2 SWAP1 POP JUMP JUMPDEST PUSH0 PUSH1 0x20 PUSH1 0x1F DUP4 ADD DIV SWAP1 POP SWAP2 SWAP1 POP JUMP JUMPDEST PUSH0 DUP3 DUP3 SHL SWAP1 POP SWAP3 SWAP2 POP POP JUMP JUMPDEST PUSH0 PUSH1 0x8 DUP4 MUL PUSH2 0x6C6 PUSH32 0xFFFFFFFFFFFFFFFFFFFFFFFFFFFFFFFFFFFFFFFFFFFFFFFFFFFFFFFFFFFFFFFF DUP3 PUSH2 0x68B JUMP JUMPDEST PUSH2 0x6D0 DUP7 DUP4 PUSH2 0x68B JUMP JUMPDEST SWAP6 POP DUP1 NOT DUP5 AND SWAP4 POP DUP1 DUP7 AND DUP5 OR SWAP3 POP POP POP SWAP4 SWAP3 POP POP POP JUMP JUMPDEST PUSH0 DUP2 SWAP1 POP SWAP2 SWAP1 POP JUMP JUMPDEST PUSH0 DUP2 SWAP1 POP SWAP2 SWAP1 POP JUMP JUMPDEST PUSH0 PUSH2 0x714 PUSH2 0x70F PUSH2 0x70A DUP5 PUSH2 0x6E8 JUMP JUMPDEST PUSH2 0x6F1 JUMP JUMPDEST PUSH2 0x6E8 JUMP JUMPDEST SWAP1 POP SWAP2 SWAP1 POP JUMP JUMPDEST PUSH0 DUP2 SWAP1 POP SWAP2 SWAP1 POP JUMP JUMPDEST PUSH2 0x72D DUP4 PUSH2 0x6FA JUMP JUMPDEST PUSH2 0x741 PUSH2 0x739 DUP3 PUSH2 0x71B JUMP JUMPDEST DUP5 DUP5 SLOAD PUSH2 0x697 JUMP JUMPDEST DUP3 SSTORE POP POP POP POP JUMP JUMPDEST PUSH0 SWAP1 JUMP JUMPDEST PUSH2 0x755 PUSH2 0x749 JUMP JUMPDEST PUSH2 0x760 DUP2 DUP5 DUP5 PUSH2 0x724 JUMP JUMPDEST POP POP POP JUMP JUMPDEST JUMPDEST DUP2 DUP2 LT ISZERO PUSH2 0x783 JUMPI PUSH2 0x778 PUSH0 DUP3 PUSH2 0x74D JUMP JUMPDEST PUSH1 0x1 DUP2 ADD SWAP1 POP PUSH2 0x766 JUMP JUMPDEST POP POP JUMP JUMPDEST PUSH1 0x1F DUP3 GT ISZERO PUSH2 0x7C8 JUMPI PUSH2 0x799 DUP2 PUSH2 0x66A JUMP JUMPDEST PUSH2 0x7A2 DUP5 PUSH2 0x67C JUMP JUMPDEST DUP2 ADD PUSH1 0x20 DUP6 LT ISZERO PUSH2 0x7B1 JUMPI DUP2 SWAP1 POP JUMPDEST PUSH2 0x7C5 PUSH2 0x7BD DUP6 PUSH2 0x67C JUMP JUMPDEST DUP4 ADD DUP3 PUSH2 0x765 JUMP JUMPDEST POP POP JUMPDEST POP POP POP JUMP JUMPDEST PUSH0 DUP3 DUP3 SHR SWAP1 POP SWAP3 SWAP2 POP POP JUMP JUMPDEST PUSH0 PUSH2 0x7E8 PUSH0 NOT DUP5 PUSH1 0x8 MUL PUSH2 0x7CD JUMP JUMPDEST NOT DUP1 DUP4 AND SWAP2 POP POP SWAP3 SWAP2 POP POP JUMP JUMPDEST PUSH0 PUSH2 0x800 DUP4 DUP4 PUSH2 0x7D9 JUMP JUMPDEST SWAP2 POP DUP3 PUSH1 0x2 MUL DUP3 OR SWAP1 POP SWAP3 SWAP2 POP POP JUMP JUMPDEST PUSH2 0x819 DUP3 PUSH2 0x517 JUMP JUMPDEST PUSH8 0xFFFFFFFFFFFFFFFF DUP2 GT ISZERO PUSH2 0x832 JUMPI PUSH2 0x831 PUSH2 0x34F JUMP JUMPDEST JUMPDEST PUSH2 0x83C DUP3 SLOAD PUSH2 0x63A JUMP JUMPDEST PUSH2 0x847 DUP3 DUP3 DUP6 PUSH2 0x787 JUMP JUMPDEST PUSH0 PUSH1 0x20 SWAP1 POP PUSH1 0x1F DUP4 GT PUSH1 0x1 DUP2 EQ PUSH2 0x878 JUMPI PUSH0 DUP5 ISZERO PUSH2 0x866 JUMPI DUP3 DUP8 ADD MLOAD SWAP1 POP JUMPDEST PUSH2 0x870 DUP6 DUP3 PUSH2 0x7F5 JUMP JUMPDEST DUP7 SSTORE POP PUSH2 0x8D7 JUMP JUMPDEST PUSH1 0x1F NOT DUP5 AND PUSH2 0x886 DUP7 PUSH2 0x66A JUMP JUMPDEST PUSH0 JUMPDEST DUP3 DUP2 LT ISZERO PUSH2 0x8AD JUMPI DUP5 DUP10 ADD MLOAD DUP3 SSTORE PUSH1 0x1 DUP3 ADD SWAP2 POP PUSH1 0x20 DUP6 ADD SWAP5 POP PUSH1 0x20 DUP2 ADD SWAP1 POP PUSH2 0x888 JUMP JUMPDEST DUP7 DUP4 LT ISZERO PUSH2 0x8CA JUMPI DUP5 DUP10 ADD MLOAD PUSH2 0x8C6 PUSH1 0x1F DUP10 AND DUP3 PUSH2 0x7D9 JUMP JUMPDEST DUP4 SSTORE POP JUMPDEST PUSH1 0x1 PUSH1 0x2 DUP9 MUL ADD DUP9 SSTORE POP POP POP JUMPDEST POP POP POP POP POP POP JUMP JUMPDEST PUSH32 0x486F2074656E3A20000000000000000000000000000000000000000000000000 DUP2 MSTORE POP JUMP JUMPDEST PUSH0 DUP2 SWAP1 POP SWAP3 SWAP2 POP POP JUMP JUMPDEST PUSH0 DUP2 SLOAD PUSH2 0x91B DUP2 PUSH2 0x63A JUMP JUMPDEST PUSH2 0x925 DUP2 DUP7 PUSH2 0x905 JUMP JUMPDEST SWAP5 POP PUSH1 0x1 DUP3 AND PUSH0 DUP2 EQ PUSH2 0x93F JUMPI PUSH1 0x1 DUP2 EQ PUSH2 0x954 JUMPI PUSH2 0x986 JUMP JUMPDEST PUSH1 0xFF NOT DUP4 AND DUP7 MSTORE DUP2 ISZERO ISZERO DUP3 MUL DUP7 ADD SWAP4 POP PUSH2 0x986 JUMP JUMPDEST PUSH2 0x95D DUP6 PUSH2 0x66A JUMP JUMPDEST PUSH0 JUMPDEST DUP4 DUP2 LT ISZERO PUSH2 0x97E JUMPI DUP2 SLOAD DUP2 DUP10 ADD MSTORE PUSH1 0x1 DUP3 ADD SWAP2 POP PUSH1 0x20 DUP2 ADD SWAP1 POP PUSH2 0x95F JUMP JUMPDEST DUP4 DUP9 ADD SWAP6 POP POP POP JUMPDEST POP POP POP SWAP3 SWAP2 POP POP JUMP JUMPDEST PUSH32 0x2047696F692074696E683A200000000000000000000000000000000000000000 DUP2 MSTORE POP JUMP JUMPDEST PUSH32 0x2054656E206C6F703A0000000000000000000000000000000000000000000000 DUP2 MSTORE POP JUMP JUMPDEST PUSH0 PUSH2 0x9E5 DUP3 PUSH2 0x8DF JUMP JUMPDEST PUSH1 0x8 DUP3 ADD SWAP2 POP PUSH2 0x9F5 DUP3 DUP7 PUSH2 0x90F JUMP JUMPDEST SWAP2 POP PUSH2 0xA00 DUP3 PUSH2 0x98F JUMP JUMPDEST PUSH1 0xC DUP3 ADD SWAP2 POP PUSH2 0xA10 DUP3 DUP6 PUSH2 0x90F JUMP JUMPDEST SWAP2 POP PUSH2 0xA1B DUP3 PUSH2 0x9B5 JUMP JUMPDEST PUSH1 0x9 DUP3 ADD SWAP2 POP PUSH2 0xA2B DUP3 DUP5 PUSH2 0x90F JUMP JUMPDEST SWAP2 POP DUP2 SWAP1 POP SWAP5 SWAP4 POP POP POP POP JUMP INVALID LOG2 PUSH5 0x6970667358 0x22 SLT KECCAK256 0xBC 0x22 0xE6 TLOAD 0xD8 0xA8 MUL DUP14 PUSH17 0x48974F1779D563B3DEFBF4C4025CA6FE02 PUSH14 0xA737CB83E564736F6C634300081A STOP CALLER "
		},
		"gasEstimates": {
			"creation": {
				"codeDepositCost": "534000",
				"executionCost": "566",
				"totalCost": "534566"
			},
			"external": {
				"GioiTinh()": "infinite",
				"Hoten()": "infinite",
				"TenLop()": "infinite",
				"hienThongTin()": "infinite",
				"nhanThongTin(string,string)": "infinite",
				"nhanThongTin(string,string,string)": "infinite"
			}
		},
		"methodIdentifiers": {
			"GioiTinh()": "4b115bce",
			"Hoten()": "864fc1b8",
			"TenLop()": "4ca55da2",
			"hienThongTin()": "20db8b9d",
			"nhanThongTin(string,string)": "3e8ae8c6",
			"nhanThongTin(string,string,string)": "05206b8e"
		}
	},
	"abi": [
		{
			"inputs": [],
			"name": "GioiTinh",
			"outputs": [
				{
					"internalType": "string",
					"name": "",
					"type": "string"
				}
			],
			"stateMutability": "view",
			"type": "function"
		},
		{
			"inputs": [],
			"name": "Hoten",
			"outputs": [
				{
					"internalType": "string",
					"name": "",
					"type": "string"
				}
			],
			"stateMutability": "view",
			"type": "function"
		},
		{
			"inputs": [],
			"name": "TenLop",
			"outputs": [
				{
					"internalType": "string",
					"name": "",
					"type": "string"
				}
			],
			"stateMutability": "view",
			"type": "function"
		},
		{
			"inputs": [],
			"name": "hienThongTin",
			"outputs": [
				{
					"internalType": "string",
					"name": "",
					"type": "string"
				}
			],
			"stateMutability": "view",
			"type": "function"
		},
		{
			"inputs": [
				{
					"internalType": "string",
					"name": "_Hoten",
					"type": "string"
				},
				{
					"internalType": "string",
					"name": "_GioiTinh",
					"type": "string"
				},
				{
					"internalType": "string",
					"name": "_TenLop",
					"type": "string"
				}
			],
			"name": "nhanThongTin",
			"outputs": [],
			"stateMutability": "nonpayable",
			"type": "function"
		},
		{
			"inputs": [
				{
					"internalType": "string",
					"name": "_Hoten",
					"type": "string"
				},
				{
					"internalType": "string",
					"name": "_GioiTinh",
					"type": "string"
				}
			],
			"name": "nhanThongTin",
			"outputs": [],
			"stateMutability": "nonpayable",
			"type": "function"
		}
	]
}